{
  "contractName": "presidentElection",
  "abi": [
    {
      "constant": true,
      "inputs": [],
      "name": "tieIndex",
      "outputs": [
        {
          "name": "",
          "type": "uint256"
        }
      ],
      "payable": false,
      "stateMutability": "view",
      "type": "function"
    },
    {
      "constant": true,
      "inputs": [
        {
          "name": "timestamp",
          "type": "uint256"
        }
      ],
      "name": "getHour",
      "outputs": [
        {
          "name": "",
          "type": "uint8"
        }
      ],
      "payable": false,
      "stateMutability": "pure",
      "type": "function"
    },
    {
      "constant": true,
      "inputs": [],
      "name": "voteManager",
      "outputs": [
        {
          "name": "",
          "type": "address"
        }
      ],
      "payable": false,
      "stateMutability": "view",
      "type": "function"
    },
    {
      "constant": true,
      "inputs": [],
      "name": "numCandidates",
      "outputs": [
        {
          "name": "",
          "type": "uint256"
        }
      ],
      "payable": false,
      "stateMutability": "view",
      "type": "function"
    },
    {
      "constant": true,
      "inputs": [
        {
          "name": "year",
          "type": "uint16"
        },
        {
          "name": "month",
          "type": "uint8"
        },
        {
          "name": "day",
          "type": "uint8"
        },
        {
          "name": "hour",
          "type": "uint8"
        },
        {
          "name": "minute",
          "type": "uint8"
        }
      ],
      "name": "toTimestamp",
      "outputs": [
        {
          "name": "timestamp",
          "type": "uint256"
        }
      ],
      "payable": false,
      "stateMutability": "pure",
      "type": "function"
    },
    {
      "constant": true,
      "inputs": [
        {
          "name": "timestamp",
          "type": "uint256"
        }
      ],
      "name": "getDay",
      "outputs": [
        {
          "name": "",
          "type": "uint8"
        }
      ],
      "payable": false,
      "stateMutability": "pure",
      "type": "function"
    },
    {
      "constant": true,
      "inputs": [],
      "name": "votePhaseStartTime",
      "outputs": [
        {
          "name": "",
          "type": "uint256"
        }
      ],
      "payable": false,
      "stateMutability": "view",
      "type": "function"
    },
    {
      "constant": true,
      "inputs": [],
      "name": "setEndTime",
      "outputs": [
        {
          "name": "",
          "type": "bool"
        }
      ],
      "payable": false,
      "stateMutability": "view",
      "type": "function"
    },
    {
      "constant": true,
      "inputs": [],
      "name": "totalVoteCount",
      "outputs": [
        {
          "name": "",
          "type": "uint256"
        }
      ],
      "payable": false,
      "stateMutability": "view",
      "type": "function"
    },
    {
      "constant": true,
      "inputs": [],
      "name": "owner",
      "outputs": [
        {
          "name": "",
          "type": "address"
        }
      ],
      "payable": false,
      "stateMutability": "view",
      "type": "function"
    },
    {
      "constant": true,
      "inputs": [],
      "name": "winnerIndex",
      "outputs": [
        {
          "name": "",
          "type": "uint256"
        }
      ],
      "payable": false,
      "stateMutability": "view",
      "type": "function"
    },
    {
      "constant": true,
      "inputs": [
        {
          "name": "timestamp",
          "type": "uint256"
        }
      ],
      "name": "getYear",
      "outputs": [
        {
          "name": "",
          "type": "uint16"
        }
      ],
      "payable": false,
      "stateMutability": "pure",
      "type": "function"
    },
    {
      "constant": true,
      "inputs": [],
      "name": "votePhaseEndTime",
      "outputs": [
        {
          "name": "",
          "type": "uint256"
        }
      ],
      "payable": false,
      "stateMutability": "view",
      "type": "function"
    },
    {
      "constant": true,
      "inputs": [],
      "name": "maxVoteCount",
      "outputs": [
        {
          "name": "",
          "type": "uint256"
        }
      ],
      "payable": false,
      "stateMutability": "view",
      "type": "function"
    },
    {
      "constant": true,
      "inputs": [
        {
          "name": "timestamp",
          "type": "uint256"
        }
      ],
      "name": "getMonth",
      "outputs": [
        {
          "name": "",
          "type": "uint8"
        }
      ],
      "payable": false,
      "stateMutability": "pure",
      "type": "function"
    },
    {
      "constant": true,
      "inputs": [
        {
          "name": "year",
          "type": "uint16"
        }
      ],
      "name": "isLeapYear",
      "outputs": [
        {
          "name": "",
          "type": "bool"
        }
      ],
      "payable": false,
      "stateMutability": "pure",
      "type": "function"
    },
    {
      "constant": true,
      "inputs": [
        {
          "name": "year",
          "type": "uint256"
        }
      ],
      "name": "leapYearsBefore",
      "outputs": [
        {
          "name": "",
          "type": "uint256"
        }
      ],
      "payable": false,
      "stateMutability": "pure",
      "type": "function"
    },
    {
      "constant": true,
      "inputs": [
        {
          "name": "month",
          "type": "uint8"
        },
        {
          "name": "year",
          "type": "uint16"
        }
      ],
      "name": "getDaysInMonth",
      "outputs": [
        {
          "name": "",
          "type": "uint8"
        }
      ],
      "payable": false,
      "stateMutability": "pure",
      "type": "function"
    },
    {
      "constant": false,
      "inputs": [],
      "name": "getNow",
      "outputs": [
        {
          "name": "",
          "type": "uint256"
        }
      ],
      "payable": false,
      "stateMutability": "nonpayable",
      "type": "function"
    },
    {
      "constant": true,
      "inputs": [],
      "name": "setTime",
      "outputs": [
        {
          "name": "",
          "type": "bool"
        }
      ],
      "payable": false,
      "stateMutability": "view",
      "type": "function"
    },
    {
      "constant": true,
      "inputs": [
        {
          "name": "timestamp",
          "type": "uint256"
        }
      ],
      "name": "getMinute",
      "outputs": [
        {
          "name": "",
          "type": "uint8"
        }
      ],
      "payable": false,
      "stateMutability": "pure",
      "type": "function"
    },
    {
      "inputs": [],
      "payable": false,
      "stateMutability": "nonpayable",
      "type": "constructor"
    },
    {
      "anonymous": false,
      "inputs": [
        {
          "indexed": false,
          "name": "",
          "type": "string"
        }
      ],
      "name": "logString",
      "type": "event"
    },
    {
      "anonymous": false,
      "inputs": [
        {
          "indexed": false,
          "name": "",
          "type": "uint256"
        }
      ],
      "name": "logInt",
      "type": "event"
    },
    {
      "anonymous": false,
      "inputs": [
        {
          "indexed": false,
          "name": "",
          "type": "string"
        },
        {
          "indexed": false,
          "name": "",
          "type": "string"
        }
      ],
      "name": "voteWinner",
      "type": "event"
    },
    {
      "constant": false,
      "inputs": [
        {
          "name": "_year",
          "type": "uint16"
        },
        {
          "name": "_month",
          "type": "uint8"
        },
        {
          "name": "_day",
          "type": "uint8"
        },
        {
          "name": "_hour",
          "type": "uint8"
        },
        {
          "name": "_minute",
          "type": "uint8"
        }
      ],
      "name": "setTimeStamp",
      "outputs": [],
      "payable": false,
      "stateMutability": "nonpayable",
      "type": "function"
    },
    {
      "constant": false,
      "inputs": [
        {
          "name": "_year",
          "type": "uint16"
        },
        {
          "name": "_month",
          "type": "uint8"
        },
        {
          "name": "_day",
          "type": "uint8"
        },
        {
          "name": "_hour",
          "type": "uint8"
        },
        {
          "name": "_minute",
          "type": "uint8"
        }
      ],
      "name": "setEndTimeStamp",
      "outputs": [],
      "payable": false,
      "stateMutability": "nonpayable",
      "type": "function"
    },
    {
      "constant": false,
      "inputs": [
        {
          "name": "_maxVoteCount",
          "type": "uint256"
        }
      ],
      "name": "startVote",
      "outputs": [],
      "payable": false,
      "stateMutability": "nonpayable",
      "type": "function"
    },
    {
      "constant": false,
      "inputs": [
        {
          "name": "_name",
          "type": "string"
        }
      ],
      "name": "addCandidate",
      "outputs": [],
      "payable": false,
      "stateMutability": "nonpayable",
      "type": "function"
    },
    {
      "constant": false,
      "inputs": [
        {
          "name": "_vote",
          "type": "uint256"
        }
      ],
      "name": "castVote",
      "outputs": [],
      "payable": false,
      "stateMutability": "nonpayable",
      "type": "function"
    },
    {
      "constant": false,
      "inputs": [],
      "name": "countVotes",
      "outputs": [],
      "payable": false,
      "stateMutability": "nonpayable",
      "type": "function"
    },
    {
      "constant": true,
      "inputs": [],
      "name": "getWinner",
      "outputs": [
        {
          "name": "",
          "type": "string"
        }
      ],
      "payable": false,
      "stateMutability": "view",
      "type": "function"
    },
    {
      "constant": true,
      "inputs": [],
      "name": "getTieWinner",
      "outputs": [
        {
          "name": "",
          "type": "string"
        },
        {
          "name": "",
          "type": "string"
        }
      ],
      "payable": false,
      "stateMutability": "view",
      "type": "function"
    },
    {
      "constant": true,
      "inputs": [
        {
          "name": "_index",
          "type": "uint256"
        }
      ],
      "name": "intToCandidate",
      "outputs": [
        {
          "name": "",
          "type": "string"
        }
      ],
      "payable": false,
      "stateMutability": "view",
      "type": "function"
    },
    {
      "constant": true,
      "inputs": [
        {
          "name": "_name",
          "type": "string"
        }
      ],
      "name": "candidateToInt",
      "outputs": [
        {
          "name": "",
          "type": "uint256"
        }
      ],
      "payable": false,
      "stateMutability": "view",
      "type": "function"
    },
    {
      "constant": false,
      "inputs": [],
      "name": "test",
      "outputs": [
        {
          "name": "",
          "type": "uint256"
        }
      ],
      "payable": false,
      "stateMutability": "nonpayable",
      "type": "function"
    }
  ],
  "bytecode": "0x6080604052601e600a5534801561001557600080fd5b5033600b60006101000a81548173ffffffffffffffffffffffffffffffffffffffff021916908373ffffffffffffffffffffffffffffffffffffffff16021790555033600c60006101000a81548173ffffffffffffffffffffffffffffffffffffffff021916908373ffffffffffffffffffffffffffffffffffffffff1602179055506001600960006101000a81548160ff0219169083151502179055506001600960016101000a81548160ff021916908315150217905550611d9c806100dd6000396000f300608060405260043610610196576000357c0100000000000000000000000000000000000000000000000000000000900463ffffffff16806328d9e6fa1461019b5780633e239e1a146101c65780633eb76b9c1461020d5780633f2205241461023a57806342c1e58714610267578063462e91ec146102be5780635216509a146103275780635fce2e161461035257806362ba9687146103f857806365c72840146104715780637266eb5b146104b857806376be6af6146104e3578063893d8f4c146105125780638da5cb5b1461053d5780638e7ea5b2146105945780638f00cbfa1461062457806392d663131461064f5780639877ea47146106985780639f62568d146106c3578063a2e23f77146106ee578063a324ad2414610753578063a6f0e5771461079a578063b09b59ac146107e3578063b199993714610848578063b238ad0e14610889578063b647990a146108e1578063bbe4fd50146108f8578063d9276a4914610923578063db70930214610952578063e254fb5c146109cf578063f8a8fd6d14610acb578063fa93f88314610af6575b600080fd5b3480156101a757600080fd5b506101b0610b3d565b6040518082815260200191505060405180910390f35b3480156101d257600080fd5b506101f160048036038101908080359060200190929190505050610b43565b604051808260ff1660ff16815260200191505060405180910390f35b34801561021957600080fd5b5061023860048036038101908080359060200190929190505050610b70565b005b34801561024657600080fd5b5061026560048036038101908080359060200190929190505050610bfb565b005b34801561027357600080fd5b5061027c610ccb565b604051808273ffffffffffffffffffffffffffffffffffffffff1673ffffffffffffffffffffffffffffffffffffffff16815260200191505060405180910390f35b3480156102ca57600080fd5b50610325600480360381019080803590602001908201803590602001908080601f0160208091040260200160405190810160405280939291908181526020018383808284378201915050505050509192919290505050610cf1565b005b34801561033357600080fd5b5061033c610db1565b6040518082815260200191505060405180910390f35b34801561035e57600080fd5b5061037d60048036038101908080359060200190929190505050610db7565b6040518080602001828103825283818151815260200191508051906020019080838360005b838110156103bd5780820151818401526020810190506103a2565b50505050905090810190601f1680156103ea5780820380516001836020036101000a031916815260200191505b509250505060405180910390f35b34801561040457600080fd5b5061045b600480360381019080803561ffff169060200190929190803560ff169060200190929190803560ff169060200190929190803560ff169060200190929190803560ff169060200190929190505050610e6c565b6040518082815260200191505060405180910390f35b34801561047d57600080fd5b5061049c60048036038101908080359060200190929190505050611110565b604051808260ff1660ff16815260200191505060405180910390f35b3480156104c457600080fd5b506104cd611126565b6040518082815260200191505060405180910390f35b3480156104ef57600080fd5b506104f861112c565b604051808215151515815260200191505060405180910390f35b34801561051e57600080fd5b5061052761113f565b6040518082815260200191505060405180910390f35b34801561054957600080fd5b50610552611145565b604051808273ffffffffffffffffffffffffffffffffffffffff1673ffffffffffffffffffffffffffffffffffffffff16815260200191505060405180910390f35b3480156105a057600080fd5b506105a961116b565b6040518080602001828103825283818151815260200191508051906020019080838360005b838110156105e95780820151818401526020810190506105ce565b50505050905090810190601f1680156106165780820380516001836020036101000a031916815260200191505b509250505060405180910390f35b34801561063057600080fd5b5061063961127f565b6040518082815260200191505060405180910390f35b34801561065b57600080fd5b5061067a60048036038101908080359060200190929190505050611285565b604051808261ffff1661ffff16815260200191505060405180910390f35b3480156106a457600080fd5b506106ad611330565b6040518082815260200191505060405180910390f35b3480156106cf57600080fd5b506106d8611336565b6040518082815260200191505060405180910390f35b3480156106fa57600080fd5b50610751600480360381019080803561ffff169060200190929190803560ff169060200190929190803560ff169060200190929190803560ff169060200190929190803560ff16906020019092919050505061133c565b005b34801561075f57600080fd5b5061077e60048036038101908080359060200190929190505050611403565b604051808260ff1660ff16815260200191505060405180910390f35b3480156107a657600080fd5b506107c9600480360381019080803561ffff169060200190929190505050611419565b604051808215151515815260200191505060405180910390f35b3480156107ef57600080fd5b50610846600480360381019080803561ffff169060200190929190803560ff169060200190929190803560ff169060200190929190803560ff169060200190929190803560ff16906020019092919050505061149a565b005b34801561085457600080fd5b5061087360048036038101908080359060200190929190505050611575565b6040518082815260200191505060405180910390f35b34801561089557600080fd5b506108c5600480360381019080803560ff169060200190929190803561ffff1690602001909291905050506115ae565b604051808260ff1660ff16815260200191505060405180910390f35b3480156108ed57600080fd5b506108f661167a565b005b34801561090457600080fd5b5061090d61171c565b6040518082815260200191505060405180910390f35b34801561092f57600080fd5b50610938611728565b604051808215151515815260200191505060405180910390f35b34801561095e57600080fd5b506109b9600480360381019080803590602001908201803590602001908080601f016020809104026020016040519081016040528093929190818152602001838380828437820191505050505050919291929050505061173b565b6040518082815260200191505060405180910390f35b3480156109db57600080fd5b506109e4611860565b604051808060200180602001838103835285818151815260200191508051906020019080838360005b83811015610a28578082015181840152602081019050610a0d565b50505050905090810190601f168015610a555780820380516001836020036101000a031916815260200191505b50838103825284818151815260200191508051906020019080838360005b83811015610a8e578082015181840152602081019050610a73565b50505050905090810190601f168015610abb5780820380516001836020036101000a031916815260200191505b5094505050505060405180910390f35b348015610ad757600080fd5b50610ae06119f4565b6040518082815260200191505060405180910390f35b348015610b0257600080fd5b50610b21600480360381019080803590602001909291905050506119fe565b604051808260ff1660ff16815260200191505060405180910390f35b60065481565b60006018603c8084811515610b5457fe5b04811515610b5e57fe5b04811515610b6857fe5b069050919050565b600354617e904201111515610b8457600080fd5b600454617e904201101515610b9857600080fd5b600754600854111515610baa57600080fd5b600454421115610bb957610bf8565b60025481111515610bf75760016000808381526020019081526020016000206000828254019250508190555060016007600082825401925050819055505b5b50565b600454617e904201111515610c0f57600080fd5b3373ffffffffffffffffffffffffffffffffffffffff16600b60009054906101000a900473ffffffffffffffffffffffffffffffffffffffff1673ffffffffffffffffffffffffffffffffffffffff16141515610c6b57600080fd5b610c73611a1f565b806008819055506000600281905550600060058190555060006006819055506000600960006101000a81548160ff0219169083151502179055506000600960016101000a81548160ff02191690831515021790555050565b600c60009054906101000a900473ffffffffffffffffffffffffffffffffffffffff1681565b600454617e904201111515610d0557600080fd5b3373ffffffffffffffffffffffffffffffffffffffff16600b60009054906101000a900473ffffffffffffffffffffffffffffffffffffffff1673ffffffffffffffffffffffffffffffffffffffff16141515610d6157600080fd5b600960025411151515610d7357600080fd5b6001600260008282540192505081905550806001600060025481526020019081526020016000209080519060200190610dad929190611c53565b5050565b60025481565b6060600160008381526020019081526020016000208054600181600116156101000203166002900480601f016020809104026020016040519081016040528092919081815260200182805460018160011615610100020316600290048015610e605780601f10610e3557610100808354040283529160200191610e60565b820191906000526020600020905b815481529060010190602001808311610e4357829003601f168201915b50505050509050919050565b600080610e77611cd3565b6107b291505b8761ffff168261ffff161015610ec057610e9682611419565b15610ea9576301e2850083019250610eb3565b6301e13380830192505b8180600101925050610e7d565b601f816000600c81101515610ed157fe5b602002019060ff16908160ff1681525050610eeb88611419565b15610f1757601d816001600c81101515610f0157fe5b602002019060ff16908160ff1681525050610f3a565b601c816001600c81101515610f2857fe5b602002019060ff16908160ff16815250505b601f816002600c81101515610f4b57fe5b602002019060ff16908160ff1681525050601e816003600c81101515610f6d57fe5b602002019060ff16908160ff1681525050601f816004600c81101515610f8f57fe5b602002019060ff16908160ff1681525050601e816005600c81101515610fb157fe5b602002019060ff16908160ff1681525050601f816006600c81101515610fd357fe5b602002019060ff16908160ff1681525050601f816007600c81101515610ff557fe5b602002019060ff16908160ff1681525050601e816008600c8110151561101757fe5b602002019060ff16908160ff1681525050601f816009600c8110151561103957fe5b602002019060ff16908160ff1681525050601e81600a600c8110151561105b57fe5b602002019060ff16908160ff1681525050601f81600b600c8110151561107d57fe5b602002019060ff16908160ff1681525050600191505b8660ff168261ffff1610156110d557806001830361ffff16600c811015156110b757fe5b602002015160ff166201518002830192508180600101925050611093565b6001860360ff166201518002830192508460ff16610e1002830192508360ff16603c0283019250600083019250829250505095945050505050565b600061111b82611a61565b604001519050919050565b60035481565b600960019054906101000a900460ff1681565b60075481565b600b60009054906101000a900473ffffffffffffffffffffffffffffffffffffffff1681565b6060600454617e90420111151561118157600080fd5b611189611bce565b156111cb576040805190810160405280600381526020017f7469650000000000000000000000000000000000000000000000000000000000815250905061127c565b6001600060055481526020019081526020016000208054600181600116156101000203166002900480601f0160208091040260200160405190810160405280929190818152602001828054600181600116156101000203166002900480156112745780601f1061124957610100808354040283529160200191611274565b820191906000526020600020905b81548152906001019060200180831161125757829003601f168201915b505050505090505b90565b60055481565b600080600080600092506301e133808581151561129e57fe5b046107b261ffff160191506112b86107b261ffff16611575565b6112c58361ffff16611575565b039050806301e285000283019250806107b2830361ffff16036301e1338002830192505b84831115611325576112fd60018303611419565b15611310576301e285008303925061131a565b6301e13380830392505b6001820391506112e9565b819350505050919050565b60045481565b60085481565b600454617e90420111151561135057600080fd5b3373ffffffffffffffffffffffffffffffffffffffff16600b60009054906101000a900473ffffffffffffffffffffffffffffffffffffffff1673ffffffffffffffffffffffffffffffffffffffff161415156113ac57600080fd5b60001515600960019054906101000a900460ff1615151415156113ce57600080fd5b6001600960016101000a81548160ff0219169083151502179055506113f68585858585610e6c565b6004819055505050505050565b600061140e82611a61565b602001519050919050565b60008060048361ffff1681151561142c57fe5b0661ffff161415156114415760009050611495565b600060648361ffff1681151561145357fe5b0661ffff161415156114685760019050611495565b60006101908361ffff1681151561147b57fe5b0661ffff161415156114905760009050611495565b600190505b919050565b600354617e9042011115156114ae57600080fd5b600454617e9042011115156114c257600080fd5b3373ffffffffffffffffffffffffffffffffffffffff16600b60009054906101000a900473ffffffffffffffffffffffffffffffffffffffff1673ffffffffffffffffffffffffffffffffffffffff1614151561151e57600080fd5b60001515600960009054906101000a900460ff16151514151561154057600080fd5b6001600960006101000a81548160ff0219169083151502179055506115688585858585610e6c565b6003819055505050505050565b60006001820391506101908281151561158a57fe5b0460648381151561159757fe5b046004848115156115a457fe5b0403019050919050565b600060018360ff1614806115c5575060038360ff16145b806115d3575060058360ff16145b806115e1575060078360ff16145b806115ef575060088360ff16145b806115fd5750600a8360ff16145b8061160b5750600c8360ff16145b1561161957601f9050611674565b60048360ff16148061162e575060068360ff16145b8061163c575060098360ff16145b8061164a5750600b8360ff16145b1561165857601e9050611674565b61166182611419565b1561166f57601d9050611674565b601c90505b92915050565b6000600454617e90420111151561169057600080fd5b600190505b60025481111515611719576000806005548152602001908152602001600020546000808381526020019081526020016000205414156116d657806006819055505b60008060055481526020019081526020016000205460008083815260200190815260200160002054111561170c57806005819055505b8080600101915050611695565b50565b6000617e904201905090565b600960009054906101000a900460ff1681565b6000806000836040518082805190602001908083835b6020831015156117765780518252602082019150602081019050602083039250611751565b6001836020036101000a03801982511681845116808217855250505050505090500191505060405180910390209150600190505b60025481111515611854576001600082815260200190815260200160002060405180828054600181600116156101000203166002900480156118235780601f10611801576101008083540402835291820191611823565b820191906000526020600020905b81548152906001019060200180831161180f575b50509150506040518091039020600019168260001916141561184757809250611859565b80806001019150506117aa565b600092505b5050919050565b606080600454617e90420111151561187757600080fd5b61187f611bce565b151561188a57600080fd5b600160006005548152602001908152602001600020600160006006548152602001908152602001600020818054600181600116156101000203166002900480601f0160208091040260200160405190810160405280929190818152602001828054600181600116156101000203166002900480156119495780601f1061191e57610100808354040283529160200191611949565b820191906000526020600020905b81548152906001019060200180831161192c57829003601f168201915b50505050509150808054600181600116156101000203166002900480601f0160208091040260200160405190810160405280929190818152602001828054600181600116156101000203166002900480156119e55780601f106119ba576101008083540402835291602001916119e5565b820191906000526020600020905b8154815290600101906020018083116119c857829003601f168201915b50505050509050915091509091565b6000600754905090565b6000603c8083811515611a0d57fe5b04811515611a1757fe5b069050919050565b6000600190505b60025481111515611a56576000806000838152602001908152602001600020819055508080600101915050611a26565b600060078190555050565b611a69611cf7565b60008060008060009350611a7c86611285565b856000019061ffff16908161ffff1681525050611a9e6107b261ffff16611575565b611aaf866000015161ffff16611575565b039250826301e285000284019350826107b286600001510361ffff16036301e133800284019350600191505b600c8260ff16111515611b3357611af68286600001516115ae565b60ff1662015180029050858482011115611b215781856020019060ff16908160ff1681525050611b33565b80840193508180600101925050611adb565b600191505b611b4a856020015186600001516115ae565b60ff168260ff16111515611b9157858462015180011115611b7c5781856040019060ff16908160ff1681525050611b91565b62015180840193508180600101925050611b38565b611b9a86610b43565b856060019060ff16908160ff1681525050611bb4866119fe565b856080019060ff16908160ff168152505050505050919050565b6000600454617e904201111515611be457600080fd5b600080600654815260200190815260200160002054600080600554815260200190815260200160002054148015611c1f575060065460055414155b8015611c2e5750600060055414155b8015611c3d5750600060065414155b15611c4b5760019050611c50565b600090505b90565b828054600181600116156101000203166002900490600052602060002090601f016020900481019282601f10611c9457805160ff1916838001178555611cc2565b82800160010185558215611cc2579182015b82811115611cc1578251825591602001919060010190611ca6565b5b509050611ccf9190611d4b565b5090565b61018060405190810160405280600c90602082028038833980820191505090505090565b60e060405190810160405280600061ffff168152602001600060ff168152602001600060ff168152602001600060ff168152602001600060ff168152602001600060ff168152602001600060ff1681525090565b611d6d91905b80821115611d69576000816000905550600101611d51565b5090565b905600a165627a7a7230582004e15ed93a0c5c321fd73aee5f2e43d98c15598f9937756cdfa598a735d6afdf0029",
  "source": "pragma solidity ^0.4.7;\n\nimport \"./dateTime.sol\";\n//startvoe -> addcandidate -> time setting\ncontract presidentElection is dateTime\n{\n    mapping(uint => uint) voteCount; \n    mapping(uint => string) candidate; \n    uint public numCandidates;\n    uint public votePhaseStartTime;\n    uint public votePhaseEndTime;\n    uint public winnerIndex;\n    uint public tieIndex;\n    uint public totalVoteCount;\n    uint public maxVoteCount;\n    bool public setTime;\n    bool public setEndTime;\n    uint MIN_VOTE_TIME = 30;\n    address public owner;\n    address public voteManager;\n    \n    //Modifiers\n    modifier voteAlreadyStarted{ //   \n        require((now+3600*9) > votePhaseStartTime);\n        _;\n    }\n    modifier voteFinished {// \n        require((now+3600*9) > votePhaseEndTime);\n        _;\n    }\n    modifier ownerShip{// \n        require(owner == msg.sender);\n        _;\n    }\n    modifier voterShip{//  \n        require(voteManager == msg.sender);\n        _;\n    }\n\n    event logString(string);\n    event logInt(uint);\n    event voteWinner(string, string);\n\n    function presidentElection() public { //  \n        owner = msg.sender;\n        voteManager = msg.sender;\n        setTime=true;\n        setEndTime=true;\n    }\n    \n    function setTimeStamp(uint16 _year, uint8 _month, uint8 _day, uint8 _hour,\n        uint8 _minute) voteAlreadyStarted voteFinished ownerShip public\n    {\n        require(setTime == false);\n        setTime = true;\n        votePhaseStartTime = toTimestamp(_year,_month,_day,_hour,_minute);\n    }\n    function setEndTimeStamp(uint16 _year, uint8 _month, uint8 _day, uint8 _hour,\n        uint8 _minute) voteFinished ownerShip public\n    {\n        require(setEndTime == false);\n        setEndTime = true;\n        votePhaseEndTime = toTimestamp(_year,_month,_day,_hour,_minute);\n    }\n\n    function startVote(uint _maxVoteCount) voteFinished ownerShip public\n    {\n        // \n        //  \n        resetVoteCount();\n        maxVoteCount = _maxVoteCount;\n        numCandidates = 0;\n        winnerIndex = 0;\n        tieIndex = 0;\n        setTime = false;\n        setEndTime = false;\n    }\n\n    function resetVoteCount() private\n    {\n        // \n        for (uint i=1; i<=numCandidates; i++)\n        {\n            voteCount[i] = 0;\n        }\n        totalVoteCount =0;\n    }\n\n    function addCandidate(string _name) voteFinished ownerShip  public\n    {\n        // \n        require(numCandidates <= 9);\n        numCandidates += 1;\n        candidate[numCandidates] = _name;\n    }\n\n    function castVote(uint _vote) voteAlreadyStarted public\n    {\n        //\n        require((now+3600*9) < votePhaseEndTime);\n        require(maxVoteCount > totalVoteCount);\n        if (now > votePhaseEndTime) return;\n\n        // record the vote\n        if (_vote <= numCandidates) \n        {\n            voteCount[_vote] += 1;\n            totalVoteCount += 1;\n        } \n    }\n\n    function countVotes() voteFinished public\n    {\n        // \n        for (uint i=1; i<= numCandidates; i++)\n        {\n            if (voteCount[i] == voteCount[winnerIndex]) tieIndex = i;\n            if (voteCount[i] > voteCount[winnerIndex]) winnerIndex = i;\n        }\n    }\n\n    function isTie() constant private voteFinished returns(bool)\n    {\n        // \n        if (voteCount[winnerIndex] == voteCount[tieIndex] \n            && winnerIndex != tieIndex\n            && winnerIndex != 0\n            && tieIndex != 0) return true;\n        return false;\n    }\n\n    function getWinner() voteFinished constant public returns(string) \n    {\n        //\n        if (isTie()) return \"tie\";\n        return candidate[winnerIndex];\n    }\n\n    function getTieWinner() voteFinished constant public returns(string, string)\n    {\n        // \n        require(isTie());\n        return (candidate[winnerIndex], candidate[tieIndex]);\n    }\n\n    function intToCandidate(uint _index) constant public returns(string) \n    {\n        //   \n        return candidate[_index];\n    }\n\n    function candidateToInt(string _name) constant public returns(uint)\n    {\n        //   \n        bytes32 nameHash = sha3(_name);\n        for (uint i=1; i<=numCandidates; i++)\n        {\n            if (nameHash == sha3(candidate[i]))\n                return i;\n        }\n        return 0;\n    }\n\n    function test() public returns(uint){\n        return totalVoteCount;\n    }\n\n}\n",
  "sourcePath": "/Users/lucas/dev/js/blockchain_election/dapp_election/contracts/presidentElection.sol",
  "compiler": {
    "name": "solc",
    "version": "0.4.23+commit.124ca40d.Emscripten.clang"
  },
  "schemaVersion": "2.0.0",
  "updatedAt": "2018-05-19T08:42:42.851Z"
}