{
  "contractName": "dateTime",
  "abi": [
    {
      "constant": true,
      "inputs": [
        {
          "name": "year",
          "type": "uint16"
        }
      ],
      "name": "isLeapYear",
      "outputs": [
        {
          "name": "",
          "type": "bool"
        }
      ],
      "payable": false,
      "stateMutability": "pure",
      "type": "function"
    },
    {
      "constant": true,
      "inputs": [
        {
          "name": "year",
          "type": "uint256"
        }
      ],
      "name": "leapYearsBefore",
      "outputs": [
        {
          "name": "",
          "type": "uint256"
        }
      ],
      "payable": false,
      "stateMutability": "pure",
      "type": "function"
    },
    {
      "constant": true,
      "inputs": [
        {
          "name": "month",
          "type": "uint8"
        },
        {
          "name": "year",
          "type": "uint16"
        }
      ],
      "name": "getDaysInMonth",
      "outputs": [
        {
          "name": "",
          "type": "uint8"
        }
      ],
      "payable": false,
      "stateMutability": "pure",
      "type": "function"
    },
    {
      "constant": true,
      "inputs": [
        {
          "name": "timestamp",
          "type": "uint256"
        }
      ],
      "name": "getYear",
      "outputs": [
        {
          "name": "",
          "type": "uint16"
        }
      ],
      "payable": false,
      "stateMutability": "pure",
      "type": "function"
    },
    {
      "constant": true,
      "inputs": [
        {
          "name": "timestamp",
          "type": "uint256"
        }
      ],
      "name": "getMonth",
      "outputs": [
        {
          "name": "",
          "type": "uint8"
        }
      ],
      "payable": false,
      "stateMutability": "pure",
      "type": "function"
    },
    {
      "constant": true,
      "inputs": [
        {
          "name": "timestamp",
          "type": "uint256"
        }
      ],
      "name": "getDay",
      "outputs": [
        {
          "name": "",
          "type": "uint8"
        }
      ],
      "payable": false,
      "stateMutability": "pure",
      "type": "function"
    },
    {
      "constant": true,
      "inputs": [
        {
          "name": "timestamp",
          "type": "uint256"
        }
      ],
      "name": "getHour",
      "outputs": [
        {
          "name": "",
          "type": "uint8"
        }
      ],
      "payable": false,
      "stateMutability": "pure",
      "type": "function"
    },
    {
      "constant": true,
      "inputs": [
        {
          "name": "timestamp",
          "type": "uint256"
        }
      ],
      "name": "getMinute",
      "outputs": [
        {
          "name": "",
          "type": "uint8"
        }
      ],
      "payable": false,
      "stateMutability": "pure",
      "type": "function"
    },
    {
      "constant": false,
      "inputs": [],
      "name": "getNow",
      "outputs": [
        {
          "name": "",
          "type": "uint256"
        }
      ],
      "payable": false,
      "stateMutability": "nonpayable",
      "type": "function"
    },
    {
      "constant": true,
      "inputs": [
        {
          "name": "year",
          "type": "uint16"
        },
        {
          "name": "month",
          "type": "uint8"
        },
        {
          "name": "day",
          "type": "uint8"
        },
        {
          "name": "hour",
          "type": "uint8"
        },
        {
          "name": "minute",
          "type": "uint8"
        }
      ],
      "name": "toTimestamp",
      "outputs": [
        {
          "name": "timestamp",
          "type": "uint256"
        }
      ],
      "payable": false,
      "stateMutability": "pure",
      "type": "function"
    }
  ],
  "bytecode": "0x6060604052341561000f57600080fd5b610aa78061001e6000396000f3006060604052600436106100a4576000357c0100000000000000000000000000000000000000000000000000000000900463ffffffff1680633e239e1a146100a957806362ba9687146100e657806365c728401461015157806392d663131461018e578063a324ad24146101cd578063a6f0e5771461020a578063b199993714610249578063b238ad0e14610280578063bbe4fd50146102cd578063fa93f883146102f6575b600080fd5b34156100b457600080fd5b6100ca6004808035906020019091905050610333565b604051808260ff1660ff16815260200191505060405180910390f35b34156100f157600080fd5b61013b600480803561ffff1690602001909190803560ff1690602001909190803560ff1690602001909190803560ff1690602001909190803560ff16906020019091905050610360565b6040518082815260200191505060405180910390f35b341561015c57600080fd5b6101726004808035906020019091905050610604565b604051808260ff1660ff16815260200191505060405180910390f35b341561019957600080fd5b6101af600480803590602001909190505061061a565b604051808261ffff1661ffff16815260200191505060405180910390f35b34156101d857600080fd5b6101ee60048080359060200190919050506106c5565b604051808260ff1660ff16815260200191505060405180910390f35b341561021557600080fd5b61022f600480803561ffff169060200190919050506106db565b604051808215151515815260200191505060405180910390f35b341561025457600080fd5b61026a600480803590602001909190505061075c565b6040518082815260200191505060405180910390f35b341561028b57600080fd5b6102b1600480803560ff1690602001909190803561ffff16906020019091905050610795565b604051808260ff1660ff16815260200191505060405180910390f35b34156102d857600080fd5b6102e0610861565b6040518082815260200191505060405180910390f35b341561030157600080fd5b610317600480803590602001909190505061086d565b604051808260ff1660ff16815260200191505060405180910390f35b60006018603c808481151561034457fe5b0481151561034e57fe5b0481151561035857fe5b069050919050565b60008061036b6109fb565b6107b291505b8761ffff168261ffff1610156103b45761038a826106db565b1561039d576301e28500830192506103a7565b6301e13380830192505b8180600101925050610371565b601f816000600c811015156103c557fe5b602002019060ff16908160ff16815250506103df886106db565b1561040b57601d816001600c811015156103f557fe5b602002019060ff16908160ff168152505061042e565b601c816001600c8110151561041c57fe5b602002019060ff16908160ff16815250505b601f816002600c8110151561043f57fe5b602002019060ff16908160ff1681525050601e816003600c8110151561046157fe5b602002019060ff16908160ff1681525050601f816004600c8110151561048357fe5b602002019060ff16908160ff1681525050601e816005600c811015156104a557fe5b602002019060ff16908160ff1681525050601f816006600c811015156104c757fe5b602002019060ff16908160ff1681525050601f816007600c811015156104e957fe5b602002019060ff16908160ff1681525050601e816008600c8110151561050b57fe5b602002019060ff16908160ff1681525050601f816009600c8110151561052d57fe5b602002019060ff16908160ff1681525050601e81600a600c8110151561054f57fe5b602002019060ff16908160ff1681525050601f81600b600c8110151561057157fe5b602002019060ff16908160ff1681525050600191505b8660ff168261ffff1610156105c957806001830361ffff16600c811015156105ab57fe5b602002015160ff166201518002830192508180600101925050610587565b6001860360ff166201518002830192508460ff16610e1002830192508360ff16603c0283019250600083019250829250505095945050505050565b600061060f8261088e565b604001519050919050565b600080600080600092506301e133808581151561063357fe5b046107b261ffff1601915061064d6107b261ffff1661075c565b61065a8361ffff1661075c565b039050806301e285000283019250806107b2830361ffff16036301e1338002830192505b848311156106ba57610692600183036106db565b156106a5576301e28500830392506106af565b6301e13380830392505b60018203915061067e565b819350505050919050565b60006106d08261088e565b602001519050919050565b60008060048361ffff168115156106ee57fe5b0661ffff161415156107035760009050610757565b600060648361ffff1681151561071557fe5b0661ffff1614151561072a5760019050610757565b60006101908361ffff1681151561073d57fe5b0661ffff161415156107525760009050610757565b600190505b919050565b60006001820391506101908281151561077157fe5b0460648381151561077e57fe5b0460048481151561078b57fe5b0403019050919050565b600060018360ff1614806107ac575060038360ff16145b806107ba575060058360ff16145b806107c8575060078360ff16145b806107d6575060088360ff16145b806107e45750600a8360ff16145b806107f25750600c8360ff16145b1561080057601f905061085b565b60048360ff161480610815575060068360ff16145b80610823575060098360ff16145b806108315750600b8360ff16145b1561083f57601e905061085b565b610848826106db565b1561085657601d905061085b565b601c90505b92915050565b6000617e904201905090565b6000603c808381151561087c57fe5b0481151561088657fe5b069050919050565b610896610a27565b600080600080600093506108a98661061a565b856000019061ffff16908161ffff16815250506108cb6107b261ffff1661075c565b6108dc866000015161ffff1661075c565b039250826301e285000284019350826107b286600001510361ffff16036301e133800284019350600191505b600c8260ff1611151561096057610923828660000151610795565b60ff166201518002905085848201111561094e5781856020019060ff16908160ff1681525050610960565b80840193508180600101925050610908565b600191505b61097785602001518660000151610795565b60ff168260ff161115156109be578584620151800111156109a95781856040019060ff16908160ff16815250506109be565b62015180840193508180600101925050610965565b6109c786610333565b856060019060ff16908160ff16815250506109e18661086d565b856080019060ff16908160ff168152505050505050919050565b61018060405190810160405280600c905b600060ff16815260200190600190039081610a0c5790505090565b60e060405190810160405280600061ffff168152602001600060ff168152602001600060ff168152602001600060ff168152602001600060ff168152602001600060ff168152602001600060ff16815250905600a165627a7a723058203327fee2b73391a64061b5aaf9d6ef349a5a04e4d3301ee2d3be1eb7743b86ec0029",
  "source": "pragma solidity ^0.4.16;\r\n\r\n/*\r\n이 계약은 다른 계약에서 현재시각과 기한설정을 위한 계약\r\n*/\r\n\r\ncontract dateTime {\r\n        struct _DateTime {\r\n                uint16 year;\r\n                uint8 month;\r\n                uint8 day;\r\n                uint8 hour;\r\n                uint8 minute;\r\n                uint8 second;\r\n                uint8 weekday;\r\n        }\r\n\r\n        uint constant DAY_IN_SECONDS = 86400;\r\n        uint constant YEAR_IN_SECONDS = 31536000;\r\n        uint constant LEAP_YEAR_IN_SECONDS = 31622400;\r\n\r\n        uint constant HOUR_IN_SECONDS = 3600;\r\n        uint constant MINUTE_IN_SECONDS = 60;\r\n\r\n        uint16 constant ORIGIN_YEAR = 1970;\r\n\r\n        function isLeapYear(uint16 year) public pure returns (bool) {\r\n            //윤년 계산\r\n                if (year % 4 != 0) {\r\n                        return false;\r\n                }\r\n                if (year % 100 != 0) {\r\n                        return true;\r\n                }\r\n                if (year % 400 != 0) {\r\n                        return false;\r\n                }\r\n                return true;\r\n        }\r\n\r\n        function leapYearsBefore(uint year) public pure returns (uint) {\r\n            //이전 윤년\r\n                year -= 1;\r\n                return year / 4 - year / 100 + year / 400;\r\n        }\r\n\r\n        function getDaysInMonth(uint8 month, uint16 year) public pure returns (uint8) {\r\n            //해당 달에 며칠이 있는지\r\n                if (month == 1 || month == 3 || month == 5 || month == 7 || month == 8 || month == 10 || month == 12) {\r\n                        return 31;\r\n                }\r\n                else if (month == 4 || month == 6 || month == 9 || month == 11) {\r\n                        return 30;\r\n                }\r\n                else if (isLeapYear(year)) {\r\n                        return 29;\r\n                }\r\n                else {\r\n                        return 28;\r\n                }\r\n        }\r\n\r\n        function parseTimestamp(uint timestamp) internal pure returns (_DateTime dt) {\r\n            //시간 계산\r\n                uint secondsAccountedFor = 0;\r\n                uint buf;\r\n                uint8 i;\r\n\r\n                // Year\r\n                dt.year = getYear(timestamp);\r\n                buf = leapYearsBefore(dt.year) - leapYearsBefore(ORIGIN_YEAR);\r\n\r\n                secondsAccountedFor += LEAP_YEAR_IN_SECONDS * buf;\r\n                secondsAccountedFor += YEAR_IN_SECONDS * (dt.year - ORIGIN_YEAR - buf);\r\n\r\n                // Month\r\n                uint secondsInMonth;\r\n                for (i = 1; i <= 12; i++) {\r\n                        secondsInMonth = DAY_IN_SECONDS * getDaysInMonth(i, dt.year);\r\n                        if (secondsInMonth + secondsAccountedFor > timestamp) {\r\n                                dt.month = i;\r\n                                break;\r\n                        }\r\n                        secondsAccountedFor += secondsInMonth;\r\n                }\r\n\r\n                // Day\r\n                for (i = 1; i <= getDaysInMonth(dt.month, dt.year); i++) {\r\n                        if (DAY_IN_SECONDS + secondsAccountedFor > timestamp) {\r\n                                dt.day = i;\r\n                                break;\r\n                        }\r\n                        secondsAccountedFor += DAY_IN_SECONDS;\r\n                }\r\n\r\n                // Hour\r\n                dt.hour = getHour(timestamp);\r\n\r\n                // Minute\r\n                dt.minute = getMinute(timestamp);\r\n\r\n        }\r\n\r\n        function getYear(uint timestamp) public pure returns (uint16) {\r\n            //연도 계산\r\n                uint secondsAccountedFor = 0;\r\n                uint16 year;\r\n                uint numLeapYears;\r\n\r\n                // Year\r\n                year = uint16(ORIGIN_YEAR + timestamp / YEAR_IN_SECONDS);\r\n                numLeapYears = leapYearsBefore(year) - leapYearsBefore(ORIGIN_YEAR);\r\n\r\n                secondsAccountedFor += LEAP_YEAR_IN_SECONDS * numLeapYears;\r\n                secondsAccountedFor += YEAR_IN_SECONDS * (year - ORIGIN_YEAR - numLeapYears);\r\n\r\n                while (secondsAccountedFor > timestamp) {\r\n                        if (isLeapYear(uint16(year - 1))) {\r\n                                secondsAccountedFor -= LEAP_YEAR_IN_SECONDS;\r\n                        }\r\n                        else {\r\n                                secondsAccountedFor -= YEAR_IN_SECONDS;\r\n                        }\r\n                        year -= 1;\r\n                }\r\n                return year;\r\n        }\r\n\r\n        function getMonth(uint timestamp) public pure returns (uint8) {\r\n            //달 계산\r\n                return parseTimestamp(timestamp).month;\r\n        }\r\n\r\n        function getDay(uint timestamp) public pure returns (uint8) {\r\n            //일 계산\r\n                return parseTimestamp(timestamp).day;\r\n        }\r\n\r\n        function getHour(uint timestamp) public pure returns (uint8) {\r\n            //시 계산\r\n                return uint8((timestamp / 60 / 60) % 24);\r\n        }\r\n\r\n        function getMinute(uint timestamp) public pure returns (uint8) {\r\n            //분 계산\r\n                return uint8((timestamp / 60) % 60);\r\n        }\r\n\r\n        function getNow() public returns(uint){\r\n            //현재 타임스탬프\r\n            return now+3600*9;\r\n        }\r\n\r\n        function toTimestamp(uint16 year, uint8 month, uint8 day, uint8 hour, uint8 minute) public pure returns (uint timestamp) {\r\n            //연,월,일,시,분을 받아 타임스탬프로 변환\r\n                uint16 i;\r\n\r\n                // Year\r\n                for (i = ORIGIN_YEAR; i < year; i++) {\r\n                        if (isLeapYear(i)) {\r\n                                timestamp += LEAP_YEAR_IN_SECONDS;\r\n                        }\r\n                        else {\r\n                                timestamp += YEAR_IN_SECONDS;\r\n                        }\r\n                }\r\n\r\n                // Month\r\n                uint8[12] memory monthDayCounts;\r\n                monthDayCounts[0] = 31;\r\n                if (isLeapYear(year)) {\r\n                        monthDayCounts[1] = 29;\r\n                }\r\n                else {\r\n                        monthDayCounts[1] = 28;\r\n                }\r\n                monthDayCounts[2] = 31;\r\n                monthDayCounts[3] = 30;\r\n                monthDayCounts[4] = 31;\r\n                monthDayCounts[5] = 30;\r\n                monthDayCounts[6] = 31;\r\n                monthDayCounts[7] = 31;\r\n                monthDayCounts[8] = 30;\r\n                monthDayCounts[9] = 31;\r\n                monthDayCounts[10] = 30;\r\n                monthDayCounts[11] = 31;\r\n\r\n                for (i = 1; i < month; i++) {\r\n                        timestamp += DAY_IN_SECONDS * monthDayCounts[i - 1];\r\n                }\r\n\r\n                // Day\r\n                timestamp += DAY_IN_SECONDS * (day - 1);\r\n\r\n                // Hour\r\n                timestamp += HOUR_IN_SECONDS * (hour);\r\n\r\n                // Minute\r\n                timestamp += MINUTE_IN_SECONDS * (minute);\r\n\r\n                // Second\r\n                timestamp += 0;\r\n\r\n                return timestamp;\r\n        }\r\n}\r\n",
  "sourcePath": "/mnt/c/Users/USER/Documents/blockchain_election/dapp_election/contracts/dateTime.sol",
  "compiler": {
    "name": "solc",
    "version": "0.4.19+commit.c4cbbb05.Emscripten.clang"
  },
  "schemaVersion": "2.0.0",
  "updatedAt": "2018-05-22T05:39:37.391Z"
}