{
  "contractName": "DateTime",
  "abi": [
    {
      "constant": true,
      "inputs": [
        {
          "name": "year",
          "type": "uint16"
        }
      ],
      "name": "isLeapYear",
      "outputs": [
        {
          "name": "",
          "type": "bool"
        }
      ],
      "payable": false,
      "stateMutability": "pure",
      "type": "function"
    },
    {
      "constant": true,
      "inputs": [
        {
          "name": "year",
          "type": "uint256"
        }
      ],
      "name": "leapYearsBefore",
      "outputs": [
        {
          "name": "",
          "type": "uint256"
        }
      ],
      "payable": false,
      "stateMutability": "pure",
      "type": "function"
    },
    {
      "constant": true,
      "inputs": [
        {
          "name": "month",
          "type": "uint8"
        },
        {
          "name": "year",
          "type": "uint16"
        }
      ],
      "name": "getDaysInMonth",
      "outputs": [
        {
          "name": "",
          "type": "uint8"
        }
      ],
      "payable": false,
      "stateMutability": "pure",
      "type": "function"
    },
    {
      "constant": true,
      "inputs": [
        {
          "name": "timestamp",
          "type": "uint256"
        }
      ],
      "name": "getYear",
      "outputs": [
        {
          "name": "",
          "type": "uint16"
        }
      ],
      "payable": false,
      "stateMutability": "pure",
      "type": "function"
    },
    {
      "constant": true,
      "inputs": [
        {
          "name": "timestamp",
          "type": "uint256"
        }
      ],
      "name": "getMonth",
      "outputs": [
        {
          "name": "",
          "type": "uint8"
        }
      ],
      "payable": false,
      "stateMutability": "pure",
      "type": "function"
    },
    {
      "constant": true,
      "inputs": [
        {
          "name": "timestamp",
          "type": "uint256"
        }
      ],
      "name": "getDay",
      "outputs": [
        {
          "name": "",
          "type": "uint8"
        }
      ],
      "payable": false,
      "stateMutability": "pure",
      "type": "function"
    },
    {
      "constant": true,
      "inputs": [
        {
          "name": "timestamp",
          "type": "uint256"
        }
      ],
      "name": "getHour",
      "outputs": [
        {
          "name": "",
          "type": "uint8"
        }
      ],
      "payable": false,
      "stateMutability": "pure",
      "type": "function"
    },
    {
      "constant": true,
      "inputs": [
        {
          "name": "timestamp",
          "type": "uint256"
        }
      ],
      "name": "getMinute",
      "outputs": [
        {
          "name": "",
          "type": "uint8"
        }
      ],
      "payable": false,
      "stateMutability": "pure",
      "type": "function"
    },
    {
      "constant": false,
      "inputs": [],
      "name": "getNow",
      "outputs": [
        {
          "name": "",
          "type": "uint256"
        }
      ],
      "payable": false,
      "stateMutability": "nonpayable",
      "type": "function"
    },
    {
      "constant": true,
      "inputs": [
        {
          "name": "year",
          "type": "uint16"
        },
        {
          "name": "month",
          "type": "uint8"
        },
        {
          "name": "day",
          "type": "uint8"
        },
        {
          "name": "hour",
          "type": "uint8"
        },
        {
          "name": "minute",
          "type": "uint8"
        }
      ],
      "name": "toTimestamp",
      "outputs": [
        {
          "name": "timestamp",
          "type": "uint256"
        }
      ],
      "payable": false,
      "stateMutability": "pure",
      "type": "function"
    }
  ],
  "bytecode": "0x608060405234801561001057600080fd5b50610b00806100206000396000f3006080604052600436106100a4576000357c0100000000000000000000000000000000000000000000000000000000900463ffffffff1680633e239e1a146100a957806362ba9687146100f057806365c728401461016957806392d66313146101b0578063a324ad24146101f9578063a6f0e57714610240578063b199993714610289578063b238ad0e146102ca578063bbe4fd5014610322578063fa93f8831461034d575b600080fd5b3480156100b557600080fd5b506100d460048036038101908080359060200190929190505050610394565b604051808260ff1660ff16815260200191505060405180910390f35b3480156100fc57600080fd5b50610153600480360381019080803561ffff169060200190929190803560ff169060200190929190803560ff169060200190929190803560ff169060200190929190803560ff1690602001909291905050506103c1565b6040518082815260200191505060405180910390f35b34801561017557600080fd5b5061019460048036038101908080359060200190929190505050610665565b604051808260ff1660ff16815260200191505060405180910390f35b3480156101bc57600080fd5b506101db6004803603810190808035906020019092919050505061067b565b604051808261ffff1661ffff16815260200191505060405180910390f35b34801561020557600080fd5b5061022460048036038101908080359060200190929190505050610726565b604051808260ff1660ff16815260200191505060405180910390f35b34801561024c57600080fd5b5061026f600480360381019080803561ffff16906020019092919050505061073c565b604051808215151515815260200191505060405180910390f35b34801561029557600080fd5b506102b4600480360381019080803590602001909291905050506107bd565b6040518082815260200191505060405180910390f35b3480156102d657600080fd5b50610306600480360381019080803560ff169060200190929190803561ffff1690602001909291905050506107f6565b604051808260ff1660ff16815260200191505060405180910390f35b34801561032e57600080fd5b506103376108c2565b6040518082815260200191505060405180910390f35b34801561035957600080fd5b50610378600480360381019080803590602001909291905050506108ce565b604051808260ff1660ff16815260200191505060405180910390f35b60006018603c80848115156103a557fe5b048115156103af57fe5b048115156103b957fe5b069050919050565b6000806103cc610a5c565b6107b291505b8761ffff168261ffff161015610415576103eb8261073c565b156103fe576301e2850083019250610408565b6301e13380830192505b81806001019250506103d2565b601f816000600c8110151561042657fe5b602002019060ff16908160ff16815250506104408861073c565b1561046c57601d816001600c8110151561045657fe5b602002019060ff16908160ff168152505061048f565b601c816001600c8110151561047d57fe5b602002019060ff16908160ff16815250505b601f816002600c811015156104a057fe5b602002019060ff16908160ff1681525050601e816003600c811015156104c257fe5b602002019060ff16908160ff1681525050601f816004600c811015156104e457fe5b602002019060ff16908160ff1681525050601e816005600c8110151561050657fe5b602002019060ff16908160ff1681525050601f816006600c8110151561052857fe5b602002019060ff16908160ff1681525050601f816007600c8110151561054a57fe5b602002019060ff16908160ff1681525050601e816008600c8110151561056c57fe5b602002019060ff16908160ff1681525050601f816009600c8110151561058e57fe5b602002019060ff16908160ff1681525050601e81600a600c811015156105b057fe5b602002019060ff16908160ff1681525050601f81600b600c811015156105d257fe5b602002019060ff16908160ff1681525050600191505b8660ff168261ffff16101561062a57806001830361ffff16600c8110151561060c57fe5b602002015160ff1662015180028301925081806001019250506105e8565b6001860360ff166201518002830192508460ff16610e1002830192508360ff16603c0283019250600083019250829250505095945050505050565b6000610670826108ef565b604001519050919050565b600080600080600092506301e133808581151561069457fe5b046107b261ffff160191506106ae6107b261ffff166107bd565b6106bb8361ffff166107bd565b039050806301e285000283019250806107b2830361ffff16036301e1338002830192505b8483111561071b576106f36001830361073c565b15610706576301e2850083039250610710565b6301e13380830392505b6001820391506106df565b819350505050919050565b6000610731826108ef565b602001519050919050565b60008060048361ffff1681151561074f57fe5b0661ffff1614151561076457600090506107b8565b600060648361ffff1681151561077657fe5b0661ffff1614151561078b57600190506107b8565b60006101908361ffff1681151561079e57fe5b0661ffff161415156107b357600090506107b8565b600190505b919050565b6000600182039150610190828115156107d257fe5b046064838115156107df57fe5b046004848115156107ec57fe5b0403019050919050565b600060018360ff16148061080d575060038360ff16145b8061081b575060058360ff16145b80610829575060078360ff16145b80610837575060088360ff16145b806108455750600a8360ff16145b806108535750600c8360ff16145b1561086157601f90506108bc565b60048360ff161480610876575060068360ff16145b80610884575060098360ff16145b806108925750600b8360ff16145b156108a057601e90506108bc565b6108a98261073c565b156108b757601d90506108bc565b601c90505b92915050565b6000617e904201905090565b6000603c80838115156108dd57fe5b048115156108e757fe5b069050919050565b6108f7610a80565b6000806000806000935061090a8661067b565b856000019061ffff16908161ffff168152505061092c6107b261ffff166107bd565b61093d866000015161ffff166107bd565b039250826301e285000284019350826107b286600001510361ffff16036301e133800284019350600191505b600c8260ff161115156109c1576109848286600001516107f6565b60ff16620151800290508584820111156109af5781856020019060ff16908160ff16815250506109c1565b80840193508180600101925050610969565b600191505b6109d8856020015186600001516107f6565b60ff168260ff16111515610a1f57858462015180011115610a0a5781856040019060ff16908160ff1681525050610a1f565b620151808401935081806001019250506109c6565b610a2886610394565b856060019060ff16908160ff1681525050610a42866108ce565b856080019060ff16908160ff168152505050505050919050565b61018060405190810160405280600c90602082028038833980820191505090505090565b60e060405190810160405280600061ffff168152602001600060ff168152602001600060ff168152602001600060ff168152602001600060ff168152602001600060ff168152602001600060ff16815250905600a165627a7a7230582023f7ea06906790a66e0c83fe42c5a573e6fd2e98a8552a3a6f6db67ae17dc6590029",
  "source": "pragma solidity ^0.4.16;\n\n/*\n이 계약은 다른 계약에서 현재시각과 기한설정을 위한 계약\n*/\n\ncontract DateTime {\n        struct _DateTime {\n                uint16 year;\n                uint8 month;\n                uint8 day;\n                uint8 hour;\n                uint8 minute;\n                uint8 second;\n                uint8 weekday;\n        }\n\n        uint constant DAY_IN_SECONDS = 86400;\n        uint constant YEAR_IN_SECONDS = 31536000;\n        uint constant LEAP_YEAR_IN_SECONDS = 31622400;\n\n        uint constant HOUR_IN_SECONDS = 3600;\n        uint constant MINUTE_IN_SECONDS = 60;\n\n        uint16 constant ORIGIN_YEAR = 1970;\n\n        function isLeapYear(uint16 year) public pure returns (bool) {\n            //윤년 계산\n                if (year % 4 != 0) {\n                        return false;\n                }\n                if (year % 100 != 0) {\n                        return true;\n                }\n                if (year % 400 != 0) {\n                        return false;\n                }\n                return true;\n        }\n\n        function leapYearsBefore(uint year) public pure returns (uint) {\n            //이전 윤년\n                year -= 1;\n                return year / 4 - year / 100 + year / 400;\n        }\n\n        function getDaysInMonth(uint8 month, uint16 year) public pure returns (uint8) {\n            //해당 달에 며칠이 있는지\n                if (month == 1 || month == 3 || month == 5 || month == 7 || month == 8 || month == 10 || month == 12) {\n                        return 31;\n                }\n                else if (month == 4 || month == 6 || month == 9 || month == 11) {\n                        return 30;\n                }\n                else if (isLeapYear(year)) {\n                        return 29;\n                }\n                else {\n                        return 28;\n                }\n        }\n\n        function parseTimestamp(uint timestamp) internal pure returns (_DateTime dt) {\n            //시간 계산\n                uint secondsAccountedFor = 0;\n                uint buf;\n                uint8 i;\n\n                // Year\n                dt.year = getYear(timestamp);\n                buf = leapYearsBefore(dt.year) - leapYearsBefore(ORIGIN_YEAR);\n\n                secondsAccountedFor += LEAP_YEAR_IN_SECONDS * buf;\n                secondsAccountedFor += YEAR_IN_SECONDS * (dt.year - ORIGIN_YEAR - buf);\n\n                // Month\n                uint secondsInMonth;\n                for (i = 1; i <= 12; i++) {\n                        secondsInMonth = DAY_IN_SECONDS * getDaysInMonth(i, dt.year);\n                        if (secondsInMonth + secondsAccountedFor > timestamp) {\n                                dt.month = i;\n                                break;\n                        }\n                        secondsAccountedFor += secondsInMonth;\n                }\n\n                // Day\n                for (i = 1; i <= getDaysInMonth(dt.month, dt.year); i++) {\n                        if (DAY_IN_SECONDS + secondsAccountedFor > timestamp) {\n                                dt.day = i;\n                                break;\n                        }\n                        secondsAccountedFor += DAY_IN_SECONDS;\n                }\n\n                // Hour\n                dt.hour = getHour(timestamp);\n\n                // Minute\n                dt.minute = getMinute(timestamp);\n\n        }\n\n        function getYear(uint timestamp) public pure returns (uint16) {\n            //연도 계산\n                uint secondsAccountedFor = 0;\n                uint16 year;\n                uint numLeapYears;\n\n                // Year\n                year = uint16(ORIGIN_YEAR + timestamp / YEAR_IN_SECONDS);\n                numLeapYears = leapYearsBefore(year) - leapYearsBefore(ORIGIN_YEAR);\n\n                secondsAccountedFor += LEAP_YEAR_IN_SECONDS * numLeapYears;\n                secondsAccountedFor += YEAR_IN_SECONDS * (year - ORIGIN_YEAR - numLeapYears);\n\n                while (secondsAccountedFor > timestamp) {\n                        if (isLeapYear(uint16(year - 1))) {\n                                secondsAccountedFor -= LEAP_YEAR_IN_SECONDS;\n                        }\n                        else {\n                                secondsAccountedFor -= YEAR_IN_SECONDS;\n                        }\n                        year -= 1;\n                }\n                return year;\n        }\n\n        function getMonth(uint timestamp) public pure returns (uint8) {\n            //달 계산\n                return parseTimestamp(timestamp).month;\n        }\n\n        function getDay(uint timestamp) public pure returns (uint8) {\n            //일 계산\n                return parseTimestamp(timestamp).day;\n        }\n\n        function getHour(uint timestamp) public pure returns (uint8) {\n            //시 계산\n                return uint8((timestamp / 60 / 60) % 24);\n        }\n\n        function getMinute(uint timestamp) public pure returns (uint8) {\n            //분 계산\n                return uint8((timestamp / 60) % 60);\n        }\n\n        function getNow() public returns(uint){\n            //현재 타임스탬프\n            return now+3600*9;\n        }\n\n        function toTimestamp(uint16 year, uint8 month, uint8 day, uint8 hour, uint8 minute) public pure returns (uint timestamp) {\n            //연,월,일,시,분을 받아 타임스탬프로 변환\n                uint16 i;\n\n                // Year\n                for (i = ORIGIN_YEAR; i < year; i++) {\n                        if (isLeapYear(i)) {\n                                timestamp += LEAP_YEAR_IN_SECONDS;\n                        }\n                        else {\n                                timestamp += YEAR_IN_SECONDS;\n                        }\n                }\n\n                // Month\n                uint8[12] memory monthDayCounts;\n                monthDayCounts[0] = 31;\n                if (isLeapYear(year)) {\n                        monthDayCounts[1] = 29;\n                }\n                else {\n                        monthDayCounts[1] = 28;\n                }\n                monthDayCounts[2] = 31;\n                monthDayCounts[3] = 30;\n                monthDayCounts[4] = 31;\n                monthDayCounts[5] = 30;\n                monthDayCounts[6] = 31;\n                monthDayCounts[7] = 31;\n                monthDayCounts[8] = 30;\n                monthDayCounts[9] = 31;\n                monthDayCounts[10] = 30;\n                monthDayCounts[11] = 31;\n\n                for (i = 1; i < month; i++) {\n                        timestamp += DAY_IN_SECONDS * monthDayCounts[i - 1];\n                }\n\n                // Day\n                timestamp += DAY_IN_SECONDS * (day - 1);\n\n                // Hour\n                timestamp += HOUR_IN_SECONDS * (hour);\n\n                // Minute\n                timestamp += MINUTE_IN_SECONDS * (minute);\n\n                // Second\n                timestamp += 0;\n\n                return timestamp;\n        }\n}\n",
  "sourcePath": "/Users/lucas/dev/js/blockchain_election/dapp_election/contracts/dateTime.sol",
  "compiler": {
    "name": "solc",
    "version": "0.4.23+commit.124ca40d.Emscripten.clang"
  },
  "schemaVersion": "2.0.0",
  "updatedAt": "2018-05-15T08:57:37.680Z"
}