{
  "contractName": "hashDB",
  "abi": [
    {
      "inputs": [],
      "payable": false,
      "stateMutability": "nonpayable",
      "type": "constructor"
    },
    {
      "constant": false,
      "inputs": [
        {
          "name": "_year",
          "type": "uint16"
        },
        {
          "name": "_month",
          "type": "uint8"
        },
        {
          "name": "_day",
          "type": "uint8"
        },
        {
          "name": "_hour",
          "type": "uint8"
        },
        {
          "name": "_minute",
          "type": "uint8"
        }
      ],
      "name": "setStartTime",
      "outputs": [
        {
          "name": "",
          "type": "bool"
        }
      ],
      "payable": false,
      "stateMutability": "nonpayable",
      "type": "function"
    },
    {
      "constant": false,
      "inputs": [
        {
          "name": "_hashDB",
          "type": "string"
        }
      ],
      "name": "setHashDB",
      "outputs": [],
      "payable": false,
      "stateMutability": "nonpayable",
      "type": "function"
    },
    {
      "constant": false,
      "inputs": [
        {
          "name": "_hashDB",
          "type": "string"
        }
      ],
      "name": "returnHashDB",
      "outputs": [
        {
          "name": "",
          "type": "uint256"
        }
      ],
      "payable": false,
      "stateMutability": "nonpayable",
      "type": "function"
    },
    {
      "constant": false,
      "inputs": [
        {
          "name": "_hashDB",
          "type": "string"
        }
      ],
      "name": "controlHashDB",
      "outputs": [
        {
          "name": "",
          "type": "bool"
        }
      ],
      "payable": false,
      "stateMutability": "nonpayable",
      "type": "function"
    }
  ],
  "bytecode": "0x608060405234801561001057600080fd5b5033600360006101000a81548173ffffffffffffffffffffffffffffffffffffffff021916908373ffffffffffffffffffffffffffffffffffffffff1602179055506000600281905550610919806100696000396000f300608060405260043610610062576000357c0100000000000000000000000000000000000000000000000000000000900463ffffffff1680632681344f14610067578063699b47c3146100d0578063afdbd55c14610151578063dae53e43146101ce575b600080fd5b34801561007357600080fd5b506100ce600480360381019080803590602001908201803590602001908080601f016020809104026020016040519081016040528093929190818152602001838380828437820191505050505050919291929050505061024b565b005b3480156100dc57600080fd5b50610137600480360381019080803590602001908201803590602001908080601f0160208091040260200160405190810160405280939291908181526020018383808284378201915050505050509192919290505050610416565b604051808215151515815260200191505060405180910390f35b34801561015d57600080fd5b506101b4600480360381019080803561ffff169060200190929190803560ff169060200190929190803560ff169060200190929190803560ff169060200190929190803560ff1690602001909291905050506105ec565b604051808215151515815260200191505060405180910390f35b3480156101da57600080fd5b50610235600480360381019080803590602001908201803590602001908080601f01602080910402602001604051908101604052809392919081815260200183838082843782019150505050505091929192905050506106f2565b6040518082815260200191505060405180910390f35b600360009054906101000a900473ffffffffffffffffffffffffffffffffffffffff1673ffffffffffffffffffffffffffffffffffffffff163373ffffffffffffffffffffffffffffffffffffffff161415156102a757600080fd5b806000826040518082805190602001908083835b6020831015156102e057805182526020820191506020810190506020830392506102bb565b6001836020036101000a03801982511681845116808217855250505050505090500191505090815260200160405180910390206000019080519060200190610329929190610848565b5060016000826040518082805190602001908083835b602083101515610364578051825260208201915060208101905060208303925061033f565b6001836020036101000a0380198251168184511680821785525050505050509050019150509081526020016040518091039020600101819055506002546000826040518082805190602001908083835b6020831015156103d957805182526020820191506020810190506020830392506103b4565b6001836020036101000a03801982511681845116808217855250505050505090500191505090815260200160405180910390206002018190555050565b6000600360009054906101000a900473ffffffffffffffffffffffffffffffffffffffff1673ffffffffffffffffffffffffffffffffffffffff163373ffffffffffffffffffffffffffffffffffffffff1614151561047457600080fd5b60016000836040518082805190602001908083835b6020831015156104ae5780518252602082019150602081019050602083039250610489565b6001836020036101000a03801982511681845116808217855250505050505090500191505090815260200160405180910390206001015414801561056157506002546000836040518082805190602001908083835b6020831015156105285780518252602082019150602081019050602083039250610503565b6001836020036101000a038019825116818451168082178552505050505050905001915050908152602001604051809103902060020154145b156105e257600080836040518082805190602001908083835b60208310151561059f578051825260208201915060208101905060208303925061057a565b6001836020036101000a038019825116818451168082178552505050505050905001915050908152602001604051809103902060010181905550600190506105e7565b600090505b919050565b6000600360009054906101000a900473ffffffffffffffffffffffffffffffffffffffff1673ffffffffffffffffffffffffffffffffffffffff163373ffffffffffffffffffffffffffffffffffffffff1614151561064a57600080fd5b85600160006101000a81548161ffff021916908361ffff16021790555084600160026101000a81548160ff021916908360ff16021790555083600160036101000a81548160ff021916908360ff16021790555082600160046101000a81548160ff021916908360ff16021790555081600160056101000a81548160ff021916908360ff1602179055506002600081548092919060010191905055506001905095945050505050565b6000600360009054906101000a900473ffffffffffffffffffffffffffffffffffffffff1673ffffffffffffffffffffffffffffffffffffffff163373ffffffffffffffffffffffffffffffffffffffff1614151561075057600080fd5b6002546000836040518082805190602001908083835b60208310151561078b5780518252602082019150602081019050602083039250610766565b6001836020036101000a038019825116818451168082178552505050505050905001915050908152602001604051809103902060020154141561083e576000826040518082805190602001908083835b60208310151561080057805182526020820191506020810190506020830392506107db565b6001836020036101000a0380198251168184511680821785525050505050509050019150509081526020016040518091039020600101549050610843565b606390505b919050565b828054600181600116156101000203166002900490600052602060002090601f016020900481019282601f1061088957805160ff19168380011785556108b7565b828001600101855582156108b7579182015b828111156108b657825182559160200191906001019061089b565b5b5090506108c491906108c8565b5090565b6108ea91905b808211156108e65760008160009055506001016108ce565b5090565b905600a165627a7a72305820ab7bf3a4b4fde7a3a04980137a6709b9800c505393d5bce30d618ff6b7f2819b0029",
  "source": "pragma solidity ^0.4.7;\n\ncontract  hashDB\n{\n    mapping(string => voter) voters;\n    uint16 year;\n    uint8 month;\n    uint8 day;\n    uint8 hour;\n    uint8 minute;\n    uint electionID;\n    address owner;\n    \n    struct voter\n    {\n        string hashDB;\n        uint vote;\n        uint vElectionID;\n    }\n    \n    //Modifiers\n    modifier ownerShip{\n        require(msg.sender == owner);\n        _;\n    }\n\n    function hashDB() {\n        owner = msg.sender;\n        electionID = 0;\n    }\n    \n\n    function setStartTime(uint16 _year, uint8 _month, uint8 _day, uint8 _hour,\n        uint8 _minute) public ownerShip returns(bool)\n    {\n         year=_year;\n         month=_month;\n         day=_day;\n         hour=_hour;\n         minute=_minute;\n         electionID++;\n         return true;\n    }\n    \n    function setHashDB(string _hashDB) public ownerShip{\n        voters[_hashDB].hashDB = _hashDB;\n        voters[_hashDB].vote = 1;\n        voters[_hashDB].vElectionID = electionID;\n    }\n    \n    function returnHashDB(string _hashDB) public ownerShip returns(uint){\n        if(voters[_hashDB].vElectionID == electionID){\n            return voters[_hashDB].vote;\n        }\n        else return 99;\n    }\n    \n    function controlHashDB(string _hashDB) public ownerShip returns(bool){\n        if(voters[_hashDB].vote == 1 && voters[_hashDB].vElectionID==electionID){\n            voters[_hashDB].vote = 0;\n            return true;\n        }\n        else{\n            return false;\n        }\n    }\n\n}\n",
  "sourcePath": "/Users/lucas/dev/js/blockchain_election/dapp_election/contracts/hashDB.sol",
  "compiler": {
    "name": "solc",
    "version": "0.4.23+commit.124ca40d.Emscripten.clang"
  },
  "schemaVersion": "2.0.0",
  "updatedAt": "2018-05-31T01:21:21.790Z"
}