{
  "contractName": "presidentElection",
  "abi": [
    {
      "constant": true,
      "inputs": [],
      "name": "tieIndex",
      "outputs": [
        {
          "name": "",
          "type": "uint256"
        }
      ],
      "payable": false,
      "stateMutability": "view",
      "type": "function"
    },
    {
      "constant": true,
      "inputs": [],
      "name": "voteManager",
      "outputs": [
        {
          "name": "",
          "type": "address"
        }
      ],
      "payable": false,
      "stateMutability": "view",
      "type": "function"
    },
    {
      "constant": true,
      "inputs": [],
      "name": "numCandidates",
      "outputs": [
        {
          "name": "",
          "type": "uint256"
        }
      ],
      "payable": false,
      "stateMutability": "view",
      "type": "function"
    },
    {
      "constant": true,
      "inputs": [],
      "name": "totalVoteCount",
      "outputs": [
        {
          "name": "",
          "type": "uint256"
        }
      ],
      "payable": false,
      "stateMutability": "view",
      "type": "function"
    },
    {
      "constant": true,
      "inputs": [],
      "name": "owner",
      "outputs": [
        {
          "name": "",
          "type": "address"
        }
      ],
      "payable": false,
      "stateMutability": "view",
      "type": "function"
    },
    {
      "constant": true,
      "inputs": [],
      "name": "winnerIndex",
      "outputs": [
        {
          "name": "",
          "type": "uint256"
        }
      ],
      "payable": false,
      "stateMutability": "view",
      "type": "function"
    },
    {
      "constant": true,
      "inputs": [],
      "name": "votePhaseEndTime",
      "outputs": [
        {
          "name": "",
          "type": "uint256"
        }
      ],
      "payable": false,
      "stateMutability": "view",
      "type": "function"
    },
    {
      "constant": true,
      "inputs": [],
      "name": "maxVoteCount",
      "outputs": [
        {
          "name": "",
          "type": "uint256"
        }
      ],
      "payable": false,
      "stateMutability": "view",
      "type": "function"
    },
    {
      "constant": true,
      "inputs": [],
      "name": "electionID",
      "outputs": [
        {
          "name": "",
          "type": "uint256"
        }
      ],
      "payable": false,
      "stateMutability": "view",
      "type": "function"
    },
    {
      "inputs": [],
      "payable": false,
      "stateMutability": "nonpayable",
      "type": "constructor"
    },
    {
      "anonymous": false,
      "inputs": [
        {
          "indexed": false,
          "name": "",
          "type": "string"
        }
      ],
      "name": "logString",
      "type": "event"
    },
    {
      "anonymous": false,
      "inputs": [
        {
          "indexed": false,
          "name": "",
          "type": "uint256"
        }
      ],
      "name": "logInt",
      "type": "event"
    },
    {
      "anonymous": false,
      "inputs": [
        {
          "indexed": false,
          "name": "",
          "type": "string"
        },
        {
          "indexed": false,
          "name": "",
          "type": "string"
        }
      ],
      "name": "voteWinner",
      "type": "event"
    },
    {
      "constant": false,
      "inputs": [
        {
          "name": "_maxVoteCount",
          "type": "uint256"
        },
        {
          "name": "_votePhaseLengthInSeconds",
          "type": "uint256"
        }
      ],
      "name": "startVote",
      "outputs": [],
      "payable": false,
      "stateMutability": "nonpayable",
      "type": "function"
    },
    {
      "constant": false,
      "inputs": [
        {
          "name": "_name",
          "type": "string"
        }
      ],
      "name": "addCandidate",
      "outputs": [],
      "payable": false,
      "stateMutability": "nonpayable",
      "type": "function"
    },
    {
      "constant": false,
      "inputs": [
        {
          "name": "_voter",
          "type": "string"
        }
      ],
      "name": "register",
      "outputs": [],
      "payable": false,
      "stateMutability": "nonpayable",
      "type": "function"
    },
    {
      "constant": false,
      "inputs": [
        {
          "name": "_vote",
          "type": "uint256"
        }
      ],
      "name": "castVote",
      "outputs": [],
      "payable": false,
      "stateMutability": "nonpayable",
      "type": "function"
    },
    {
      "constant": false,
      "inputs": [],
      "name": "countVotes",
      "outputs": [],
      "payable": false,
      "stateMutability": "nonpayable",
      "type": "function"
    },
    {
      "constant": true,
      "inputs": [],
      "name": "getWinner",
      "outputs": [
        {
          "name": "",
          "type": "string"
        }
      ],
      "payable": false,
      "stateMutability": "view",
      "type": "function"
    },
    {
      "constant": true,
      "inputs": [],
      "name": "getTieWinner",
      "outputs": [
        {
          "name": "",
          "type": "string"
        },
        {
          "name": "",
          "type": "string"
        }
      ],
      "payable": false,
      "stateMutability": "view",
      "type": "function"
    },
    {
      "constant": true,
      "inputs": [
        {
          "name": "_index",
          "type": "uint256"
        }
      ],
      "name": "intToCandidate",
      "outputs": [
        {
          "name": "",
          "type": "string"
        }
      ],
      "payable": false,
      "stateMutability": "view",
      "type": "function"
    },
    {
      "constant": true,
      "inputs": [
        {
          "name": "_name",
          "type": "string"
        }
      ],
      "name": "candidateToInt",
      "outputs": [
        {
          "name": "",
          "type": "uint256"
        }
      ],
      "payable": false,
      "stateMutability": "view",
      "type": "function"
    },
    {
      "constant": false,
      "inputs": [
        {
          "name": "_name",
          "type": "string"
        }
      ],
      "name": "test",
      "outputs": [
        {
          "name": "",
          "type": "string"
        }
      ],
      "payable": false,
      "stateMutability": "nonpayable",
      "type": "function"
    }
  ],
  "bytecode": "0x6060604052601e600a55341561001457600080fd5b33600b60006101000a81548173ffffffffffffffffffffffffffffffffffffffff021916908373ffffffffffffffffffffffffffffffffffffffff16021790555073ca35b7d915458ef540ade6068dfe2f44e8fa733c600c60006101000a81548173ffffffffffffffffffffffffffffffffffffffff021916908373ffffffffffffffffffffffffffffffffffffffff1602179055506111a5806100b96000396000f300606060405260043610610107576000357c0100000000000000000000000000000000000000000000000000000000900463ffffffff1680631d9f43431461010c57806328d9e6fa146101385780633eb76b9c1461016157806342c1e58714610184578063462e91ec146101d95780635216509a146102365780635fce2e161461025f578063893d8f4c146102fb5780638da5cb5b146103245780638e7ea5b2146103795780638f00cbfa146104075780639877ea47146104305780639f62568d14610459578063b647990a14610482578063db70930214610497578063e254fb5c14610508578063f2c298be14610602578063f8e78e9a1461065f578063f9fbd55414610688575b600080fd5b341561011757600080fd5b610136600480803590602001909190803590602001909190505061075e565b005b341561014357600080fd5b61014b610821565b6040518082815260200191505060405180910390f35b341561016c57600080fd5b6101826004808035906020019091905050610827565b005b341561018f57600080fd5b610197610972565b604051808273ffffffffffffffffffffffffffffffffffffffff1673ffffffffffffffffffffffffffffffffffffffff16815260200191505060405180910390f35b34156101e457600080fd5b610234600480803590602001908201803590602001908080601f01602080910402602001604051908101604052809392919081815260200183838082843782019150505050505091905050610998565b005b341561024157600080fd5b6102496109e8565b6040518082815260200191505060405180910390f35b341561026a57600080fd5b61028060048080359060200190919050506109ee565b6040518080602001828103825283818151815260200191508051906020019080838360005b838110156102c05780820151818401526020810190506102a5565b50505050905090810190601f1680156102ed5780820380516001836020036101000a031916815260200191505b509250505060405180910390f35b341561030657600080fd5b61030e610aa9565b6040518082815260200191505060405180910390f35b341561032f57600080fd5b610337610aaf565b604051808273ffffffffffffffffffffffffffffffffffffffff1673ffffffffffffffffffffffffffffffffffffffff16815260200191505060405180910390f35b341561038457600080fd5b61038c610ad5565b6040518080602001828103825283818151815260200191508051906020019080838360005b838110156103cc5780820151818401526020810190506103b1565b50505050905090810190601f1680156103f95780820380516001836020036101000a031916815260200191505b509250505060405180910390f35b341561041257600080fd5b61041a610beb565b6040518082815260200191505060405180910390f35b341561043b57600080fd5b610443610bf1565b6040518082815260200191505060405180910390f35b341561046457600080fd5b61046c610bf7565b6040518082815260200191505060405180910390f35b341561048d57600080fd5b610495610bfd565b005b34156104a257600080fd5b6104f2600480803590602001908201803590602001908080601f01602080910402602001604051908101604052809392919081815260200183838082843782019150505050505091905050610c9b565b6040518082815260200191505060405180910390f35b341561051357600080fd5b61051b610dc0565b604051808060200180602001838103835285818151815260200191508051906020019080838360005b8381101561055f578082015181840152602081019050610544565b50505050905090810190601f16801561058c5780820380516001836020036101000a031916815260200191505b50838103825284818151815260200191508051906020019080838360005b838110156105c55780820151818401526020810190506105aa565b50505050905090810190601f1680156105f25780820380516001836020036101000a031916815260200191505b5094505050505060405180910390f35b341561060d57600080fd5b61065d600480803590602001908201803590602001908080601f01602080910402602001604051908101604052809392919081815260200183838082843782019150505050505091905050610f5d565b005b341561066a57600080fd5b610672610fe7565b6040518082815260200191505060405180910390f35b341561069357600080fd5b6106e3600480803590602001908201803590602001908080601f01602080910402602001604051908101604052809392919081815260200183838082843782019150505050505091905050610fed565b6040518080602001828103825283818151815260200191508051906020019080838360005b83811015610723578082015181840152602081019050610708565b50505050905090810190601f1680156107505780820380516001836020036101000a031916815260200191505b509250505060405180910390f35b6004544211151561076e57600080fd5b600b60009054906101000a900473ffffffffffffffffffffffffffffffffffffffff1673ffffffffffffffffffffffffffffffffffffffff163373ffffffffffffffffffffffffffffffffffffffff161415156107ca57600080fd5b600a5481101515156107db57600080fd5b8042016004819055506107ec610ffd565b816009819055506002600381905550600060058190555060006006819055506007600081548092919060010191905055505050565b60065481565b6008546009541015151561083a57600080fd5b60085460095411151561084c57600080fd5b60045442111561085b5761096f565b600354811115156109055760016000808381526020019081526020016000206000828254019250508190555060016008600082825401925050819055507f0bb563d6789cea5d754d1b7f85bfebdfe7a1a86e2e0ffccfb8a6bbdb07826ae260405180806020018281038252600d8152602001807f566f746520636f756e7465642e0000000000000000000000000000000000000081525060200191505060405180910390a161096e565b7f0bb563d6789cea5d754d1b7f85bfebdfe7a1a86e2e0ffccfb8a6bbdb07826ae26040518080602001828103825260178152602001807f566f746520636f756c64206e6f7420626520726561642100000000000000000081525060200191505060405180910390a15b5b50565b600c60009054906101000a900473ffffffffffffffffffffffffffffffffffffffff1681565b6014600354111515156109aa57600080fd5b60016003600082825401925050819055508060016000600354815260200190815260200160002090805190602001906109e49291906110c0565b5050565b60035481565b6109f6611140565b600160008381526020019081526020016000208054600181600116156101000203166002900480601f016020809104026020016040519081016040528092919081815260200182805460018160011615610100020316600290048015610a9d5780601f10610a7257610100808354040283529160200191610a9d565b820191906000526020600020905b815481529060010190602001808311610a8057829003601f168201915b50505050509050919050565b60085481565b600b60009054906101000a900473ffffffffffffffffffffffffffffffffffffffff1681565b610add611140565b60045442111515610aed57600080fd5b610af561103f565b15610b37576040805190810160405280600381526020017f74696500000000000000000000000000000000000000000000000000000000008152509050610be8565b6001600060055481526020019081526020016000208054600181600116156101000203166002900480601f016020809104026020016040519081016040528092919081815260200182805460018160011615610100020316600290048015610be05780601f10610bb557610100808354040283529160200191610be0565b820191906000526020600020905b815481529060010190602001808311610bc357829003601f168201915b505050505090505b90565b60055481565b60045481565b60095481565b600060045442111515610c0f57600080fd5b600190505b60035481111515610c9857600080600554815260200190815260200160002054600080838152602001908152602001600020541415610c5557806006819055505b600080600554815260200190815260200160002054600080838152602001908152602001600020541115610c8b57806005819055505b8080600101915050610c14565b50565b6000806000836040518082805190602001908083835b602083101515610cd65780518252602082019150602081019050602083039250610cb1565b6001836020036101000a03801982511681845116808217855250505050505090500191505060405180910390209150600190505b60035481111515610db457600160008281526020019081526020016000206040518082805460018160011615610100020316600290048015610d835780601f10610d61576101008083540402835291820191610d83565b820191906000526020600020905b815481529060010190602001808311610d6f575b505091505060405180910390206000191682600019161415610da757809250610db9565b8080600101915050610d0a565b600092505b5050919050565b610dc8611140565b610dd0611140565b60045442111515610de057600080fd5b610de861103f565b1515610df357600080fd5b600160006005548152602001908152602001600020600160006006548152602001908152602001600020818054600181600116156101000203166002900480601f016020809104026020016040519081016040528092919081815260200182805460018160011615610100020316600290048015610eb25780601f10610e8757610100808354040283529160200191610eb2565b820191906000526020600020905b815481529060010190602001808311610e9557829003601f168201915b50505050509150808054600181600116156101000203166002900480601f016020809104026020016040519081016040528092919081815260200182805460018160011615610100020316600290048015610f4e5780601f10610f2357610100808354040283529160200191610f4e565b820191906000526020600020905b815481529060010190602001808311610f3157829003601f168201915b50505050509050915091509091565b60016002826040518082805190602001908083835b602083101515610f975780518252602082019150602081019050602083039250610f72565b6001836020036101000a038019825116818451168082178552505050505050905001915050908152602001604051809103902060010160006101000a81548160ff02191690831515021790555050565b60075481565b610ff5611140565b819050919050565b6000600190505b60035481111515611034576000806000838152602001908152602001600020819055508080600101915050611004565b600060088190555050565b60006004544211151561105157600080fd5b60008060065481526020019081526020016000205460008060055481526020019081526020016000205414801561108c575060065460055414155b801561109b5750600060055414155b80156110aa5750600060065414155b156110b857600190506110bd565b600090505b90565b828054600181600116156101000203166002900490600052602060002090601f016020900481019282601f1061110157805160ff191683800117855561112f565b8280016001018555821561112f579182015b8281111561112e578251825591602001919060010190611113565b5b50905061113c9190611154565b5090565b602060405190810160405280600081525090565b61117691905b8082111561117257600081600090555060010161115a565b5090565b905600a165627a7a7230582009b0431fd33dfef4ba72596381eee593a716b86532b6345e21ba0c2f84579f3f0029",
  "source": "pragma solidity ^0.4.7;\n\ncontract presidentElection\n{\n    mapping(uint => uint) voteCount; \n    mapping(uint => string) candidate; \n    mapping(string => voter) voters;\n    uint public numCandidates;\n    uint public votePhaseEndTime;\n    uint public winnerIndex;\n    uint public tieIndex;\n    uint public electionID;\n    uint public totalVoteCount;\n    uint public maxVoteCount;\n    uint MIN_VOTE_TIME = 30;\n    address public owner;\n    address public voteManager;\n\n    struct voter\n    {\n        uint electionID;\n        bool isRegistered;\n    }\n    \n    //Modifiers\n    modifier voteUnFinished{\n        require(maxVoteCount >= totalVoteCount);\n        _;\n    }\n    modifier voteFinished {\n        require(now > votePhaseEndTime);\n        _;\n    }\n    modifier ownerShip{\n        require(msg.sender == owner);\n        _;\n    }\n    modifier voterShip{\n        require(msg.sender == voteManager);\n        _;\n    }\n\n    event logString(string);\n    event logInt(uint);\n    event voteWinner(string, string);\n\n    function presidentElection() {\n        owner = msg.sender;\n        voteManager = 0xca35b7d915458ef540ade6068dfe2f44e8fa733c;\n    }\n    \n\n    function startVote(uint _maxVoteCount, uint _votePhaseLengthInSeconds\n                                  ) public voteFinished ownerShip\n    {\n        require(_votePhaseLengthInSeconds >= MIN_VOTE_TIME);\n        votePhaseEndTime = now + _votePhaseLengthInSeconds;\n        resetVoteCount();\n        maxVoteCount = _maxVoteCount;\n        numCandidates = 2;\n        winnerIndex = 0;\n        tieIndex = 0;\n        electionID++;\n    }\n\n    function resetVoteCount() private\n    {\n        for (uint i=1; i<=numCandidates; i++)\n        {\n            voteCount[i] = 0;\n        }\n        totalVoteCount =0;\n    }\n\n    function addCandidate(string _name) public\n    {\n        require(numCandidates <= 20);\n        numCandidates += 1;\n        candidate[numCandidates] = _name;\n    }\n\n    function register(string _voter) public\n    {\n        voters[_voter].isRegistered = true;\n    }\n\n    function castVote(uint _vote) public voteUnFinished\n    {\n        require(maxVoteCount > totalVoteCount);\n        if (now > votePhaseEndTime) return;\n\n        // record the vote\n        if (_vote <= numCandidates) \n        {\n            voteCount[_vote] += 1;\n            totalVoteCount += 1;\n            logString(\"Vote counted.\");\n        }  \n        else \n        {\n            logString(\"Vote could not be read!\");\n        }\n    }\n\n    function countVotes() voteFinished public\n    {\n        for (uint i=1; i<= numCandidates; i++)\n        {\n            if (voteCount[i] == voteCount[winnerIndex]) tieIndex = i;\n            if (voteCount[i] > voteCount[winnerIndex]) winnerIndex = i;\n        }\n    }\n\n    function isTie() constant private voteFinished returns(bool)\n    {\n        if (voteCount[winnerIndex] == voteCount[tieIndex] \n            && winnerIndex != tieIndex\n            && winnerIndex != 0\n            && tieIndex != 0) return true;\n        return false;\n    }\n\n    function getWinner() voteFinished constant public returns(string) \n    {\n        if (isTie()) return \"tie\";\n        return candidate[winnerIndex];\n    }\n\n    function getTieWinner() voteFinished constant public returns(string, string)\n    {\n        require(isTie());\n        return (candidate[winnerIndex], candidate[tieIndex]);\n    }\n\n    function intToCandidate(uint _index) constant public returns(string) \n    {\n        return candidate[_index];\n    }\n\n    function candidateToInt(string _name) constant public returns(uint)\n    {\n        bytes32 nameHash = sha3(_name);\n        for (uint i=1; i<=numCandidates; i++)\n        {\n            if (nameHash == sha3(candidate[i]))\n                return i;\n        }\n        return 0;\n    }\n\n    function getHasVoted(string _voter) constant private returns(bool) \n    {\n        return voters[_voter].electionID == electionID;\n    }\n\n    function getRegistrationStatus(string _voter) constant private returns(bool)\n    {\n        return voters[_voter].isRegistered;\n    }\n\n    function test(string _name) public returns(string)\n    {\n        return _name;\n    }\n\n}\n",
  "sourcePath": "/Users/lucas/dev/js/blockchain_election/dapp_election/contracts/presidentElection.sol",
  "compiler": {
    "name": "solc",
    "version": "0.4.21+commit.dfe3193c.Emscripten.clang"
  },
  "schemaVersion": "2.0.0",
  "updatedAt": "2018-04-21T06:58:22.123Z"
}