{
  "contractName": "presidentElection",
  "abi": [
    {
      "constant": true,
      "inputs": [],
      "name": "tieIndex",
      "outputs": [
        {
          "name": "",
          "type": "uint256"
        }
      ],
      "payable": false,
      "stateMutability": "view",
      "type": "function"
    },
    {
      "constant": true,
      "inputs": [],
      "name": "voteManager",
      "outputs": [
        {
          "name": "",
          "type": "address"
        }
      ],
      "payable": false,
      "stateMutability": "view",
      "type": "function"
    },
    {
      "constant": true,
      "inputs": [],
      "name": "numCandidates",
      "outputs": [
        {
          "name": "",
          "type": "uint256"
        }
      ],
      "payable": false,
      "stateMutability": "view",
      "type": "function"
    },
    {
      "constant": true,
      "inputs": [],
      "name": "totalVoteCount",
      "outputs": [
        {
          "name": "",
          "type": "uint256"
        }
      ],
      "payable": false,
      "stateMutability": "view",
      "type": "function"
    },
    {
      "constant": true,
      "inputs": [],
      "name": "owner",
      "outputs": [
        {
          "name": "",
          "type": "address"
        }
      ],
      "payable": false,
      "stateMutability": "view",
      "type": "function"
    },
    {
      "constant": true,
      "inputs": [],
      "name": "winnerIndex",
      "outputs": [
        {
          "name": "",
          "type": "uint256"
        }
      ],
      "payable": false,
      "stateMutability": "view",
      "type": "function"
    },
    {
      "constant": true,
      "inputs": [],
      "name": "votePhaseEndTime",
      "outputs": [
        {
          "name": "",
          "type": "uint256"
        }
      ],
      "payable": false,
      "stateMutability": "view",
      "type": "function"
    },
    {
      "constant": true,
      "inputs": [],
      "name": "maxVoteCount",
      "outputs": [
        {
          "name": "",
          "type": "uint256"
        }
      ],
      "payable": false,
      "stateMutability": "view",
      "type": "function"
    },
    {
      "constant": true,
      "inputs": [],
      "name": "electionID",
      "outputs": [
        {
          "name": "",
          "type": "uint256"
        }
      ],
      "payable": false,
      "stateMutability": "view",
      "type": "function"
    },
    {
      "inputs": [],
      "payable": false,
      "stateMutability": "nonpayable",
      "type": "constructor"
    },
    {
      "anonymous": false,
      "inputs": [
        {
          "indexed": false,
          "name": "",
          "type": "string"
        }
      ],
      "name": "logString",
      "type": "event"
    },
    {
      "anonymous": false,
      "inputs": [
        {
          "indexed": false,
          "name": "",
          "type": "uint256"
        }
      ],
      "name": "logInt",
      "type": "event"
    },
    {
      "anonymous": false,
      "inputs": [
        {
          "indexed": false,
          "name": "",
          "type": "string"
        },
        {
          "indexed": false,
          "name": "",
          "type": "string"
        }
      ],
      "name": "voteWinner",
      "type": "event"
    },
    {
      "constant": false,
      "inputs": [
        {
          "name": "_maxVoteCount",
          "type": "uint256"
        },
        {
          "name": "_votePhaseLengthInSeconds",
          "type": "uint256"
        },
        {
          "name": "_choice1",
          "type": "string"
        },
        {
          "name": "_choice2",
          "type": "string"
        }
      ],
      "name": "startVote",
      "outputs": [],
      "payable": false,
      "stateMutability": "nonpayable",
      "type": "function"
    },
    {
      "constant": false,
      "inputs": [
        {
          "name": "_name",
          "type": "string"
        }
      ],
      "name": "addCandidate",
      "outputs": [],
      "payable": false,
      "stateMutability": "nonpayable",
      "type": "function"
    },
    {
      "constant": false,
      "inputs": [
        {
          "name": "_voter",
          "type": "string"
        }
      ],
      "name": "register",
      "outputs": [],
      "payable": false,
      "stateMutability": "nonpayable",
      "type": "function"
    },
    {
      "constant": false,
      "inputs": [
        {
          "name": "_vote",
          "type": "uint256"
        },
        {
          "name": "_voter",
          "type": "string"
        }
      ],
      "name": "castVote",
      "outputs": [],
      "payable": false,
      "stateMutability": "nonpayable",
      "type": "function"
    },
    {
      "constant": false,
      "inputs": [],
      "name": "countVotes",
      "outputs": [],
      "payable": false,
      "stateMutability": "nonpayable",
      "type": "function"
    },
    {
      "constant": true,
      "inputs": [],
      "name": "aaa",
      "outputs": [
        {
          "name": "",
          "type": "string"
        }
      ],
      "payable": false,
      "stateMutability": "view",
      "type": "function"
    },
    {
      "constant": true,
      "inputs": [],
      "name": "getWinner",
      "outputs": [
        {
          "name": "",
          "type": "string"
        }
      ],
      "payable": false,
      "stateMutability": "view",
      "type": "function"
    },
    {
      "constant": true,
      "inputs": [],
      "name": "getTieWinner",
      "outputs": [
        {
          "name": "",
          "type": "string"
        },
        {
          "name": "",
          "type": "string"
        }
      ],
      "payable": false,
      "stateMutability": "view",
      "type": "function"
    },
    {
      "constant": true,
      "inputs": [
        {
          "name": "_index",
          "type": "uint256"
        }
      ],
      "name": "intToCandidate",
      "outputs": [
        {
          "name": "",
          "type": "string"
        }
      ],
      "payable": false,
      "stateMutability": "view",
      "type": "function"
    },
    {
      "constant": true,
      "inputs": [
        {
          "name": "_name",
          "type": "string"
        }
      ],
      "name": "candidateToInt",
      "outputs": [
        {
          "name": "",
          "type": "uint256"
        }
      ],
      "payable": false,
      "stateMutability": "view",
      "type": "function"
    }
  ],
  "bytecode": "0x6060604052601e600a55341561001457600080fd5b33600b60006101000a81548173ffffffffffffffffffffffffffffffffffffffff021916908373ffffffffffffffffffffffffffffffffffffffff16021790555073ca35b7d915458ef540ade6068dfe2f44e8fa733c600c60006101000a81548173ffffffffffffffffffffffffffffffffffffffff021916908373ffffffffffffffffffffffffffffffffffffffff16021790555061144d806100b96000396000f300606060405260043610610107576000357c0100000000000000000000000000000000000000000000000000000000900463ffffffff16806328d9e6fa1461010c57806342c1e58714610135578063462e91ec1461018a5780635216509a146101e75780635fce2e1614610210578063893d8f4c146102ac5780638da5cb5b146102d55780638e7ea5b21461032a5780638f00cbfa146103b8578063937c0d0a146103e15780639877ea471461046f5780639e84e269146104985780639f62568d1461054a578063b647990a14610573578063d037853a14610588578063db709302146105ee578063e254fb5c1461065f578063f2c298be14610759578063f8e78e9a146107b6575b600080fd5b341561011757600080fd5b61011f6107df565b6040518082815260200191505060405180910390f35b341561014057600080fd5b6101486107e5565b604051808273ffffffffffffffffffffffffffffffffffffffff1673ffffffffffffffffffffffffffffffffffffffff16815260200191505060405180910390f35b341561019557600080fd5b6101e5600480803590602001908201803590602001908080601f0160208091040260200160405190810160405280939291908181526020018383808284378201915050505050509190505061080b565b005b34156101f257600080fd5b6101fa61085b565b6040518082815260200191505060405180910390f35b341561021b57600080fd5b6102316004808035906020019091905050610861565b6040518080602001828103825283818151815260200191508051906020019080838360005b83811015610271578082015181840152602081019050610256565b50505050905090810190601f16801561029e5780820380516001836020036101000a031916815260200191505b509250505060405180910390f35b34156102b757600080fd5b6102bf61091c565b6040518082815260200191505060405180910390f35b34156102e057600080fd5b6102e8610922565b604051808273ffffffffffffffffffffffffffffffffffffffff1673ffffffffffffffffffffffffffffffffffffffff16815260200191505060405180910390f35b341561033557600080fd5b61033d610948565b6040518080602001828103825283818151815260200191508051906020019080838360005b8381101561037d578082015181840152602081019050610362565b50505050905090810190601f1680156103aa5780820380516001836020036101000a031916815260200191505b509250505060405180910390f35b34156103c357600080fd5b6103cb610a5e565b6040518082815260200191505060405180910390f35b34156103ec57600080fd5b6103f4610a64565b6040518080602001828103825283818151815260200191508051906020019080838360005b83811015610434578082015181840152602081019050610419565b50505050905090810190601f1680156104615780820380516001836020036101000a031916815260200191505b509250505060405180910390f35b341561047a57600080fd5b610482610aa7565b6040518082815260200191505060405180910390f35b34156104a357600080fd5b610548600480803590602001909190803590602001909190803590602001908201803590602001908080601f0160208091040260200160405190810160405280939291908181526020018383808284378201915050505050509190803590602001908201803590602001908080601f01602080910402602001604051908101604052809392919081815260200183838082843782019150505050505091905050610aad565b005b341561055557600080fd5b61055d610bc4565b6040518082815260200191505060405180910390f35b341561057e57600080fd5b610586610bca565b005b341561059357600080fd5b6105ec600480803590602001909190803590602001908201803590602001908080601f01602080910402602001604051908101604052809392919081815260200183838082843782019150505050505091905050610c68565b005b34156105f957600080fd5b610649600480803590602001908201803590602001908080601f01602080910402602001604051908101604052809392919081815260200183838082843782019150505050505091905050610e52565b6040518082815260200191505060405180910390f35b341561066a57600080fd5b610672610f77565b604051808060200180602001838103835285818151815260200191508051906020019080838360005b838110156106b657808201518184015260208101905061069b565b50505050905090810190601f1680156106e35780820380516001836020036101000a031916815260200191505b50838103825284818151815260200191508051906020019080838360005b8381101561071c578082015181840152602081019050610701565b50505050905090810190601f1680156107495780820380516001836020036101000a031916815260200191505b5094505050505060405180910390f35b341561076457600080fd5b6107b4600480803590602001908201803590602001908080601f01602080910402602001604051908101604052809392919081815260200183838082843782019150505050505091905050611114565b005b34156107c157600080fd5b6107c961119e565b6040518082815260200191505060405180910390f35b60065481565b600c60009054906101000a900473ffffffffffffffffffffffffffffffffffffffff1681565b60146003541115151561081d57600080fd5b6001600360008282540192505081905550806001600060035481526020019081526020016000209080519060200190610857929190611368565b5050565b60035481565b6108696113e8565b600160008381526020019081526020016000208054600181600116156101000203166002900480601f0160208091040260200160405190810160405280929190818152602001828054600181600116156101000203166002900480156109105780601f106108e557610100808354040283529160200191610910565b820191906000526020600020905b8154815290600101906020018083116108f357829003601f168201915b50505050509050919050565b60085481565b600b60009054906101000a900473ffffffffffffffffffffffffffffffffffffffff1681565b6109506113e8565b6004544211151561096057600080fd5b6109686111a4565b156109aa576040805190810160405280600381526020017f74696500000000000000000000000000000000000000000000000000000000008152509050610a5b565b6001600060055481526020019081526020016000208054600181600116156101000203166002900480601f016020809104026020016040519081016040528092919081815260200182805460018160011615610100020316600290048015610a535780601f10610a2857610100808354040283529160200191610a53565b820191906000526020600020905b815481529060010190602001808311610a3657829003601f168201915b505050505090505b90565b60055481565b610a6c6113e8565b6040805190810160405280600481526020017f6173646600000000000000000000000000000000000000000000000000000000815250905090565b60045481565b60045442111515610abd57600080fd5b600b60009054906101000a900473ffffffffffffffffffffffffffffffffffffffff1673ffffffffffffffffffffffffffffffffffffffff163373ffffffffffffffffffffffffffffffffffffffff16141515610b1957600080fd5b600a548310151515610b2a57600080fd5b824201600481905550610b3b611225565b836009819055506002600381905550600060058190555060006006819055508160016000600181526020019081526020016000209080519060200190610b82929190611368565b508060016000600281526020019081526020016000209080519060200190610bab929190611368565b5060076000815480929190600101919050555050505050565b60095481565b600060045442111515610bdc57600080fd5b600190505b60035481111515610c6557600080600554815260200190815260200160002054600080838152602001908152602001600020541415610c2257806006819055505b600080600554815260200190815260200160002054600080838152602001908152602001600020541115610c5857806005819055505b8080600101915050610be1565b50565b60085460095410151515610c7b57600080fd5b600854600954111515610c8d57600080fd5b610c9681611267565b151515610ca257600080fd5b610cab816112e3565b1515610cb657600080fd5b600454421115610cc557610e4e565b60035482111515610de45760016000808481526020019081526020016000206000828254019250508190555060016008600082825401925050819055506007546002826040518082805190602001908083835b602083101515610d3d5780518252602082019150602081019050602083039250610d18565b6001836020036101000a0380198251168184511680821785525050505050509050019150509081526020016040518091039020600001819055507f0bb563d6789cea5d754d1b7f85bfebdfe7a1a86e2e0ffccfb8a6bbdb07826ae260405180806020018281038252600d8152602001807f566f746520636f756e7465642e0000000000000000000000000000000000000081525060200191505060405180910390a1610e4d565b7f0bb563d6789cea5d754d1b7f85bfebdfe7a1a86e2e0ffccfb8a6bbdb07826ae26040518080602001828103825260178152602001807f566f746520636f756c64206e6f7420626520726561642100000000000000000081525060200191505060405180910390a15b5b5050565b6000806000836040518082805190602001908083835b602083101515610e8d5780518252602082019150602081019050602083039250610e68565b6001836020036101000a03801982511681845116808217855250505050505090500191505060405180910390209150600190505b60035481111515610f6b57600160008281526020019081526020016000206040518082805460018160011615610100020316600290048015610f3a5780601f10610f18576101008083540402835291820191610f3a565b820191906000526020600020905b815481529060010190602001808311610f26575b505091505060405180910390206000191682600019161415610f5e57809250610f70565b8080600101915050610ec1565b600092505b5050919050565b610f7f6113e8565b610f876113e8565b60045442111515610f9757600080fd5b610f9f6111a4565b1515610faa57600080fd5b600160006005548152602001908152602001600020600160006006548152602001908152602001600020818054600181600116156101000203166002900480601f0160208091040260200160405190810160405280929190818152602001828054600181600116156101000203166002900480156110695780601f1061103e57610100808354040283529160200191611069565b820191906000526020600020905b81548152906001019060200180831161104c57829003601f168201915b50505050509150808054600181600116156101000203166002900480601f0160208091040260200160405190810160405280929190818152602001828054600181600116156101000203166002900480156111055780601f106110da57610100808354040283529160200191611105565b820191906000526020600020905b8154815290600101906020018083116110e857829003601f168201915b50505050509050915091509091565b60016002826040518082805190602001908083835b60208310151561114e5780518252602082019150602081019050602083039250611129565b6001836020036101000a038019825116818451168082178552505050505050905001915050908152602001604051809103902060010160006101000a81548160ff02191690831515021790555050565b60075481565b6000600454421115156111b657600080fd5b6000806006548152602001908152602001600020546000806005548152602001908152602001600020541480156111f1575060065460055414155b80156112005750600060055414155b801561120f5750600060065414155b1561121d5760019050611222565b600090505b90565b6000600190505b6003548111151561125c57600080600083815260200190815260200160002081905550808060010191505061122c565b600060088190555050565b60006007546002836040518082805190602001908083835b6020831015156112a4578051825260208201915060208101905060208303925061127f565b6001836020036101000a038019825116818451168082178552505050505050905001915050908152602001604051809103902060000154149050919050565b60006002826040518082805190602001908083835b60208310151561131d57805182526020820191506020810190506020830392506112f8565b6001836020036101000a038019825116818451168082178552505050505050905001915050908152602001604051809103902060010160009054906101000a900460ff169050919050565b828054600181600116156101000203166002900490600052602060002090601f016020900481019282601f106113a957805160ff19168380011785556113d7565b828001600101855582156113d7579182015b828111156113d65782518255916020019190600101906113bb565b5b5090506113e491906113fc565b5090565b602060405190810160405280600081525090565b61141e91905b8082111561141a576000816000905550600101611402565b5090565b905600a165627a7a72305820ed2ccd193510d2dab68987d102787e8b3541c3e99f29741f1416b2ca734f33360029",
  "source": "pragma solidity ^0.4.7;\n\ncontract presidentElection\n{\n    mapping(uint => uint) voteCount; \n    mapping(uint => string) candidate; \n    mapping(string => voter) voters;\n    uint public numCandidates;\n    uint public votePhaseEndTime;\n    uint public winnerIndex;\n    uint public tieIndex;\n    uint public electionID;\n    uint public totalVoteCount;\n    uint public maxVoteCount;\n    uint MIN_VOTE_TIME = 30;\n    address public owner;\n    address public voteManager;\n\n    struct voter\n    {\n        uint electionID;\n        bool isRegistered;\n    }\n    \n    //Modifiers\n    modifier voteUnFinished{\n        require(maxVoteCount >= totalVoteCount);\n        _;\n    }\n    modifier voteFinished {\n        require(now > votePhaseEndTime);\n        _;\n    }\n    modifier ownerShip{\n        require(msg.sender == owner);\n        _;\n    }\n    modifier voterShip{\n        require(msg.sender == voteManager);\n        _;\n    }\n\n    event logString(string);\n    event logInt(uint);\n    event voteWinner(string, string);\n\n    function presidentElection() {\n        owner = msg.sender;\n        voteManager = 0xca35b7d915458ef540ade6068dfe2f44e8fa733c;\n    }\n    \n\n    function startVote(uint _maxVoteCount, uint _votePhaseLengthInSeconds, \n                                  string _choice1, \n                                  string _choice2) public voteFinished ownerShip\n    {\n        require(_votePhaseLengthInSeconds >= MIN_VOTE_TIME);\n        votePhaseEndTime = now + _votePhaseLengthInSeconds;\n        resetVoteCount();\n        maxVoteCount = _maxVoteCount;\n        numCandidates = 2;\n        winnerIndex = 0;\n        tieIndex = 0;\n        candidate[1] = _choice1;\n        candidate[2] = _choice2;\n        electionID++;\n    }\n\n    function resetVoteCount() private\n    {\n        for (uint i=1; i<=numCandidates; i++)\n        {\n            voteCount[i] = 0;\n        }\n        totalVoteCount =0;\n    }\n\n    function addCandidate(string _name) public\n    {\n        require(numCandidates <= 20);\n        numCandidates += 1;\n        candidate[numCandidates] = _name;\n    }\n\n    function register(string _voter) public\n    {\n        voters[_voter].isRegistered = true;\n    }\n\n    function castVote(uint _vote, string _voter) public voteUnFinished\n    {\n        require(maxVoteCount > totalVoteCount);\n        require(!getHasVoted(_voter));\n        require(getRegistrationStatus(_voter));\n        if (now > votePhaseEndTime) return;\n\n        // record the vote\n        if (_vote <= numCandidates) \n        {\n            voteCount[_vote] += 1;\n            totalVoteCount += 1;\n            voters[_voter].electionID = electionID;\n            logString(\"Vote counted.\");\n        }  \n        else \n        {\n            logString(\"Vote could not be read!\");\n        }\n    }\n\n    function countVotes() voteFinished public\n    {\n        for (uint i=1; i<= numCandidates; i++)\n        {\n            if (voteCount[i] == voteCount[winnerIndex]) tieIndex = i;\n            if (voteCount[i] > voteCount[winnerIndex]) winnerIndex = i;\n        }\n    }\n\n    function isTie() constant private voteFinished returns(bool)\n    {\n        if (voteCount[winnerIndex] == voteCount[tieIndex] \n            && winnerIndex != tieIndex\n            && winnerIndex != 0\n            && tieIndex != 0) return true;\n        return false;\n    }\n\n    function aaa() constant public returns(string)\n    {\n        return \"asdf\";        \n    }\n\n\n    function getWinner() voteFinished constant public returns(string) \n    {\n        if (isTie()) return \"tie\";\n        return candidate[winnerIndex];\n    }\n\n    function getTieWinner() voteFinished constant public returns(string, string)\n    {\n        require(isTie());\n        return (candidate[winnerIndex], candidate[tieIndex]);\n    }\n\n    function intToCandidate(uint _index) constant public returns(string) \n    {\n        return candidate[_index];\n    }\n\n    function candidateToInt(string _name) constant public returns(uint)\n    {\n        bytes32 nameHash = sha3(_name);\n        for (uint i=1; i<=numCandidates; i++)\n        {\n            if (nameHash == sha3(candidate[i]))\n                return i;\n        }\n        return 0;\n    }\n\n    function getHasVoted(string _voter) constant private returns(bool) \n    {\n        return voters[_voter].electionID == electionID;\n    }\n\n    function getRegistrationStatus(string _voter) constant private returns(bool)\n    {\n        return voters[_voter].isRegistered;\n    }\n\n}\n",
  "sourcePath": "/Users/lucas/dev/js/blockchain_election/dapp_election/contracts/presidentElection.sol",
  "compiler": {
    "name": "solc",
    "version": "0.4.21+commit.dfe3193c.Emscripten.clang"
  },
  "schemaVersion": "2.0.0",
  "updatedAt": "2018-04-13T09:27:44.677Z"
}