{
  "contractName": "presidentElection",
  "abi": [
    {
      "constant": true,
      "inputs": [],
      "name": "tieIndex",
      "outputs": [
        {
          "name": "",
          "type": "uint256"
        }
      ],
      "payable": false,
      "stateMutability": "view",
      "type": "function"
    },
    {
      "constant": true,
      "inputs": [
        {
          "name": "timestamp",
          "type": "uint256"
        }
      ],
      "name": "getHour",
      "outputs": [
        {
          "name": "",
          "type": "uint8"
        }
      ],
      "payable": false,
      "stateMutability": "pure",
      "type": "function"
    },
    {
      "constant": true,
      "inputs": [],
      "name": "voteManager",
      "outputs": [
        {
          "name": "",
          "type": "address"
        }
      ],
      "payable": false,
      "stateMutability": "view",
      "type": "function"
    },
    {
      "constant": true,
      "inputs": [],
      "name": "numCandidates",
      "outputs": [
        {
          "name": "",
          "type": "uint256"
        }
      ],
      "payable": false,
      "stateMutability": "view",
      "type": "function"
    },
    {
      "constant": true,
      "inputs": [
        {
          "name": "year",
          "type": "uint16"
        },
        {
          "name": "month",
          "type": "uint8"
        },
        {
          "name": "day",
          "type": "uint8"
        },
        {
          "name": "hour",
          "type": "uint8"
        },
        {
          "name": "minute",
          "type": "uint8"
        }
      ],
      "name": "toTimestamp",
      "outputs": [
        {
          "name": "timestamp",
          "type": "uint256"
        }
      ],
      "payable": false,
      "stateMutability": "pure",
      "type": "function"
    },
    {
      "constant": true,
      "inputs": [
        {
          "name": "timestamp",
          "type": "uint256"
        }
      ],
      "name": "getDay",
      "outputs": [
        {
          "name": "",
          "type": "uint8"
        }
      ],
      "payable": false,
      "stateMutability": "pure",
      "type": "function"
    },
    {
      "constant": true,
      "inputs": [],
      "name": "votePhaseStartTime",
      "outputs": [
        {
          "name": "",
          "type": "uint256"
        }
      ],
      "payable": false,
      "stateMutability": "view",
      "type": "function"
    },
    {
      "constant": true,
      "inputs": [],
      "name": "setEndTime",
      "outputs": [
        {
          "name": "",
          "type": "bool"
        }
      ],
      "payable": false,
      "stateMutability": "view",
      "type": "function"
    },
    {
      "constant": true,
      "inputs": [],
      "name": "totalVoteCount",
      "outputs": [
        {
          "name": "",
          "type": "uint256"
        }
      ],
      "payable": false,
      "stateMutability": "view",
      "type": "function"
    },
    {
      "constant": true,
      "inputs": [],
      "name": "owner",
      "outputs": [
        {
          "name": "",
          "type": "address"
        }
      ],
      "payable": false,
      "stateMutability": "view",
      "type": "function"
    },
    {
      "constant": true,
      "inputs": [],
      "name": "winnerIndex",
      "outputs": [
        {
          "name": "",
          "type": "uint256"
        }
      ],
      "payable": false,
      "stateMutability": "view",
      "type": "function"
    },
    {
      "constant": true,
      "inputs": [
        {
          "name": "timestamp",
          "type": "uint256"
        }
      ],
      "name": "getYear",
      "outputs": [
        {
          "name": "",
          "type": "uint16"
        }
      ],
      "payable": false,
      "stateMutability": "pure",
      "type": "function"
    },
    {
      "constant": true,
      "inputs": [],
      "name": "votePhaseEndTime",
      "outputs": [
        {
          "name": "",
          "type": "uint256"
        }
      ],
      "payable": false,
      "stateMutability": "view",
      "type": "function"
    },
    {
      "constant": true,
      "inputs": [],
      "name": "maxVoteCount",
      "outputs": [
        {
          "name": "",
          "type": "uint256"
        }
      ],
      "payable": false,
      "stateMutability": "view",
      "type": "function"
    },
    {
      "constant": true,
      "inputs": [
        {
          "name": "timestamp",
          "type": "uint256"
        }
      ],
      "name": "getMonth",
      "outputs": [
        {
          "name": "",
          "type": "uint8"
        }
      ],
      "payable": false,
      "stateMutability": "pure",
      "type": "function"
    },
    {
      "constant": true,
      "inputs": [
        {
          "name": "year",
          "type": "uint16"
        }
      ],
      "name": "isLeapYear",
      "outputs": [
        {
          "name": "",
          "type": "bool"
        }
      ],
      "payable": false,
      "stateMutability": "pure",
      "type": "function"
    },
    {
      "constant": true,
      "inputs": [
        {
          "name": "year",
          "type": "uint256"
        }
      ],
      "name": "leapYearsBefore",
      "outputs": [
        {
          "name": "",
          "type": "uint256"
        }
      ],
      "payable": false,
      "stateMutability": "pure",
      "type": "function"
    },
    {
      "constant": true,
      "inputs": [
        {
          "name": "month",
          "type": "uint8"
        },
        {
          "name": "year",
          "type": "uint16"
        }
      ],
      "name": "getDaysInMonth",
      "outputs": [
        {
          "name": "",
          "type": "uint8"
        }
      ],
      "payable": false,
      "stateMutability": "pure",
      "type": "function"
    },
    {
      "constant": false,
      "inputs": [],
      "name": "getNow",
      "outputs": [
        {
          "name": "",
          "type": "uint256"
        }
      ],
      "payable": false,
      "stateMutability": "nonpayable",
      "type": "function"
    },
    {
      "constant": true,
      "inputs": [],
      "name": "setTime",
      "outputs": [
        {
          "name": "",
          "type": "bool"
        }
      ],
      "payable": false,
      "stateMutability": "view",
      "type": "function"
    },
    {
      "constant": true,
      "inputs": [
        {
          "name": "timestamp",
          "type": "uint256"
        }
      ],
      "name": "getMinute",
      "outputs": [
        {
          "name": "",
          "type": "uint8"
        }
      ],
      "payable": false,
      "stateMutability": "pure",
      "type": "function"
    },
    {
      "inputs": [],
      "payable": false,
      "stateMutability": "nonpayable",
      "type": "constructor"
    },
    {
      "anonymous": false,
      "inputs": [
        {
          "indexed": false,
          "name": "",
          "type": "string"
        }
      ],
      "name": "logString",
      "type": "event"
    },
    {
      "anonymous": false,
      "inputs": [
        {
          "indexed": false,
          "name": "",
          "type": "uint256"
        }
      ],
      "name": "logInt",
      "type": "event"
    },
    {
      "anonymous": false,
      "inputs": [
        {
          "indexed": false,
          "name": "",
          "type": "string"
        },
        {
          "indexed": false,
          "name": "",
          "type": "string"
        }
      ],
      "name": "voteWinner",
      "type": "event"
    },
    {
      "constant": false,
      "inputs": [
        {
          "name": "_year",
          "type": "uint16"
        },
        {
          "name": "_month",
          "type": "uint8"
        },
        {
          "name": "_day",
          "type": "uint8"
        },
        {
          "name": "_hour",
          "type": "uint8"
        },
        {
          "name": "_minute",
          "type": "uint8"
        }
      ],
      "name": "setTimeStamp",
      "outputs": [],
      "payable": false,
      "stateMutability": "nonpayable",
      "type": "function"
    },
    {
      "constant": false,
      "inputs": [
        {
          "name": "_year",
          "type": "uint16"
        },
        {
          "name": "_month",
          "type": "uint8"
        },
        {
          "name": "_day",
          "type": "uint8"
        },
        {
          "name": "_hour",
          "type": "uint8"
        },
        {
          "name": "_minute",
          "type": "uint8"
        }
      ],
      "name": "setEndTimeStamp",
      "outputs": [],
      "payable": false,
      "stateMutability": "nonpayable",
      "type": "function"
    },
    {
      "constant": false,
      "inputs": [
        {
          "name": "_maxVoteCount",
          "type": "uint256"
        }
      ],
      "name": "startVote",
      "outputs": [],
      "payable": false,
      "stateMutability": "nonpayable",
      "type": "function"
    },
    {
      "constant": false,
      "inputs": [
        {
          "name": "_name",
          "type": "string"
        }
      ],
      "name": "addCandidate",
      "outputs": [],
      "payable": false,
      "stateMutability": "nonpayable",
      "type": "function"
    },
    {
      "constant": false,
      "inputs": [
        {
          "name": "_vote",
          "type": "uint256"
        }
      ],
      "name": "castVote",
      "outputs": [],
      "payable": false,
      "stateMutability": "nonpayable",
      "type": "function"
    },
    {
      "constant": false,
      "inputs": [],
      "name": "countVotes",
      "outputs": [],
      "payable": false,
      "stateMutability": "nonpayable",
      "type": "function"
    },
    {
      "constant": true,
      "inputs": [],
      "name": "getWinner",
      "outputs": [
        {
          "name": "",
          "type": "string"
        }
      ],
      "payable": false,
      "stateMutability": "view",
      "type": "function"
    },
    {
      "constant": true,
      "inputs": [],
      "name": "getTieWinner",
      "outputs": [
        {
          "name": "",
          "type": "string"
        },
        {
          "name": "",
          "type": "string"
        }
      ],
      "payable": false,
      "stateMutability": "view",
      "type": "function"
    },
    {
      "constant": true,
      "inputs": [
        {
          "name": "_index",
          "type": "uint256"
        }
      ],
      "name": "intToCandidate",
      "outputs": [
        {
          "name": "",
          "type": "string"
        }
      ],
      "payable": false,
      "stateMutability": "view",
      "type": "function"
    },
    {
      "constant": true,
      "inputs": [
        {
          "name": "_name",
          "type": "string"
        }
      ],
      "name": "candidateToInt",
      "outputs": [
        {
          "name": "",
          "type": "uint256"
        }
      ],
      "payable": false,
      "stateMutability": "view",
      "type": "function"
    },
    {
      "constant": false,
      "inputs": [],
      "name": "test",
      "outputs": [
        {
          "name": "",
          "type": "uint256"
        }
      ],
      "payable": false,
      "stateMutability": "nonpayable",
      "type": "function"
    }
  ],
  "bytecode": "0x6060604052601e600a55341561001457600080fd5b33600b60006101000a81548173ffffffffffffffffffffffffffffffffffffffff021916908373ffffffffffffffffffffffffffffffffffffffff16021790555033600c60006101000a81548173ffffffffffffffffffffffffffffffffffffffff021916908373ffffffffffffffffffffffffffffffffffffffff1602179055506001600960006101000a81548160ff0219169083151502179055506001600960016101000a81548160ff021916908315150217905550611d00806100db6000396000f300606060405260043610610196576000357c0100000000000000000000000000000000000000000000000000000000900463ffffffff16806328d9e6fa1461019b5780633e239e1a146101c45780633eb76b9c146102015780633f2205241461022457806342c1e58714610247578063462e91ec1461029c5780635216509a146102f95780635fce2e161461032257806362ba9687146103be57806365c72840146104295780637266eb5b1461046657806376be6af61461048f578063893d8f4c146104bc5780638da5cb5b146104e55780638e7ea5b21461053a5780638f00cbfa146105c857806392d66313146105f15780639877ea47146106305780639f62568d14610659578063a2e23f7714610682578063a324ad24146106d9578063a6f0e57714610716578063b09b59ac14610755578063b1999937146107ac578063b238ad0e146107e3578063b647990a14610830578063bbe4fd5014610845578063d9276a491461086e578063db7093021461089b578063e254fb5c1461090c578063f8a8fd6d14610a06578063fa93f88314610a2f575b600080fd5b34156101a657600080fd5b6101ae610a6c565b6040518082815260200191505060405180910390f35b34156101cf57600080fd5b6101e56004808035906020019091905050610a72565b604051808260ff1660ff16815260200191505060405180910390f35b341561020c57600080fd5b6102226004808035906020019091905050610a9f565b005b341561022f57600080fd5b6102456004808035906020019091905050610b2a565b005b341561025257600080fd5b61025a610bfa565b604051808273ffffffffffffffffffffffffffffffffffffffff1673ffffffffffffffffffffffffffffffffffffffff16815260200191505060405180910390f35b34156102a757600080fd5b6102f7600480803590602001908201803590602001908080601f01602080910402602001604051908101604052809392919081815260200183838082843782019150505050505091905050610c20565b005b341561030457600080fd5b61030c610ce0565b6040518082815260200191505060405180910390f35b341561032d57600080fd5b6103436004808035906020019091905050610ce6565b6040518080602001828103825283818151815260200191508051906020019080838360005b83811015610383578082015181840152602081019050610368565b50505050905090810190601f1680156103b05780820380516001836020036101000a031916815260200191505b509250505060405180910390f35b34156103c957600080fd5b610413600480803561ffff1690602001909190803560ff1690602001909190803560ff1690602001909190803560ff1690602001909190803560ff16906020019091905050610da1565b6040518082815260200191505060405180910390f35b341561043457600080fd5b61044a6004808035906020019091905050611045565b604051808260ff1660ff16815260200191505060405180910390f35b341561047157600080fd5b61047961105b565b6040518082815260200191505060405180910390f35b341561049a57600080fd5b6104a2611061565b604051808215151515815260200191505060405180910390f35b34156104c757600080fd5b6104cf611074565b6040518082815260200191505060405180910390f35b34156104f057600080fd5b6104f861107a565b604051808273ffffffffffffffffffffffffffffffffffffffff1673ffffffffffffffffffffffffffffffffffffffff16815260200191505060405180910390f35b341561054557600080fd5b61054d6110a0565b6040518080602001828103825283818151815260200191508051906020019080838360005b8381101561058d578082015181840152602081019050610572565b50505050905090810190601f1680156105ba5780820380516001836020036101000a031916815260200191505b509250505060405180910390f35b34156105d357600080fd5b6105db6111ba565b6040518082815260200191505060405180910390f35b34156105fc57600080fd5b61061260048080359060200190919050506111c0565b604051808261ffff1661ffff16815260200191505060405180910390f35b341561063b57600080fd5b61064361126b565b6040518082815260200191505060405180910390f35b341561066457600080fd5b61066c611271565b6040518082815260200191505060405180910390f35b341561068d57600080fd5b6106d7600480803561ffff1690602001909190803560ff1690602001909190803560ff1690602001909190803560ff1690602001909190803560ff16906020019091905050611277565b005b34156106e457600080fd5b6106fa600480803590602001909190505061133e565b604051808260ff1660ff16815260200191505060405180910390f35b341561072157600080fd5b61073b600480803561ffff16906020019091905050611354565b604051808215151515815260200191505060405180910390f35b341561076057600080fd5b6107aa600480803561ffff1690602001909190803560ff1690602001909190803560ff1690602001909190803560ff1690602001909190803560ff169060200190919050506113d5565b005b34156107b757600080fd5b6107cd60048080359060200190919050506114b0565b6040518082815260200191505060405180910390f35b34156107ee57600080fd5b610814600480803560ff1690602001909190803561ffff169060200190919050506114e9565b604051808260ff1660ff16815260200191505060405180910390f35b341561083b57600080fd5b6108436115b5565b005b341561085057600080fd5b610858611657565b6040518082815260200191505060405180910390f35b341561087957600080fd5b610881611663565b604051808215151515815260200191505060405180910390f35b34156108a657600080fd5b6108f6600480803590602001908201803590602001908080601f01602080910402602001604051908101604052809392919081815260200183838082843782019150505050505091905050611676565b6040518082815260200191505060405180910390f35b341561091757600080fd5b61091f61179b565b604051808060200180602001838103835285818151815260200191508051906020019080838360005b83811015610963578082015181840152602081019050610948565b50505050905090810190601f1680156109905780820380516001836020036101000a031916815260200191505b50838103825284818151815260200191508051906020019080838360005b838110156109c95780820151818401526020810190506109ae565b50505050905090810190601f1680156109f65780820380516001836020036101000a031916815260200191505b5094505050505060405180910390f35b3415610a1157600080fd5b610a1961193c565b6040518082815260200191505060405180910390f35b3415610a3a57600080fd5b610a506004808035906020019091905050611946565b604051808260ff1660ff16815260200191505060405180910390f35b60065481565b60006018603c8084811515610a8357fe5b04811515610a8d57fe5b04811515610a9757fe5b069050919050565b600354617e904201111515610ab357600080fd5b600454617e904201101515610ac757600080fd5b600754600854111515610ad957600080fd5b600454421115610ae857610b27565b60025481111515610b265760016000808381526020019081526020016000206000828254019250508190555060016007600082825401925050819055505b5b50565b600454617e904201111515610b3e57600080fd5b3373ffffffffffffffffffffffffffffffffffffffff16600b60009054906101000a900473ffffffffffffffffffffffffffffffffffffffff1673ffffffffffffffffffffffffffffffffffffffff16141515610b9a57600080fd5b610ba2611967565b806008819055506000600281905550600060058190555060006006819055506000600960006101000a81548160ff0219169083151502179055506000600960016101000a81548160ff02191690831515021790555050565b600c60009054906101000a900473ffffffffffffffffffffffffffffffffffffffff1681565b600454617e904201111515610c3457600080fd5b3373ffffffffffffffffffffffffffffffffffffffff16600b60009054906101000a900473ffffffffffffffffffffffffffffffffffffffff1673ffffffffffffffffffffffffffffffffffffffff16141515610c9057600080fd5b600960025411151515610ca257600080fd5b6001600260008282540192505081905550806001600060025481526020019081526020016000209080519060200190610cdc929190611b9b565b5050565b60025481565b610cee611c1b565b600160008381526020019081526020016000208054600181600116156101000203166002900480601f016020809104026020016040519081016040528092919081815260200182805460018160011615610100020316600290048015610d955780601f10610d6a57610100808354040283529160200191610d95565b820191906000526020600020905b815481529060010190602001808311610d7857829003601f168201915b50505050509050919050565b600080610dac611c2f565b6107b291505b8761ffff168261ffff161015610df557610dcb82611354565b15610dde576301e2850083019250610de8565b6301e13380830192505b8180600101925050610db2565b601f816000600c81101515610e0657fe5b602002019060ff16908160ff1681525050610e2088611354565b15610e4c57601d816001600c81101515610e3657fe5b602002019060ff16908160ff1681525050610e6f565b601c816001600c81101515610e5d57fe5b602002019060ff16908160ff16815250505b601f816002600c81101515610e8057fe5b602002019060ff16908160ff1681525050601e816003600c81101515610ea257fe5b602002019060ff16908160ff1681525050601f816004600c81101515610ec457fe5b602002019060ff16908160ff1681525050601e816005600c81101515610ee657fe5b602002019060ff16908160ff1681525050601f816006600c81101515610f0857fe5b602002019060ff16908160ff1681525050601f816007600c81101515610f2a57fe5b602002019060ff16908160ff1681525050601e816008600c81101515610f4c57fe5b602002019060ff16908160ff1681525050601f816009600c81101515610f6e57fe5b602002019060ff16908160ff1681525050601e81600a600c81101515610f9057fe5b602002019060ff16908160ff1681525050601f81600b600c81101515610fb257fe5b602002019060ff16908160ff1681525050600191505b8660ff168261ffff16101561100a57806001830361ffff16600c81101515610fec57fe5b602002015160ff166201518002830192508180600101925050610fc8565b6001860360ff166201518002830192508460ff16610e1002830192508360ff16603c0283019250600083019250829250505095945050505050565b6000611050826119a9565b604001519050919050565b60035481565b600960019054906101000a900460ff1681565b60075481565b600b60009054906101000a900473ffffffffffffffffffffffffffffffffffffffff1681565b6110a8611c1b565b600454617e9042011115156110bc57600080fd5b6110c4611b16565b15611106576040805190810160405280600381526020017f746965000000000000000000000000000000000000000000000000000000000081525090506111b7565b6001600060055481526020019081526020016000208054600181600116156101000203166002900480601f0160208091040260200160405190810160405280929190818152602001828054600181600116156101000203166002900480156111af5780601f10611184576101008083540402835291602001916111af565b820191906000526020600020905b81548152906001019060200180831161119257829003601f168201915b505050505090505b90565b60055481565b600080600080600092506301e13380858115156111d957fe5b046107b261ffff160191506111f36107b261ffff166114b0565b6112008361ffff166114b0565b039050806301e285000283019250806107b2830361ffff16036301e1338002830192505b848311156112605761123860018303611354565b1561124b576301e2850083039250611255565b6301e13380830392505b600182039150611224565b819350505050919050565b60045481565b60085481565b600454617e90420111151561128b57600080fd5b3373ffffffffffffffffffffffffffffffffffffffff16600b60009054906101000a900473ffffffffffffffffffffffffffffffffffffffff1673ffffffffffffffffffffffffffffffffffffffff161415156112e757600080fd5b60001515600960019054906101000a900460ff16151514151561130957600080fd5b6001600960016101000a81548160ff0219169083151502179055506113318585858585610da1565b6004819055505050505050565b6000611349826119a9565b602001519050919050565b60008060048361ffff1681151561136757fe5b0661ffff1614151561137c57600090506113d0565b600060648361ffff1681151561138e57fe5b0661ffff161415156113a357600190506113d0565b60006101908361ffff168115156113b657fe5b0661ffff161415156113cb57600090506113d0565b600190505b919050565b600354617e9042011115156113e957600080fd5b600454617e9042011115156113fd57600080fd5b3373ffffffffffffffffffffffffffffffffffffffff16600b60009054906101000a900473ffffffffffffffffffffffffffffffffffffffff1673ffffffffffffffffffffffffffffffffffffffff1614151561145957600080fd5b60001515600960009054906101000a900460ff16151514151561147b57600080fd5b6001600960006101000a81548160ff0219169083151502179055506114a38585858585610da1565b6003819055505050505050565b6000600182039150610190828115156114c557fe5b046064838115156114d257fe5b046004848115156114df57fe5b0403019050919050565b600060018360ff161480611500575060038360ff16145b8061150e575060058360ff16145b8061151c575060078360ff16145b8061152a575060088360ff16145b806115385750600a8360ff16145b806115465750600c8360ff16145b1561155457601f90506115af565b60048360ff161480611569575060068360ff16145b80611577575060098360ff16145b806115855750600b8360ff16145b1561159357601e90506115af565b61159c82611354565b156115aa57601d90506115af565b601c90505b92915050565b6000600454617e9042011115156115cb57600080fd5b600190505b600254811115156116545760008060055481526020019081526020016000205460008083815260200190815260200160002054141561161157806006819055505b60008060055481526020019081526020016000205460008083815260200190815260200160002054111561164757806005819055505b80806001019150506115d0565b50565b6000617e904201905090565b600960009054906101000a900460ff1681565b6000806000836040518082805190602001908083835b6020831015156116b1578051825260208201915060208101905060208303925061168c565b6001836020036101000a03801982511681845116808217855250505050505090500191505060405180910390209150600190505b6002548111151561178f5760016000828152602001908152602001600020604051808280546001816001161561010002031660029004801561175e5780601f1061173c57610100808354040283529182019161175e565b820191906000526020600020905b81548152906001019060200180831161174a575b50509150506040518091039020600019168260001916141561178257809250611794565b80806001019150506116e5565b600092505b5050919050565b6117a3611c1b565b6117ab611c1b565b600454617e9042011115156117bf57600080fd5b6117c7611b16565b15156117d257600080fd5b600160006005548152602001908152602001600020600160006006548152602001908152602001600020818054600181600116156101000203166002900480601f0160208091040260200160405190810160405280929190818152602001828054600181600116156101000203166002900480156118915780601f1061186657610100808354040283529160200191611891565b820191906000526020600020905b81548152906001019060200180831161187457829003601f168201915b50505050509150808054600181600116156101000203166002900480601f01602080910402602001604051908101604052809291908181526020018280546001816001161561010002031660029004801561192d5780601f106119025761010080835404028352916020019161192d565b820191906000526020600020905b81548152906001019060200180831161191057829003601f168201915b50505050509050915091509091565b6000600754905090565b6000603c808381151561195557fe5b0481151561195f57fe5b069050919050565b6000600190505b6002548111151561199e57600080600083815260200190815260200160002081905550808060010191505061196e565b600060078190555050565b6119b1611c5b565b600080600080600093506119c4866111c0565b856000019061ffff16908161ffff16815250506119e66107b261ffff166114b0565b6119f7866000015161ffff166114b0565b039250826301e285000284019350826107b286600001510361ffff16036301e133800284019350600191505b600c8260ff16111515611a7b57611a3e8286600001516114e9565b60ff1662015180029050858482011115611a695781856020019060ff16908160ff1681525050611a7b565b80840193508180600101925050611a23565b600191505b611a92856020015186600001516114e9565b60ff168260ff16111515611ad957858462015180011115611ac45781856040019060ff16908160ff1681525050611ad9565b62015180840193508180600101925050611a80565b611ae286610a72565b856060019060ff16908160ff1681525050611afc86611946565b856080019060ff16908160ff168152505050505050919050565b6000600454617e904201111515611b2c57600080fd5b600080600654815260200190815260200160002054600080600554815260200190815260200160002054148015611b67575060065460055414155b8015611b765750600060055414155b8015611b855750600060065414155b15611b935760019050611b98565b600090505b90565b828054600181600116156101000203166002900490600052602060002090601f016020900481019282601f10611bdc57805160ff1916838001178555611c0a565b82800160010185558215611c0a579182015b82811115611c09578251825591602001919060010190611bee565b5b509050611c179190611caf565b5090565b602060405190810160405280600081525090565b61018060405190810160405280600c905b600060ff16815260200190600190039081611c405790505090565b60e060405190810160405280600061ffff168152602001600060ff168152602001600060ff168152602001600060ff168152602001600060ff168152602001600060ff168152602001600060ff1681525090565b611cd191905b80821115611ccd576000816000905550600101611cb5565b5090565b905600a165627a7a723058209dad704d22606362054eac49bbddcc34740ac335ebe2f89aba8c14e18df12ef20029",
  "source": "pragma solidity ^0.4.7;\r\n\r\nimport \"./dateTime.sol\";\r\n//startvoe -> addcandidate -> time setting\r\ncontract presidentElection is dateTime\r\n{\r\n    mapping(uint => uint) voteCount; \r\n    mapping(uint => string) candidate; \r\n    uint public numCandidates;\r\n    uint public votePhaseStartTime;\r\n    uint public votePhaseEndTime;\r\n    uint public winnerIndex;\r\n    uint public tieIndex;\r\n    uint public totalVoteCount;\r\n    uint public maxVoteCount;\r\n    bool public setTime;\r\n    bool public setEndTime;\r\n    uint MIN_VOTE_TIME = 30;\r\n    address public owner;\r\n    address public voteManager;\r\n    \r\n    //Modifiers\r\n    modifier voteAlreadyStarted{ //   \r\n        require((now+3600*9) > votePhaseStartTime);\r\n        _;\r\n    }\r\n    modifier voteFinished {// \r\n        require((now+3600*9) > votePhaseEndTime);\r\n        _;\r\n    }\r\n    modifier ownerShip{// \r\n        require(owner == msg.sender);\r\n        _;\r\n    }\r\n    modifier voterShip{//  \r\n        require(voteManager == msg.sender);\r\n        _;\r\n    }\r\n\r\n    event logString(string);\r\n    event logInt(uint);\r\n    event voteWinner(string, string);\r\n\r\n    function presidentElection() public { //  \r\n        owner = msg.sender;\r\n        voteManager = msg.sender;\r\n        setTime=true;\r\n        setEndTime=true;\r\n    }\r\n    \r\n    function setTimeStamp(uint16 _year, uint8 _month, uint8 _day, uint8 _hour,\r\n        uint8 _minute) voteAlreadyStarted voteFinished ownerShip public\r\n    {\r\n        require(setTime == false);\r\n        setTime = true;\r\n        votePhaseStartTime = toTimestamp(_year,_month,_day,_hour,_minute);\r\n    }\r\n    function setEndTimeStamp(uint16 _year, uint8 _month, uint8 _day, uint8 _hour,\r\n        uint8 _minute) voteFinished ownerShip public\r\n    {\r\n        require(setEndTime == false);\r\n        setEndTime = true;\r\n        votePhaseEndTime = toTimestamp(_year,_month,_day,_hour,_minute);\r\n    }\r\n\r\n    function startVote(uint _maxVoteCount) voteFinished ownerShip public\r\n    {\r\n        // \r\n        //  \r\n        resetVoteCount();\r\n        maxVoteCount = _maxVoteCount;\r\n        numCandidates = 0;\r\n        winnerIndex = 0;\r\n        tieIndex = 0;\r\n        setTime = false;\r\n        setEndTime = false;\r\n    }\r\n\r\n    function resetVoteCount() private\r\n    {\r\n        // \r\n        for (uint i=1; i<=numCandidates; i++)\r\n        {\r\n            voteCount[i] = 0;\r\n        }\r\n        totalVoteCount =0;\r\n    }\r\n\r\n    function addCandidate(string _name) voteFinished ownerShip  public\r\n    {\r\n        // \r\n        require(numCandidates <= 9);\r\n        numCandidates += 1;\r\n        candidate[numCandidates] = _name;\r\n    }\r\n\r\n    function castVote(uint _vote) voteAlreadyStarted public\r\n    {\r\n        //\r\n        require((now+3600*9) < votePhaseEndTime);\r\n        require(maxVoteCount > totalVoteCount);\r\n        if (now > votePhaseEndTime) return;\r\n\r\n        // record the vote\r\n        if (_vote <= numCandidates) \r\n        {\r\n            voteCount[_vote] += 1;\r\n            totalVoteCount += 1;\r\n        } \r\n    }\r\n\r\n    function countVotes() voteFinished public\r\n    {\r\n        // \r\n        for (uint i=1; i<= numCandidates; i++)\r\n        {\r\n            if (voteCount[i] == voteCount[winnerIndex]) tieIndex = i;\r\n            if (voteCount[i] > voteCount[winnerIndex]) winnerIndex = i;\r\n        }\r\n    }\r\n\r\n    function isTie() constant private voteFinished returns(bool)\r\n    {\r\n        // \r\n        if (voteCount[winnerIndex] == voteCount[tieIndex] \r\n            && winnerIndex != tieIndex\r\n            && winnerIndex != 0\r\n            && tieIndex != 0) return true;\r\n        return false;\r\n    }\r\n\r\n    function getWinner() voteFinished constant public returns(string) \r\n    {\r\n        //\r\n        if (isTie()) return \"tie\";\r\n        return candidate[winnerIndex];\r\n    }\r\n\r\n    function getTieWinner() voteFinished constant public returns(string, string)\r\n    {\r\n        // \r\n        require(isTie());\r\n        return (candidate[winnerIndex], candidate[tieIndex]);\r\n    }\r\n\r\n    function intToCandidate(uint _index) constant public returns(string) \r\n    {\r\n        //   \r\n        return candidate[_index];\r\n    }\r\n\r\n    function candidateToInt(string _name) constant public returns(uint)\r\n    {\r\n        //   \r\n        bytes32 nameHash = sha3(_name);\r\n        for (uint i=1; i<=numCandidates; i++)\r\n        {\r\n            if (nameHash == sha3(candidate[i]))\r\n                return i;\r\n        }\r\n        return 0;\r\n    }\r\n\r\n    function test() public returns(uint){\r\n        return totalVoteCount;\r\n    }\r\n\r\n}\r\n",
  "sourcePath": "/mnt/c/Users/USER/Documents/blockchain_election/dapp_election/contracts/presidentElection.sol",
  "compiler": {
    "name": "solc",
    "version": "0.4.19+commit.c4cbbb05.Emscripten.clang"
  },
  "schemaVersion": "2.0.0",
  "updatedAt": "2018-05-22T05:39:37.337Z"
}