{
  "contractName": "presidentElection",
  "abi": [
    {
      "constant": true,
      "inputs": [],
      "name": "tieIndex",
      "outputs": [
        {
          "name": "",
          "type": "uint256"
        }
      ],
      "payable": false,
      "stateMutability": "view",
      "type": "function"
    },
    {
      "constant": true,
      "inputs": [
        {
          "name": "timestamp",
          "type": "uint256"
        }
      ],
      "name": "getHour",
      "outputs": [
        {
          "name": "",
          "type": "uint8"
        }
      ],
      "payable": false,
      "stateMutability": "pure",
      "type": "function"
    },
    {
      "constant": true,
      "inputs": [],
      "name": "voteManager",
      "outputs": [
        {
          "name": "",
          "type": "address"
        }
      ],
      "payable": false,
      "stateMutability": "view",
      "type": "function"
    },
    {
      "constant": true,
      "inputs": [],
      "name": "numCandidates",
      "outputs": [
        {
          "name": "",
          "type": "uint256"
        }
      ],
      "payable": false,
      "stateMutability": "view",
      "type": "function"
    },
    {
      "constant": true,
      "inputs": [
        {
          "name": "year",
          "type": "uint16"
        },
        {
          "name": "month",
          "type": "uint8"
        },
        {
          "name": "day",
          "type": "uint8"
        },
        {
          "name": "hour",
          "type": "uint8"
        },
        {
          "name": "minute",
          "type": "uint8"
        }
      ],
      "name": "toTimestamp",
      "outputs": [
        {
          "name": "timestamp",
          "type": "uint256"
        }
      ],
      "payable": false,
      "stateMutability": "pure",
      "type": "function"
    },
    {
      "constant": true,
      "inputs": [
        {
          "name": "timestamp",
          "type": "uint256"
        }
      ],
      "name": "getDay",
      "outputs": [
        {
          "name": "",
          "type": "uint8"
        }
      ],
      "payable": false,
      "stateMutability": "pure",
      "type": "function"
    },
    {
      "constant": true,
      "inputs": [],
      "name": "votePhaseStartTime",
      "outputs": [
        {
          "name": "",
          "type": "uint256"
        }
      ],
      "payable": false,
      "stateMutability": "view",
      "type": "function"
    },
    {
      "constant": true,
      "inputs": [],
      "name": "totalVoteCount",
      "outputs": [
        {
          "name": "",
          "type": "uint256"
        }
      ],
      "payable": false,
      "stateMutability": "view",
      "type": "function"
    },
    {
      "constant": true,
      "inputs": [],
      "name": "owner",
      "outputs": [
        {
          "name": "",
          "type": "address"
        }
      ],
      "payable": false,
      "stateMutability": "view",
      "type": "function"
    },
    {
      "constant": true,
      "inputs": [],
      "name": "winnerIndex",
      "outputs": [
        {
          "name": "",
          "type": "uint256"
        }
      ],
      "payable": false,
      "stateMutability": "view",
      "type": "function"
    },
    {
      "constant": true,
      "inputs": [
        {
          "name": "timestamp",
          "type": "uint256"
        }
      ],
      "name": "getYear",
      "outputs": [
        {
          "name": "",
          "type": "uint16"
        }
      ],
      "payable": false,
      "stateMutability": "pure",
      "type": "function"
    },
    {
      "constant": true,
      "inputs": [],
      "name": "votePhaseEndTime",
      "outputs": [
        {
          "name": "",
          "type": "uint256"
        }
      ],
      "payable": false,
      "stateMutability": "view",
      "type": "function"
    },
    {
      "constant": true,
      "inputs": [],
      "name": "maxVoteCount",
      "outputs": [
        {
          "name": "",
          "type": "uint256"
        }
      ],
      "payable": false,
      "stateMutability": "view",
      "type": "function"
    },
    {
      "constant": true,
      "inputs": [
        {
          "name": "timestamp",
          "type": "uint256"
        }
      ],
      "name": "getMonth",
      "outputs": [
        {
          "name": "",
          "type": "uint8"
        }
      ],
      "payable": false,
      "stateMutability": "pure",
      "type": "function"
    },
    {
      "constant": true,
      "inputs": [
        {
          "name": "year",
          "type": "uint16"
        }
      ],
      "name": "isLeapYear",
      "outputs": [
        {
          "name": "",
          "type": "bool"
        }
      ],
      "payable": false,
      "stateMutability": "pure",
      "type": "function"
    },
    {
      "constant": true,
      "inputs": [
        {
          "name": "year",
          "type": "uint256"
        }
      ],
      "name": "leapYearsBefore",
      "outputs": [
        {
          "name": "",
          "type": "uint256"
        }
      ],
      "payable": false,
      "stateMutability": "pure",
      "type": "function"
    },
    {
      "constant": true,
      "inputs": [
        {
          "name": "month",
          "type": "uint8"
        },
        {
          "name": "year",
          "type": "uint16"
        }
      ],
      "name": "getDaysInMonth",
      "outputs": [
        {
          "name": "",
          "type": "uint8"
        }
      ],
      "payable": false,
      "stateMutability": "pure",
      "type": "function"
    },
    {
      "constant": false,
      "inputs": [],
      "name": "getNow",
      "outputs": [
        {
          "name": "",
          "type": "uint256"
        }
      ],
      "payable": false,
      "stateMutability": "nonpayable",
      "type": "function"
    },
    {
      "constant": true,
      "inputs": [],
      "name": "electionID",
      "outputs": [
        {
          "name": "",
          "type": "uint256"
        }
      ],
      "payable": false,
      "stateMutability": "view",
      "type": "function"
    },
    {
      "constant": true,
      "inputs": [
        {
          "name": "timestamp",
          "type": "uint256"
        }
      ],
      "name": "getMinute",
      "outputs": [
        {
          "name": "",
          "type": "uint8"
        }
      ],
      "payable": false,
      "stateMutability": "pure",
      "type": "function"
    },
    {
      "inputs": [],
      "payable": false,
      "stateMutability": "nonpayable",
      "type": "constructor"
    },
    {
      "anonymous": false,
      "inputs": [
        {
          "indexed": false,
          "name": "",
          "type": "string"
        }
      ],
      "name": "logString",
      "type": "event"
    },
    {
      "anonymous": false,
      "inputs": [
        {
          "indexed": false,
          "name": "",
          "type": "uint256"
        }
      ],
      "name": "logInt",
      "type": "event"
    },
    {
      "anonymous": false,
      "inputs": [
        {
          "indexed": false,
          "name": "",
          "type": "string"
        },
        {
          "indexed": false,
          "name": "",
          "type": "string"
        }
      ],
      "name": "voteWinner",
      "type": "event"
    },
    {
      "constant": true,
      "inputs": [],
      "name": "isVoteFinished",
      "outputs": [
        {
          "name": "",
          "type": "bool"
        }
      ],
      "payable": false,
      "stateMutability": "view",
      "type": "function"
    },
    {
      "constant": true,
      "inputs": [
        {
          "name": "_maxVoteCount",
          "type": "uint256"
        },
        {
          "name": "_year",
          "type": "uint16"
        },
        {
          "name": "_month",
          "type": "uint8"
        },
        {
          "name": "_day",
          "type": "uint8"
        },
        {
          "name": "_hour",
          "type": "uint8"
        },
        {
          "name": "_minute",
          "type": "uint8"
        },
        {
          "name": "_endHour",
          "type": "uint8"
        }
      ],
      "name": "startVote",
      "outputs": [],
      "payable": false,
      "stateMutability": "view",
      "type": "function"
    },
    {
      "constant": true,
      "inputs": [
        {
          "name": "_name",
          "type": "string"
        }
      ],
      "name": "addCandidate",
      "outputs": [],
      "payable": false,
      "stateMutability": "view",
      "type": "function"
    },
    {
      "constant": true,
      "inputs": [
        {
          "name": "_vote",
          "type": "uint256"
        },
        {
          "name": "_voter",
          "type": "string"
        }
      ],
      "name": "castVote",
      "outputs": [],
      "payable": false,
      "stateMutability": "view",
      "type": "function"
    },
    {
      "constant": true,
      "inputs": [],
      "name": "countVotes",
      "outputs": [],
      "payable": false,
      "stateMutability": "view",
      "type": "function"
    },
    {
      "constant": true,
      "inputs": [],
      "name": "getWinner",
      "outputs": [
        {
          "name": "",
          "type": "string"
        }
      ],
      "payable": false,
      "stateMutability": "view",
      "type": "function"
    },
    {
      "constant": true,
      "inputs": [],
      "name": "getTieWinner",
      "outputs": [
        {
          "name": "",
          "type": "string"
        },
        {
          "name": "",
          "type": "string"
        }
      ],
      "payable": false,
      "stateMutability": "view",
      "type": "function"
    },
    {
      "constant": true,
      "inputs": [
        {
          "name": "_index",
          "type": "uint256"
        }
      ],
      "name": "intToCandidate",
      "outputs": [
        {
          "name": "",
          "type": "string"
        }
      ],
      "payable": false,
      "stateMutability": "view",
      "type": "function"
    },
    {
      "constant": true,
      "inputs": [
        {
          "name": "_name",
          "type": "string"
        }
      ],
      "name": "candidateToInt",
      "outputs": [
        {
          "name": "",
          "type": "uint256"
        }
      ],
      "payable": false,
      "stateMutability": "view",
      "type": "function"
    },
    {
      "constant": true,
      "inputs": [
        {
          "name": "_name",
          "type": "string"
        }
      ],
      "name": "test",
      "outputs": [
        {
          "name": "",
          "type": "string"
        }
      ],
      "payable": false,
      "stateMutability": "view",
      "type": "function"
    }
  ],
  "bytecode": "0x6060604052601e600b55341561001457600080fd5b33600c60006101000a81548173ffffffffffffffffffffffffffffffffffffffff021916908373ffffffffffffffffffffffffffffffffffffffff16021790555033600d60006101000a81548173ffffffffffffffffffffffffffffffffffffffff021916908373ffffffffffffffffffffffffffffffffffffffff160217905550611d47806100a56000396000f300606060405260043610610180576000357c0100000000000000000000000000000000000000000000000000000000900463ffffffff16806328d9e6fa146101855780633e239e1a146101ae57806342c1e587146101eb578063462e91ec146102405780635216509a1461029d5780635fce2e16146102c657806362ba96871461036257806365c72840146103cd5780636826294c1461040a5780637266eb5b14610437578063893d8f4c146104605780638da5cb5b146104895780638e7ea5b2146104de5780638f00cbfa1461056c57806392d663131461059557806393610ed6146105d45780639877ea47146106405780639f62568d14610669578063a324ad2414610692578063a6f0e577146106cf578063b19999371461070e578063b238ad0e14610745578063b647990a14610792578063bbe4fd50146107a7578063d037853a146107d0578063db70930214610836578063e254fb5c146108a7578063f8e78e9a146109a1578063f9fbd554146109ca578063fa93f88314610aa0575b600080fd5b341561019057600080fd5b610198610add565b6040518082815260200191505060405180910390f35b34156101b957600080fd5b6101cf6004808035906020019091905050610ae3565b604051808260ff1660ff16815260200191505060405180910390f35b34156101f657600080fd5b6101fe610b10565b604051808273ffffffffffffffffffffffffffffffffffffffff1673ffffffffffffffffffffffffffffffffffffffff16815260200191505060405180910390f35b341561024b57600080fd5b61029b600480803590602001908201803590602001908080601f01602080910402602001604051908101604052809392919081815260200183838082843782019150505050505091905050610b36565b005b34156102a857600080fd5b6102b0610b86565b6040518082815260200191505060405180910390f35b34156102d157600080fd5b6102e76004808035906020019091905050610b8c565b6040518080602001828103825283818151815260200191508051906020019080838360005b8381101561032757808201518184015260208101905061030c565b50505050905090810190601f1680156103545780820380516001836020036101000a031916815260200191505b509250505060405180910390f35b341561036d57600080fd5b6103b7600480803561ffff1690602001909190803560ff1690602001909190803560ff1690602001909190803560ff1690602001909190803560ff16906020019091905050610c47565b6040518082815260200191505060405180910390f35b34156103d857600080fd5b6103ee6004808035906020019091905050610eeb565b604051808260ff1660ff16815260200191505060405180910390f35b341561041557600080fd5b61041d610f01565b604051808215151515815260200191505060405180910390f35b341561044257600080fd5b61044a610f1d565b6040518082815260200191505060405180910390f35b341561046b57600080fd5b610473610f23565b6040518082815260200191505060405180910390f35b341561049457600080fd5b61049c610f29565b604051808273ffffffffffffffffffffffffffffffffffffffff1673ffffffffffffffffffffffffffffffffffffffff16815260200191505060405180910390f35b34156104e957600080fd5b6104f1610f4f565b6040518080602001828103825283818151815260200191508051906020019080838360005b83811015610531578082015181840152602081019050610516565b50505050905090810190601f16801561055e5780820380516001836020036101000a031916815260200191505b509250505060405180910390f35b341561057757600080fd5b61057f611065565b6040518082815260200191505060405180910390f35b34156105a057600080fd5b6105b6600480803590602001909190505061106b565b604051808261ffff1661ffff16815260200191505060405180910390f35b34156105df57600080fd5b61063e600480803590602001909190803561ffff1690602001909190803560ff1690602001909190803560ff1690602001909190803560ff1690602001909190803560ff1690602001909190803560ff16906020019091905050611116565b005b341561064b57600080fd5b610653611218565b6040518082815260200191505060405180910390f35b341561067457600080fd5b61067c61121e565b6040518082815260200191505060405180910390f35b341561069d57600080fd5b6106b36004808035906020019091905050611224565b604051808260ff1660ff16815260200191505060405180910390f35b34156106da57600080fd5b6106f4600480803561ffff1690602001909190505061123a565b604051808215151515815260200191505060405180910390f35b341561071957600080fd5b61072f60048080359060200190919050506112bb565b6040518082815260200191505060405180910390f35b341561075057600080fd5b610776600480803560ff1690602001909190803561ffff169060200190919050506112f4565b604051808260ff1660ff16815260200191505060405180910390f35b341561079d57600080fd5b6107a56113c0565b005b34156107b257600080fd5b6107ba61145e565b6040518082815260200191505060405180910390f35b34156107db57600080fd5b610834600480803590602001909190803590602001908201803590602001908080601f0160208091040260200160405190810160405280939291908181526020018383808284378201915050505050509190505061146a565b005b341561084157600080fd5b610891600480803590602001908201803590602001908080601f0160208091040260200160405190810160405280939291908181526020018383808284378201915050505050509190505061163d565b6040518082815260200191505060405180910390f35b34156108b257600080fd5b6108ba611762565b604051808060200180602001838103835285818151815260200191508051906020019080838360005b838110156108fe5780820151818401526020810190506108e3565b50505050905090810190601f16801561092b5780820380516001836020036101000a031916815260200191505b50838103825284818151815260200191508051906020019080838360005b83811015610964578082015181840152602081019050610949565b50505050905090810190601f1680156109915780820380516001836020036101000a031916815260200191505b5094505050505060405180910390f35b34156109ac57600080fd5b6109b46118ff565b6040518082815260200191505060405180910390f35b34156109d557600080fd5b610a25600480803590602001908201803590602001908080601f01602080910402602001604051908101604052809392919081815260200183838082843782019150505050505091905050611905565b6040518080602001828103825283818151815260200191508051906020019080838360005b83811015610a65578082015181840152602081019050610a4a565b50505050905090810190601f168015610a925780820380516001836020036101000a031916815260200191505b509250505060405180910390f35b3415610aab57600080fd5b610ac16004808035906020019091905050611915565b604051808260ff1660ff16815260200191505060405180910390f35b60075481565b60006018603c8084811515610af457fe5b04811515610afe57fe5b04811515610b0857fe5b069050919050565b600d60009054906101000a900473ffffffffffffffffffffffffffffffffffffffff1681565b601460035411151515610b4857600080fd5b6001600360008282540192505081905550806001600060035481526020019081526020016000209080519060200190610b82929190611be2565b5050565b60035481565b610b94611c62565b600160008381526020019081526020016000208054600181600116156101000203166002900480601f016020809104026020016040519081016040528092919081815260200182805460018160011615610100020316600290048015610c3b5780601f10610c1057610100808354040283529160200191610c3b565b820191906000526020600020905b815481529060010190602001808311610c1e57829003601f168201915b50505050509050919050565b600080610c52611c76565b6107b291505b8761ffff168261ffff161015610c9b57610c718261123a565b15610c84576301e2850083019250610c8e565b6301e13380830192505b8180600101925050610c58565b601f816000600c81101515610cac57fe5b602002019060ff16908160ff1681525050610cc68861123a565b15610cf257601d816001600c81101515610cdc57fe5b602002019060ff16908160ff1681525050610d15565b601c816001600c81101515610d0357fe5b602002019060ff16908160ff16815250505b601f816002600c81101515610d2657fe5b602002019060ff16908160ff1681525050601e816003600c81101515610d4857fe5b602002019060ff16908160ff1681525050601f816004600c81101515610d6a57fe5b602002019060ff16908160ff1681525050601e816005600c81101515610d8c57fe5b602002019060ff16908160ff1681525050601f816006600c81101515610dae57fe5b602002019060ff16908160ff1681525050601f816007600c81101515610dd057fe5b602002019060ff16908160ff1681525050601e816008600c81101515610df257fe5b602002019060ff16908160ff1681525050601f816009600c81101515610e1457fe5b602002019060ff16908160ff1681525050601e81600a600c81101515610e3657fe5b602002019060ff16908160ff1681525050601f81600b600c81101515610e5857fe5b602002019060ff16908160ff1681525050600191505b8660ff168261ffff161015610eb057806001830361ffff16600c81101515610e9257fe5b602002015160ff166201518002830192508180600101925050610e6e565b6001860360ff166201518002830192508460ff16610e1002830192508360ff16603c0283019250600083019250829250505095945050505050565b6000610ef682611936565b604001519050919050565b600060055442111515610f1357600080fd5b6005544211905090565b60045481565b60095481565b600c60009054906101000a900473ffffffffffffffffffffffffffffffffffffffff1681565b610f57611c62565b60055442111515610f6757600080fd5b610f6f611aa3565b15610fb1576040805190810160405280600381526020017f74696500000000000000000000000000000000000000000000000000000000008152509050611062565b6001600060065481526020019081526020016000208054600181600116156101000203166002900480601f01602080910402602001604051908101604052809291908181526020018280546001816001161561010002031660029004801561105a5780601f1061102f5761010080835404028352916020019161105a565b820191906000526020600020905b81548152906001019060200180831161103d57829003601f168201915b505050505090505b90565b60065481565b600080600080600092506301e133808581151561108457fe5b046107b261ffff1601915061109e6107b261ffff166112bb565b6110ab8361ffff166112bb565b039050806301e285000283019250806107b2830361ffff16036301e1338002830192505b8483111561110b576110e36001830361123a565b156110f6576301e2850083039250611100565b6301e13380830392505b6001820391506110cf565b819350505050919050565b60006004544211151561112857600080fd5b6005544211151561113857600080fd5b600c60009054906101000a900473ffffffffffffffffffffffffffffffffffffffff1673ffffffffffffffffffffffffffffffffffffffff163373ffffffffffffffffffffffffffffffffffffffff1614151561119457600080fd5b600b548260ff16610e100261ffff16101515156111b057600080fd5b6111bd8787878787610c47565b90508060048190555081603c0260ff1681016005819055506111dd611b24565b87600a819055506000600381905550600060068190555060006007819055506008600081548092919060010191905055505050505050505050565b60055481565b600a5481565b600061122f82611936565b602001519050919050565b60008060048361ffff1681151561124d57fe5b0661ffff1614151561126257600090506112b6565b600060648361ffff1681151561127457fe5b0661ffff1614151561128957600190506112b6565b60006101908361ffff1681151561129c57fe5b0661ffff161415156112b157600090506112b6565b600190505b919050565b6000600182039150610190828115156112d057fe5b046064838115156112dd57fe5b046004848115156112ea57fe5b0403019050919050565b600060018360ff16148061130b575060038360ff16145b80611319575060058360ff16145b80611327575060078360ff16145b80611335575060088360ff16145b806113435750600a8360ff16145b806113515750600c8360ff16145b1561135f57601f90506113ba565b60048360ff161480611374575060068360ff16145b80611382575060098360ff16145b806113905750600b8360ff16145b1561139e57601e90506113ba565b6113a78261123a565b156113b557601d90506113ba565b601c90505b92915050565b6000600554421115156113d257600080fd5b600190505b6003548111151561145b5760008060065481526020019081526020016000205460008083815260200190815260200160002054141561141857806007819055505b60008060065481526020019081526020016000205460008083815260200190815260200160002054111561144e57806006819055505b80806001019150506113d7565b50565b6000617e904201905090565b6004544211151561147a57600080fd5b600954600a5411151561148c57600080fd5b61149581611b66565b1515156114a157600080fd5b6005544211156114b057611639565b600354821115156115cf5760016000808481526020019081526020016000206000828254019250508190555060016009600082825401925050819055506008546002826040518082805190602001908083835b6020831015156115285780518252602082019150602081019050602083039250611503565b6001836020036101000a0380198251168184511680821785525050505050509050019150509081526020016040518091039020600001819055507f0bb563d6789cea5d754d1b7f85bfebdfe7a1a86e2e0ffccfb8a6bbdb07826ae260405180806020018281038252600d8152602001807f566f746520636f756e7465642e0000000000000000000000000000000000000081525060200191505060405180910390a1611638565b7f0bb563d6789cea5d754d1b7f85bfebdfe7a1a86e2e0ffccfb8a6bbdb07826ae26040518080602001828103825260178152602001807f566f746520636f756c64206e6f7420626520726561642100000000000000000081525060200191505060405180910390a15b5b5050565b6000806000836040518082805190602001908083835b6020831015156116785780518252602082019150602081019050602083039250611653565b6001836020036101000a03801982511681845116808217855250505050505090500191505060405180910390209150600190505b60035481111515611756576001600082815260200190815260200160002060405180828054600181600116156101000203166002900480156117255780601f10611703576101008083540402835291820191611725565b820191906000526020600020905b815481529060010190602001808311611711575b5050915050604051809103902060001916826000191614156117495780925061175b565b80806001019150506116ac565b600092505b5050919050565b61176a611c62565b611772611c62565b6005544211151561178257600080fd5b61178a611aa3565b151561179557600080fd5b600160006006548152602001908152602001600020600160006007548152602001908152602001600020818054600181600116156101000203166002900480601f0160208091040260200160405190810160405280929190818152602001828054600181600116156101000203166002900480156118545780601f1061182957610100808354040283529160200191611854565b820191906000526020600020905b81548152906001019060200180831161183757829003601f168201915b50505050509150808054600181600116156101000203166002900480601f0160208091040260200160405190810160405280929190818152602001828054600181600116156101000203166002900480156118f05780601f106118c5576101008083540402835291602001916118f0565b820191906000526020600020905b8154815290600101906020018083116118d357829003601f168201915b50505050509050915091509091565b60085481565b61190d611c62565b819050919050565b6000603c808381151561192457fe5b0481151561192e57fe5b069050919050565b61193e611ca2565b600080600080600093506119518661106b565b856000019061ffff16908161ffff16815250506119736107b261ffff166112bb565b611984866000015161ffff166112bb565b039250826301e285000284019350826107b286600001510361ffff16036301e133800284019350600191505b600c8260ff16111515611a08576119cb8286600001516112f4565b60ff16620151800290508584820111156119f65781856020019060ff16908160ff1681525050611a08565b808401935081806001019250506119b0565b600191505b611a1f856020015186600001516112f4565b60ff168260ff16111515611a6657858462015180011115611a515781856040019060ff16908160ff1681525050611a66565b62015180840193508180600101925050611a0d565b611a6f86610ae3565b856060019060ff16908160ff1681525050611a8986611915565b856080019060ff16908160ff168152505050505050919050565b600060055442111515611ab557600080fd5b600080600754815260200190815260200160002054600080600654815260200190815260200160002054148015611af0575060075460065414155b8015611aff5750600060065414155b8015611b0e5750600060075414155b15611b1c5760019050611b21565b600090505b90565b6000600190505b60035481111515611b5b576000806000838152602001908152602001600020819055508080600101915050611b2b565b600060098190555050565b60006008546002836040518082805190602001908083835b602083101515611ba35780518252602082019150602081019050602083039250611b7e565b6001836020036101000a038019825116818451168082178552505050505050905001915050908152602001604051809103902060000154149050919050565b828054600181600116156101000203166002900490600052602060002090601f016020900481019282601f10611c2357805160ff1916838001178555611c51565b82800160010185558215611c51579182015b82811115611c50578251825591602001919060010190611c35565b5b509050611c5e9190611cf6565b5090565b602060405190810160405280600081525090565b61018060405190810160405280600c905b600060ff16815260200190600190039081611c875790505090565b60e060405190810160405280600061ffff168152602001600060ff168152602001600060ff168152602001600060ff168152602001600060ff168152602001600060ff168152602001600060ff1681525090565b611d1891905b80821115611d14576000816000905550600101611cfc565b5090565b905600a165627a7a723058202e7409b4ecd917a4b6878081fd1c09caa41a21ed4e6aab3dca81a362a7e8262e0029",
  "source": "pragma solidity ^0.4.7;\n\nimport \"./dateTime.sol\";\n\ncontract presidentElection is DateTime\n{\n    mapping(uint => uint) voteCount; \n    mapping(uint => string) candidate; \n    mapping(string => voter) voters;\n    uint public numCandidates;\n    uint public votePhaseStartTime;\n    uint public votePhaseEndTime;\n    uint public winnerIndex;\n    uint public tieIndex;\n    uint public electionID;\n    uint public totalVoteCount;\n    uint public maxVoteCount;\n    uint MIN_VOTE_TIME = 30;\n    address public owner;\n    address public voteManager;\n\n    struct voter\n    {\n        uint electionID;\n    }\n    \n    //Modifiers\n    modifier voteAlreadyStarted{ //   \n        require(now > votePhaseStartTime);\n        _;\n    }\n    modifier voteFinished {// \n        require(now > votePhaseEndTime);\n        _;\n    }\n    modifier ownerShip{// \n        require(msg.sender == owner);\n        _;\n    }\n    modifier voterShip{//  \n        require(msg.sender == voteManager);\n        _;\n    }\n\n    event logString(string);\n    event logInt(uint);\n    event voteWinner(string, string);\n\n    function presidentElection() { //  \n        owner = msg.sender;\n        voteManager = msg.sender;\n    }\n    \n    function isVoteFinished() constant public voteFinished returns(bool){\n        return (now > votePhaseEndTime);\n    }\n\n    function startVote(uint _maxVoteCount, uint16 _year, uint8 _month, uint8 _day, uint8 _hour,\n        uint8 _minute, uint8 _endHour) constant public voteAlreadyStarted voteFinished ownerShip\n    {\n        // \n        //  \n        require((3600*_endHour) >= MIN_VOTE_TIME);\n        uint timeStamp = toTimestamp(_year,_month,_day,_hour,_minute);\n        votePhaseStartTime = timeStamp;\n        votePhaseEndTime = timeStamp + (60*_endHour);\n        resetVoteCount();\n        maxVoteCount = _maxVoteCount;\n        numCandidates = 0;\n        winnerIndex = 0;\n        tieIndex = 0;\n        electionID++;\n    }\n\n    function resetVoteCount() private\n    {\n        // \n        for (uint i=1; i<=numCandidates; i++)\n        {\n            voteCount[i] = 0;\n        }\n        totalVoteCount =0;\n    }\n\n    function addCandidate(string _name) constant public\n    {\n        // \n        require(numCandidates <= 20);\n        numCandidates += 1;\n        candidate[numCandidates] = _name;\n    }\n\n    function castVote(uint _vote, string _voter) constant public voteAlreadyStarted\n    {\n        //\n        require(maxVoteCount > totalVoteCount);\n        require(!getHasVoted(_voter));\n        if (now > votePhaseEndTime) return;\n\n        // record the vote\n        if (_vote <= numCandidates) \n        {\n            voteCount[_vote] += 1;\n            totalVoteCount += 1;\n            voters[_voter].electionID = electionID;\n            logString(\"Vote counted.\");\n        }  \n        else \n        {\n            logString(\"Vote could not be read!\");\n        }\n    }\n\n    function countVotes() voteFinished constant public\n    {\n        // \n        for (uint i=1; i<= numCandidates; i++)\n        {\n            if (voteCount[i] == voteCount[winnerIndex]) tieIndex = i;\n            if (voteCount[i] > voteCount[winnerIndex]) winnerIndex = i;\n        }\n    }\n\n    function isTie() constant private voteFinished returns(bool)\n    {\n        // \n        if (voteCount[winnerIndex] == voteCount[tieIndex] \n            && winnerIndex != tieIndex\n            && winnerIndex != 0\n            && tieIndex != 0) return true;\n        return false;\n    }\n\n    function getWinner() voteFinished constant public returns(string) \n    {\n        //\n        if (isTie()) return \"tie\";\n        return candidate[winnerIndex];\n    }\n\n    function getTieWinner() voteFinished constant public returns(string, string)\n    {\n        // \n        require(isTie());\n        return (candidate[winnerIndex], candidate[tieIndex]);\n    }\n\n    function intToCandidate(uint _index) constant public returns(string) \n    {\n        //   \n        return candidate[_index];\n    }\n\n    function candidateToInt(string _name) constant public returns(uint)\n    {\n        //   \n        bytes32 nameHash = sha3(_name);\n        for (uint i=1; i<=numCandidates; i++)\n        {\n            if (nameHash == sha3(candidate[i]))\n                return i;\n        }\n        return 0;\n    }\n\n    function getHasVoted(string _voter) constant private returns(bool) \n    {\n        //  \n        return voters[_voter].electionID == electionID;\n    }\n\n     function test(string _name) constant public returns(string)\n    {\n        return _name;\n    }\n\n\n}\n",
  "sourcePath": "/Users/lucas/dev/js/blockchain_election/dapp_election/contracts/presidentElection.sol",
  "compiler": {
    "name": "solc",
    "version": "0.4.21+commit.dfe3193c.Emscripten.clang"
  },
  "schemaVersion": "2.0.0",
  "updatedAt": "2018-05-06T06:24:33.155Z"
}