{
  "contractName": "presidentElection",
  "abi": [
    {
      "constant": true,
      "inputs": [],
      "name": "tieIndex",
      "outputs": [
        {
          "name": "",
          "type": "uint256"
        }
      ],
      "payable": false,
      "stateMutability": "view",
      "type": "function"
    },
    {
      "constant": true,
      "inputs": [
        {
          "name": "timestamp",
          "type": "uint256"
        }
      ],
      "name": "getHour",
      "outputs": [
        {
          "name": "",
          "type": "uint8"
        }
      ],
      "payable": false,
      "stateMutability": "pure",
      "type": "function"
    },
    {
      "constant": true,
      "inputs": [],
      "name": "voteManager",
      "outputs": [
        {
          "name": "",
          "type": "address"
        }
      ],
      "payable": false,
      "stateMutability": "view",
      "type": "function"
    },
    {
      "constant": true,
      "inputs": [],
      "name": "numCandidates",
      "outputs": [
        {
          "name": "",
          "type": "uint256"
        }
      ],
      "payable": false,
      "stateMutability": "view",
      "type": "function"
    },
    {
      "constant": true,
      "inputs": [
        {
          "name": "year",
          "type": "uint16"
        },
        {
          "name": "month",
          "type": "uint8"
        },
        {
          "name": "day",
          "type": "uint8"
        },
        {
          "name": "hour",
          "type": "uint8"
        },
        {
          "name": "minute",
          "type": "uint8"
        }
      ],
      "name": "toTimestamp",
      "outputs": [
        {
          "name": "timestamp",
          "type": "uint256"
        }
      ],
      "payable": false,
      "stateMutability": "pure",
      "type": "function"
    },
    {
      "constant": true,
      "inputs": [
        {
          "name": "timestamp",
          "type": "uint256"
        }
      ],
      "name": "getDay",
      "outputs": [
        {
          "name": "",
          "type": "uint8"
        }
      ],
      "payable": false,
      "stateMutability": "pure",
      "type": "function"
    },
    {
      "constant": true,
      "inputs": [],
      "name": "votePhaseStartTime",
      "outputs": [
        {
          "name": "",
          "type": "uint256"
        }
      ],
      "payable": false,
      "stateMutability": "view",
      "type": "function"
    },
    {
      "constant": true,
      "inputs": [],
      "name": "totalVoteCount",
      "outputs": [
        {
          "name": "",
          "type": "uint256"
        }
      ],
      "payable": false,
      "stateMutability": "view",
      "type": "function"
    },
    {
      "constant": true,
      "inputs": [],
      "name": "owner",
      "outputs": [
        {
          "name": "",
          "type": "address"
        }
      ],
      "payable": false,
      "stateMutability": "view",
      "type": "function"
    },
    {
      "constant": true,
      "inputs": [],
      "name": "winnerIndex",
      "outputs": [
        {
          "name": "",
          "type": "uint256"
        }
      ],
      "payable": false,
      "stateMutability": "view",
      "type": "function"
    },
    {
      "constant": true,
      "inputs": [
        {
          "name": "timestamp",
          "type": "uint256"
        }
      ],
      "name": "getYear",
      "outputs": [
        {
          "name": "",
          "type": "uint16"
        }
      ],
      "payable": false,
      "stateMutability": "pure",
      "type": "function"
    },
    {
      "constant": true,
      "inputs": [],
      "name": "votePhaseEndTime",
      "outputs": [
        {
          "name": "",
          "type": "uint256"
        }
      ],
      "payable": false,
      "stateMutability": "view",
      "type": "function"
    },
    {
      "constant": true,
      "inputs": [],
      "name": "maxVoteCount",
      "outputs": [
        {
          "name": "",
          "type": "uint256"
        }
      ],
      "payable": false,
      "stateMutability": "view",
      "type": "function"
    },
    {
      "constant": true,
      "inputs": [
        {
          "name": "timestamp",
          "type": "uint256"
        }
      ],
      "name": "getMonth",
      "outputs": [
        {
          "name": "",
          "type": "uint8"
        }
      ],
      "payable": false,
      "stateMutability": "pure",
      "type": "function"
    },
    {
      "constant": true,
      "inputs": [
        {
          "name": "year",
          "type": "uint16"
        }
      ],
      "name": "isLeapYear",
      "outputs": [
        {
          "name": "",
          "type": "bool"
        }
      ],
      "payable": false,
      "stateMutability": "pure",
      "type": "function"
    },
    {
      "constant": true,
      "inputs": [
        {
          "name": "year",
          "type": "uint256"
        }
      ],
      "name": "leapYearsBefore",
      "outputs": [
        {
          "name": "",
          "type": "uint256"
        }
      ],
      "payable": false,
      "stateMutability": "pure",
      "type": "function"
    },
    {
      "constant": true,
      "inputs": [
        {
          "name": "month",
          "type": "uint8"
        },
        {
          "name": "year",
          "type": "uint16"
        }
      ],
      "name": "getDaysInMonth",
      "outputs": [
        {
          "name": "",
          "type": "uint8"
        }
      ],
      "payable": false,
      "stateMutability": "pure",
      "type": "function"
    },
    {
      "constant": false,
      "inputs": [],
      "name": "getNow",
      "outputs": [
        {
          "name": "",
          "type": "uint256"
        }
      ],
      "payable": false,
      "stateMutability": "nonpayable",
      "type": "function"
    },
    {
      "constant": true,
      "inputs": [],
      "name": "setTime",
      "outputs": [
        {
          "name": "",
          "type": "bool"
        }
      ],
      "payable": false,
      "stateMutability": "view",
      "type": "function"
    },
    {
      "constant": true,
      "inputs": [
        {
          "name": "timestamp",
          "type": "uint256"
        }
      ],
      "name": "getMinute",
      "outputs": [
        {
          "name": "",
          "type": "uint8"
        }
      ],
      "payable": false,
      "stateMutability": "pure",
      "type": "function"
    },
    {
      "inputs": [],
      "payable": false,
      "stateMutability": "nonpayable",
      "type": "constructor"
    },
    {
      "anonymous": false,
      "inputs": [
        {
          "indexed": false,
          "name": "",
          "type": "string"
        }
      ],
      "name": "logString",
      "type": "event"
    },
    {
      "anonymous": false,
      "inputs": [
        {
          "indexed": false,
          "name": "",
          "type": "uint256"
        }
      ],
      "name": "logInt",
      "type": "event"
    },
    {
      "anonymous": false,
      "inputs": [
        {
          "indexed": false,
          "name": "",
          "type": "string"
        },
        {
          "indexed": false,
          "name": "",
          "type": "string"
        }
      ],
      "name": "voteWinner",
      "type": "event"
    },
    {
      "constant": false,
      "inputs": [
        {
          "name": "_year",
          "type": "uint16"
        },
        {
          "name": "_month",
          "type": "uint8"
        },
        {
          "name": "_day",
          "type": "uint8"
        },
        {
          "name": "_hour",
          "type": "uint8"
        },
        {
          "name": "_minute",
          "type": "uint8"
        }
      ],
      "name": "setTimeStamp",
      "outputs": [],
      "payable": false,
      "stateMutability": "nonpayable",
      "type": "function"
    },
    {
      "constant": false,
      "inputs": [
        {
          "name": "_maxVoteCount",
          "type": "uint256"
        },
        {
          "name": "_endHour",
          "type": "uint256"
        }
      ],
      "name": "startVote",
      "outputs": [],
      "payable": false,
      "stateMutability": "nonpayable",
      "type": "function"
    },
    {
      "constant": false,
      "inputs": [
        {
          "name": "_name",
          "type": "string"
        }
      ],
      "name": "addCandidate",
      "outputs": [],
      "payable": false,
      "stateMutability": "nonpayable",
      "type": "function"
    },
    {
      "constant": false,
      "inputs": [],
      "name": "castVote",
      "outputs": [],
      "payable": false,
      "stateMutability": "nonpayable",
      "type": "function"
    },
    {
      "constant": false,
      "inputs": [],
      "name": "countVotes",
      "outputs": [],
      "payable": false,
      "stateMutability": "nonpayable",
      "type": "function"
    },
    {
      "constant": true,
      "inputs": [],
      "name": "getWinner",
      "outputs": [
        {
          "name": "",
          "type": "string"
        }
      ],
      "payable": false,
      "stateMutability": "view",
      "type": "function"
    },
    {
      "constant": true,
      "inputs": [],
      "name": "getTieWinner",
      "outputs": [
        {
          "name": "",
          "type": "string"
        },
        {
          "name": "",
          "type": "string"
        }
      ],
      "payable": false,
      "stateMutability": "view",
      "type": "function"
    },
    {
      "constant": true,
      "inputs": [
        {
          "name": "_index",
          "type": "uint256"
        }
      ],
      "name": "intToCandidate",
      "outputs": [
        {
          "name": "",
          "type": "string"
        }
      ],
      "payable": false,
      "stateMutability": "view",
      "type": "function"
    },
    {
      "constant": true,
      "inputs": [
        {
          "name": "_name",
          "type": "string"
        }
      ],
      "name": "candidateToInt",
      "outputs": [
        {
          "name": "",
          "type": "uint256"
        }
      ],
      "payable": false,
      "stateMutability": "view",
      "type": "function"
    },
    {
      "constant": false,
      "inputs": [],
      "name": "test",
      "outputs": [
        {
          "name": "",
          "type": "uint256"
        }
      ],
      "payable": false,
      "stateMutability": "nonpayable",
      "type": "function"
    }
  ],
  "bytecode": "0x6060604052601e600a55341561001457600080fd5b33600b60006101000a81548173ffffffffffffffffffffffffffffffffffffffff021916908373ffffffffffffffffffffffffffffffffffffffff16021790555033600c60006101000a81548173ffffffffffffffffffffffffffffffffffffffff021916908373ffffffffffffffffffffffffffffffffffffffff1602179055506000600960006101000a81548160ff021916908315150217905550611b49806100c06000396000f300606060405260043610610180576000357c0100000000000000000000000000000000000000000000000000000000900463ffffffff1680630fb524ce146101855780631d9f43431461019a57806328d9e6fa146101c65780633e239e1a146101ef57806342c1e5871461022c578063462e91ec146102815780635216509a146102de5780635fce2e161461030757806362ba9687146103a357806365c728401461040e5780637266eb5b1461044b578063893d8f4c146104745780638da5cb5b1461049d5780638e7ea5b2146104f25780638f00cbfa1461058057806392d66313146105a95780639877ea47146105e85780639f62568d14610611578063a324ad241461063a578063a6f0e57714610677578063b09b59ac146106b6578063b19999371461070d578063b238ad0e14610744578063b647990a14610791578063bbe4fd50146107a6578063d9276a49146107cf578063db709302146107fc578063e254fb5c1461086d578063f8a8fd6d14610967578063fa93f88314610990575b600080fd5b341561019057600080fd5b6101986109cd565b005b34156101a557600080fd5b6101c46004808035906020019091908035906020019091905050610a4a565b005b34156101d157600080fd5b6101d9610b5a565b6040518082815260200191505060405180910390f35b34156101fa57600080fd5b6102106004808035906020019091905050610b60565b604051808260ff1660ff16815260200191505060405180910390f35b341561023757600080fd5b61023f610b8d565b604051808273ffffffffffffffffffffffffffffffffffffffff1673ffffffffffffffffffffffffffffffffffffffff16815260200191505060405180910390f35b341561028c57600080fd5b6102dc600480803590602001908201803590602001908080601f01602080910402602001604051908101604052809392919081815260200183838082843782019150505050505091905050610bb3565b005b34156102e957600080fd5b6102f1610c03565b6040518082815260200191505060405180910390f35b341561031257600080fd5b6103286004808035906020019091905050610c09565b6040518080602001828103825283818151815260200191508051906020019080838360005b8381101561036857808201518184015260208101905061034d565b50505050905090810190601f1680156103955780820380516001836020036101000a031916815260200191505b509250505060405180910390f35b34156103ae57600080fd5b6103f8600480803561ffff1690602001909190803560ff1690602001909190803560ff1690602001909190803560ff1690602001909190803560ff16906020019091905050610cc4565b6040518082815260200191505060405180910390f35b341561041957600080fd5b61042f6004808035906020019091905050610f68565b604051808260ff1660ff16815260200191505060405180910390f35b341561045657600080fd5b61045e610f7e565b6040518082815260200191505060405180910390f35b341561047f57600080fd5b610487610f84565b6040518082815260200191505060405180910390f35b34156104a857600080fd5b6104b0610f8a565b604051808273ffffffffffffffffffffffffffffffffffffffff1673ffffffffffffffffffffffffffffffffffffffff16815260200191505060405180910390f35b34156104fd57600080fd5b610505610fb0565b6040518080602001828103825283818151815260200191508051906020019080838360005b8381101561054557808201518184015260208101905061052a565b50505050905090810190601f1680156105725780820380516001836020036101000a031916815260200191505b509250505060405180910390f35b341561058b57600080fd5b6105936110ca565b6040518082815260200191505060405180910390f35b34156105b457600080fd5b6105ca60048080359060200190919050506110d0565b604051808261ffff1661ffff16815260200191505060405180910390f35b34156105f357600080fd5b6105fb61117b565b6040518082815260200191505060405180910390f35b341561061c57600080fd5b610624611181565b6040518082815260200191505060405180910390f35b341561064557600080fd5b61065b6004808035906020019091905050611187565b604051808260ff1660ff16815260200191505060405180910390f35b341561068257600080fd5b61069c600480803561ffff1690602001909190505061119d565b604051808215151515815260200191505060405180910390f35b34156106c157600080fd5b61070b600480803561ffff1690602001909190803560ff1690602001909190803560ff1690602001909190803560ff1690602001909190803560ff1690602001909190505061121e565b005b341561071857600080fd5b61072e60048080359060200190919050506112f9565b6040518082815260200191505060405180910390f35b341561074f57600080fd5b610775600480803560ff1690602001909190803561ffff16906020019091905050611332565b604051808260ff1660ff16815260200191505060405180910390f35b341561079c57600080fd5b6107a46113fe565b005b34156107b157600080fd5b6107b96114a0565b6040518082815260200191505060405180910390f35b34156107da57600080fd5b6107e26114ac565b604051808215151515815260200191505060405180910390f35b341561080757600080fd5b610857600480803590602001908201803590602001908080601f016020809104026020016040519081016040528093929190818152602001838380828437820191505050505050919050506114bf565b6040518082815260200191505060405180910390f35b341561087857600080fd5b6108806115e4565b604051808060200180602001838103835285818151815260200191508051906020019080838360005b838110156108c45780820151818401526020810190506108a9565b50505050905090810190601f1680156108f15780820380516001836020036101000a031916815260200191505b50838103825284818151815260200191508051906020019080838360005b8381101561092a57808201518184015260208101905061090f565b50505050905090810190601f1680156109575780820380516001836020036101000a031916815260200191505b5094505050505060405180910390f35b341561097257600080fd5b61097a611785565b6040518082815260200191505060405180910390f35b341561099b57600080fd5b6109b1600480803590602001909190505061178f565b604051808260ff1660ff16815260200191505060405180910390f35b600354617e9042011115156109e157600080fd5b6007546008541115156109f357600080fd5b600454421115610a0257610a48565b6002546001111515610a4657600160008060018152602001908152602001600020600082825401925050819055506001600760008282540192505081905550610a47565b5b5b565b60011515600960009054906101000a900460ff161515141515610a6c57600080fd5b600354617e904201111515610a8057600080fd5b600454617e904201111515610a9457600080fd5b3373ffffffffffffffffffffffffffffffffffffffff16600b60009054906101000a900473ffffffffffffffffffffffffffffffffffffffff1673ffffffffffffffffffffffffffffffffffffffff16141515610af057600080fd5b600a5481610e100210151515610b0557600080fd5b80610e100260035401600481905550610b1c6117b0565b816008819055506000600281905550600060058190555060006006819055506000600960006101000a81548160ff0219169083151502179055505050565b60065481565b60006018603c8084811515610b7157fe5b04811515610b7b57fe5b04811515610b8557fe5b069050919050565b600c60009054906101000a900473ffffffffffffffffffffffffffffffffffffffff1681565b600960025411151515610bc557600080fd5b6001600260008282540192505081905550806001600060025481526020019081526020016000209080519060200190610bff9291906119e4565b5050565b60025481565b610c11611a64565b600160008381526020019081526020016000208054600181600116156101000203166002900480601f016020809104026020016040519081016040528092919081815260200182805460018160011615610100020316600290048015610cb85780601f10610c8d57610100808354040283529160200191610cb8565b820191906000526020600020905b815481529060010190602001808311610c9b57829003601f168201915b50505050509050919050565b600080610ccf611a78565b6107b291505b8761ffff168261ffff161015610d1857610cee8261119d565b15610d01576301e2850083019250610d0b565b6301e13380830192505b8180600101925050610cd5565b601f816000600c81101515610d2957fe5b602002019060ff16908160ff1681525050610d438861119d565b15610d6f57601d816001600c81101515610d5957fe5b602002019060ff16908160ff1681525050610d92565b601c816001600c81101515610d8057fe5b602002019060ff16908160ff16815250505b601f816002600c81101515610da357fe5b602002019060ff16908160ff1681525050601e816003600c81101515610dc557fe5b602002019060ff16908160ff1681525050601f816004600c81101515610de757fe5b602002019060ff16908160ff1681525050601e816005600c81101515610e0957fe5b602002019060ff16908160ff1681525050601f816006600c81101515610e2b57fe5b602002019060ff16908160ff1681525050601f816007600c81101515610e4d57fe5b602002019060ff16908160ff1681525050601e816008600c81101515610e6f57fe5b602002019060ff16908160ff1681525050601f816009600c81101515610e9157fe5b602002019060ff16908160ff1681525050601e81600a600c81101515610eb357fe5b602002019060ff16908160ff1681525050601f81600b600c81101515610ed557fe5b602002019060ff16908160ff1681525050600191505b8660ff168261ffff161015610f2d57806001830361ffff16600c81101515610f0f57fe5b602002015160ff166201518002830192508180600101925050610eeb565b6001860360ff166201518002830192508460ff16610e1002830192508360ff16603c0283019250600083019250829250505095945050505050565b6000610f73826117f2565b604001519050919050565b60035481565b60075481565b600b60009054906101000a900473ffffffffffffffffffffffffffffffffffffffff1681565b610fb8611a64565b600454617e904201111515610fcc57600080fd5b610fd461195f565b15611016576040805190810160405280600381526020017f746965000000000000000000000000000000000000000000000000000000000081525090506110c7565b6001600060055481526020019081526020016000208054600181600116156101000203166002900480601f0160208091040260200160405190810160405280929190818152602001828054600181600116156101000203166002900480156110bf5780601f10611094576101008083540402835291602001916110bf565b820191906000526020600020905b8154815290600101906020018083116110a257829003601f168201915b505050505090505b90565b60055481565b600080600080600092506301e13380858115156110e957fe5b046107b261ffff160191506111036107b261ffff166112f9565b6111108361ffff166112f9565b039050806301e285000283019250806107b2830361ffff16036301e1338002830192505b84831115611170576111486001830361119d565b1561115b576301e2850083039250611165565b6301e13380830392505b600182039150611134565b819350505050919050565b60045481565b60085481565b6000611192826117f2565b602001519050919050565b60008060048361ffff168115156111b057fe5b0661ffff161415156111c55760009050611219565b600060648361ffff168115156111d757fe5b0661ffff161415156111ec5760019050611219565b60006101908361ffff168115156111ff57fe5b0661ffff161415156112145760009050611219565b600190505b919050565b60001515600960009054906101000a900460ff16151514151561124057600080fd5b600354617e90420111151561125457600080fd5b600454617e90420111151561126857600080fd5b3373ffffffffffffffffffffffffffffffffffffffff16600b60009054906101000a900473ffffffffffffffffffffffffffffffffffffffff1673ffffffffffffffffffffffffffffffffffffffff161415156112c457600080fd5b6001600960006101000a81548160ff0219169083151502179055506112ec8585858585610cc4565b6003819055505050505050565b60006001820391506101908281151561130e57fe5b0460648381151561131b57fe5b0460048481151561132857fe5b0403019050919050565b600060018360ff161480611349575060038360ff16145b80611357575060058360ff16145b80611365575060078360ff16145b80611373575060088360ff16145b806113815750600a8360ff16145b8061138f5750600c8360ff16145b1561139d57601f90506113f8565b60048360ff1614806113b2575060068360ff16145b806113c0575060098360ff16145b806113ce5750600b8360ff16145b156113dc57601e90506113f8565b6113e58261119d565b156113f357601d90506113f8565b601c90505b92915050565b6000600454617e90420111151561141457600080fd5b600190505b6002548111151561149d5760008060055481526020019081526020016000205460008083815260200190815260200160002054141561145a57806006819055505b60008060055481526020019081526020016000205460008083815260200190815260200160002054111561149057806005819055505b8080600101915050611419565b50565b6000617e904201905090565b600960009054906101000a900460ff1681565b6000806000836040518082805190602001908083835b6020831015156114fa57805182526020820191506020810190506020830392506114d5565b6001836020036101000a03801982511681845116808217855250505050505090500191505060405180910390209150600190505b600254811115156115d8576001600082815260200190815260200160002060405180828054600181600116156101000203166002900480156115a75780601f106115855761010080835404028352918201916115a7565b820191906000526020600020905b815481529060010190602001808311611593575b5050915050604051809103902060001916826000191614156115cb578092506115dd565b808060010191505061152e565b600092505b5050919050565b6115ec611a64565b6115f4611a64565b600454617e90420111151561160857600080fd5b61161061195f565b151561161b57600080fd5b600160006005548152602001908152602001600020600160006006548152602001908152602001600020818054600181600116156101000203166002900480601f0160208091040260200160405190810160405280929190818152602001828054600181600116156101000203166002900480156116da5780601f106116af576101008083540402835291602001916116da565b820191906000526020600020905b8154815290600101906020018083116116bd57829003601f168201915b50505050509150808054600181600116156101000203166002900480601f0160208091040260200160405190810160405280929190818152602001828054600181600116156101000203166002900480156117765780601f1061174b57610100808354040283529160200191611776565b820191906000526020600020905b81548152906001019060200180831161175957829003601f168201915b50505050509050915091509091565b6000600854905090565b6000603c808381151561179e57fe5b048115156117a857fe5b069050919050565b6000600190505b600254811115156117e75760008060008381526020019081526020016000208190555080806001019150506117b7565b600060078190555050565b6117fa611aa4565b6000806000806000935061180d866110d0565b856000019061ffff16908161ffff168152505061182f6107b261ffff166112f9565b611840866000015161ffff166112f9565b039250826301e285000284019350826107b286600001510361ffff16036301e133800284019350600191505b600c8260ff161115156118c457611887828660000151611332565b60ff16620151800290508584820111156118b25781856020019060ff16908160ff16815250506118c4565b8084019350818060010192505061186c565b600191505b6118db85602001518660000151611332565b60ff168260ff161115156119225785846201518001111561190d5781856040019060ff16908160ff1681525050611922565b620151808401935081806001019250506118c9565b61192b86610b60565b856060019060ff16908160ff16815250506119458661178f565b856080019060ff16908160ff168152505050505050919050565b6000600454617e90420111151561197557600080fd5b6000806006548152602001908152602001600020546000806005548152602001908152602001600020541480156119b0575060065460055414155b80156119bf5750600060055414155b80156119ce5750600060065414155b156119dc57600190506119e1565b600090505b90565b828054600181600116156101000203166002900490600052602060002090601f016020900481019282601f10611a2557805160ff1916838001178555611a53565b82800160010185558215611a53579182015b82811115611a52578251825591602001919060010190611a37565b5b509050611a609190611af8565b5090565b602060405190810160405280600081525090565b61018060405190810160405280600c905b600060ff16815260200190600190039081611a895790505090565b60e060405190810160405280600061ffff168152602001600060ff168152602001600060ff168152602001600060ff168152602001600060ff168152602001600060ff168152602001600060ff1681525090565b611b1a91905b80821115611b16576000816000905550600101611afe565b5090565b905600a165627a7a7230582014c46f2ae5a740616289428fb84caf8cf13d4010461014c7ea0e52818e9716cb0029",
  "source": "pragma solidity ^0.4.7;\r\n\r\nimport \"./dateTime.sol\";\r\n\r\ncontract presidentElection is dateTime\r\n{\r\n    mapping(uint => uint) voteCount; \r\n    mapping(uint => string) candidate; \r\n    //mapping(string => voter) voters;\r\n    uint public numCandidates;\r\n    uint public votePhaseStartTime;\r\n    uint public votePhaseEndTime;\r\n    uint public winnerIndex;\r\n    uint public tieIndex;\r\n    //uint public electionID;\r\n    uint public totalVoteCount;\r\n    uint public maxVoteCount;\r\n    bool public setTime;\r\n    uint MIN_VOTE_TIME = 30;\r\n    address public owner;\r\n    address public voteManager;\r\n\r\n    /*struct voter\r\n    {\r\n        uint electionID;\r\n    }*/\r\n    \r\n    //Modifiers\r\n    modifier voteAlreadyStarted{ //   \r\n        require((now+3600*9) > votePhaseStartTime);\r\n        _;\r\n    }\r\n    modifier voteFinished {// \r\n        require((now+3600*9) > votePhaseEndTime);\r\n        _;\r\n    }\r\n    modifier ownerShip{// \r\n        require(owner == msg.sender);\r\n        _;\r\n    }\r\n    modifier setTimeModi{\r\n        require(setTime == false);\r\n        _;\r\n    }\r\n    modifier alreadySetTimeModi{\r\n        require(setTime == true);\r\n        _;\r\n    }\r\n    modifier voterShip{//  \r\n        require(voteManager == msg.sender);\r\n        _;\r\n    }\r\n\r\n    event logString(string);\r\n    event logInt(uint);\r\n    event voteWinner(string, string);\r\n\r\n    function presidentElection() public { //  \r\n        owner = msg.sender;\r\n        voteManager = msg.sender;\r\n        setTime=false;\r\n    }\r\n    \r\n    function setTimeStamp(uint16 _year, uint8 _month, uint8 _day, uint8 _hour,\r\n        uint8 _minute) setTimeModi voteAlreadyStarted voteFinished ownerShip public\r\n    {\r\n        setTime = true;\r\n        votePhaseStartTime = toTimestamp(_year,_month,_day,_hour,_minute);\r\n    }\r\n    \r\n\r\n    function startVote(uint _maxVoteCount, uint _endHour) alreadySetTimeModi voteAlreadyStarted\r\n        voteFinished ownerShip public\r\n    {\r\n        // \r\n        //  \r\n        require((3600*_endHour) >= MIN_VOTE_TIME);\r\n        votePhaseEndTime = votePhaseStartTime + (3600*_endHour);\r\n        resetVoteCount();\r\n        maxVoteCount = _maxVoteCount;\r\n        numCandidates = 0;\r\n        winnerIndex = 0;\r\n        tieIndex = 0;\r\n        setTime = false;\r\n        //electionID++;\r\n    }\r\n\r\n    function resetVoteCount() private\r\n    {\r\n        // \r\n        for (uint i=1; i<=numCandidates; i++)\r\n        {\r\n            voteCount[i] = 0;\r\n        }\r\n        totalVoteCount =0;\r\n    }\r\n\r\n    function addCandidate(string _name)  public\r\n    {\r\n        // \r\n        require(numCandidates <= 9);\r\n        numCandidates += 1;\r\n        candidate[numCandidates] = _name;\r\n    }\r\n\r\n    function castVote() voteAlreadyStarted public\r\n    {\r\n        //\r\n        require(maxVoteCount > totalVoteCount);\r\n        ////require(!getHasVoted(_voter));\r\n        if (now > votePhaseEndTime) return;\r\n\r\n        // record the vote\r\n        if (1 <= numCandidates) \r\n        {\r\n            voteCount[1] += 1;\r\n            totalVoteCount += 1;\r\n            ////voters[_voter].electionID = electionID;\r\n            // logString(\"Vote counted.\");\r\n        }  \r\n        else \r\n        {\r\n            // logString(\"Vote could not be read!\");\r\n        }\r\n    }\r\n\r\n    function countVotes() voteFinished public\r\n    {\r\n        // \r\n        for (uint i=1; i<= numCandidates; i++)\r\n        {\r\n            if (voteCount[i] == voteCount[winnerIndex]) tieIndex = i;\r\n            if (voteCount[i] > voteCount[winnerIndex]) winnerIndex = i;\r\n        }\r\n    }\r\n\r\n    function isTie() constant private voteFinished returns(bool)\r\n    {\r\n        // \r\n        if (voteCount[winnerIndex] == voteCount[tieIndex] \r\n            && winnerIndex != tieIndex\r\n            && winnerIndex != 0\r\n            && tieIndex != 0) return true;\r\n        return false;\r\n    }\r\n\r\n    function getWinner() voteFinished constant public returns(string) \r\n    {\r\n        //\r\n        if (isTie()) return \"tie\";\r\n        return candidate[winnerIndex];\r\n    }\r\n\r\n    function getTieWinner() voteFinished constant public returns(string, string)\r\n    {\r\n        // \r\n        require(isTie());\r\n        return (candidate[winnerIndex], candidate[tieIndex]);\r\n    }\r\n\r\n    function intToCandidate(uint _index) constant public returns(string) \r\n    {\r\n        //   \r\n        return candidate[_index];\r\n    }\r\n\r\n    function candidateToInt(string _name) constant public returns(uint)\r\n    {\r\n        //   \r\n        bytes32 nameHash = sha3(_name);\r\n        for (uint i=1; i<=numCandidates; i++)\r\n        {\r\n            if (nameHash == sha3(candidate[i]))\r\n                return i;\r\n        }\r\n        return 0;\r\n    }\r\n\r\n    function test() public returns(uint){\r\n        return maxVoteCount;\r\n    }\r\n\r\n}\r\n",
  "sourcePath": "/mnt/c/Users/USER/Documents/blockchain_election/dapp_election/contracts/presidentElection.sol",
  "compiler": {
    "name": "solc",
    "version": "0.4.19+commit.c4cbbb05.Emscripten.clang"
  },
  "schemaVersion": "2.0.0",
  "updatedAt": "2018-05-17T08:13:42.798Z"
}