{
  "contractName": "presidentElection",
  "abi": [
    {
      "constant": true,
      "inputs": [],
      "name": "tieIndex",
      "outputs": [
        {
          "name": "",
          "type": "uint256"
        }
      ],
      "payable": false,
      "stateMutability": "view",
      "type": "function"
    },
    {
      "constant": true,
      "inputs": [
        {
          "name": "timestamp",
          "type": "uint256"
        }
      ],
      "name": "getHour",
      "outputs": [
        {
          "name": "",
          "type": "uint8"
        }
      ],
      "payable": false,
      "stateMutability": "pure",
      "type": "function"
    },
    {
      "constant": true,
      "inputs": [],
      "name": "voteManager",
      "outputs": [
        {
          "name": "",
          "type": "address"
        }
      ],
      "payable": false,
      "stateMutability": "view",
      "type": "function"
    },
    {
      "constant": true,
      "inputs": [],
      "name": "numCandidates",
      "outputs": [
        {
          "name": "",
          "type": "uint256"
        }
      ],
      "payable": false,
      "stateMutability": "view",
      "type": "function"
    },
    {
      "constant": true,
      "inputs": [
        {
          "name": "year",
          "type": "uint16"
        },
        {
          "name": "month",
          "type": "uint8"
        },
        {
          "name": "day",
          "type": "uint8"
        },
        {
          "name": "hour",
          "type": "uint8"
        },
        {
          "name": "minute",
          "type": "uint8"
        }
      ],
      "name": "toTimestamp",
      "outputs": [
        {
          "name": "timestamp",
          "type": "uint256"
        }
      ],
      "payable": false,
      "stateMutability": "pure",
      "type": "function"
    },
    {
      "constant": true,
      "inputs": [
        {
          "name": "timestamp",
          "type": "uint256"
        }
      ],
      "name": "getDay",
      "outputs": [
        {
          "name": "",
          "type": "uint8"
        }
      ],
      "payable": false,
      "stateMutability": "pure",
      "type": "function"
    },
    {
      "constant": true,
      "inputs": [],
      "name": "votePhaseStartTime",
      "outputs": [
        {
          "name": "",
          "type": "uint256"
        }
      ],
      "payable": false,
      "stateMutability": "view",
      "type": "function"
    },
    {
      "constant": true,
      "inputs": [],
      "name": "totalVoteCount",
      "outputs": [
        {
          "name": "",
          "type": "uint256"
        }
      ],
      "payable": false,
      "stateMutability": "view",
      "type": "function"
    },
    {
      "constant": true,
      "inputs": [],
      "name": "owner",
      "outputs": [
        {
          "name": "",
          "type": "address"
        }
      ],
      "payable": false,
      "stateMutability": "view",
      "type": "function"
    },
    {
      "constant": true,
      "inputs": [],
      "name": "winnerIndex",
      "outputs": [
        {
          "name": "",
          "type": "uint256"
        }
      ],
      "payable": false,
      "stateMutability": "view",
      "type": "function"
    },
    {
      "constant": true,
      "inputs": [
        {
          "name": "timestamp",
          "type": "uint256"
        }
      ],
      "name": "getYear",
      "outputs": [
        {
          "name": "",
          "type": "uint16"
        }
      ],
      "payable": false,
      "stateMutability": "pure",
      "type": "function"
    },
    {
      "constant": true,
      "inputs": [],
      "name": "votePhaseEndTime",
      "outputs": [
        {
          "name": "",
          "type": "uint256"
        }
      ],
      "payable": false,
      "stateMutability": "view",
      "type": "function"
    },
    {
      "constant": true,
      "inputs": [],
      "name": "maxVoteCount",
      "outputs": [
        {
          "name": "",
          "type": "uint256"
        }
      ],
      "payable": false,
      "stateMutability": "view",
      "type": "function"
    },
    {
      "constant": true,
      "inputs": [
        {
          "name": "timestamp",
          "type": "uint256"
        }
      ],
      "name": "getMonth",
      "outputs": [
        {
          "name": "",
          "type": "uint8"
        }
      ],
      "payable": false,
      "stateMutability": "pure",
      "type": "function"
    },
    {
      "constant": true,
      "inputs": [
        {
          "name": "year",
          "type": "uint16"
        }
      ],
      "name": "isLeapYear",
      "outputs": [
        {
          "name": "",
          "type": "bool"
        }
      ],
      "payable": false,
      "stateMutability": "pure",
      "type": "function"
    },
    {
      "constant": true,
      "inputs": [
        {
          "name": "year",
          "type": "uint256"
        }
      ],
      "name": "leapYearsBefore",
      "outputs": [
        {
          "name": "",
          "type": "uint256"
        }
      ],
      "payable": false,
      "stateMutability": "pure",
      "type": "function"
    },
    {
      "constant": true,
      "inputs": [
        {
          "name": "month",
          "type": "uint8"
        },
        {
          "name": "year",
          "type": "uint16"
        }
      ],
      "name": "getDaysInMonth",
      "outputs": [
        {
          "name": "",
          "type": "uint8"
        }
      ],
      "payable": false,
      "stateMutability": "pure",
      "type": "function"
    },
    {
      "constant": false,
      "inputs": [],
      "name": "getNow",
      "outputs": [
        {
          "name": "",
          "type": "uint256"
        }
      ],
      "payable": false,
      "stateMutability": "nonpayable",
      "type": "function"
    },
    {
      "constant": true,
      "inputs": [],
      "name": "electionID",
      "outputs": [
        {
          "name": "",
          "type": "uint256"
        }
      ],
      "payable": false,
      "stateMutability": "view",
      "type": "function"
    },
    {
      "constant": true,
      "inputs": [
        {
          "name": "timestamp",
          "type": "uint256"
        }
      ],
      "name": "getMinute",
      "outputs": [
        {
          "name": "",
          "type": "uint8"
        }
      ],
      "payable": false,
      "stateMutability": "pure",
      "type": "function"
    },
    {
      "inputs": [],
      "payable": false,
      "stateMutability": "nonpayable",
      "type": "constructor"
    },
    {
      "anonymous": false,
      "inputs": [
        {
          "indexed": false,
          "name": "",
          "type": "string"
        }
      ],
      "name": "logString",
      "type": "event"
    },
    {
      "anonymous": false,
      "inputs": [
        {
          "indexed": false,
          "name": "",
          "type": "uint256"
        }
      ],
      "name": "logInt",
      "type": "event"
    },
    {
      "anonymous": false,
      "inputs": [
        {
          "indexed": false,
          "name": "",
          "type": "string"
        },
        {
          "indexed": false,
          "name": "",
          "type": "string"
        }
      ],
      "name": "voteWinner",
      "type": "event"
    },
    {
      "constant": false,
      "inputs": [
        {
          "name": "_maxVoteCount",
          "type": "uint256"
        },
        {
          "name": "_year",
          "type": "uint16"
        },
        {
          "name": "_month",
          "type": "uint8"
        },
        {
          "name": "_day",
          "type": "uint8"
        },
        {
          "name": "_hour",
          "type": "uint8"
        },
        {
          "name": "_minute",
          "type": "uint8"
        },
        {
          "name": "_endHour",
          "type": "uint8"
        }
      ],
      "name": "startVote",
      "outputs": [],
      "payable": false,
      "stateMutability": "nonpayable",
      "type": "function"
    },
    {
      "constant": false,
      "inputs": [
        {
          "name": "_name",
          "type": "string"
        }
      ],
      "name": "addCandidate",
      "outputs": [],
      "payable": false,
      "stateMutability": "nonpayable",
      "type": "function"
    },
    {
      "constant": false,
      "inputs": [
        {
          "name": "_vote",
          "type": "uint256"
        }
      ],
      "name": "castVote",
      "outputs": [],
      "payable": false,
      "stateMutability": "nonpayable",
      "type": "function"
    },
    {
      "constant": false,
      "inputs": [],
      "name": "countVotes",
      "outputs": [],
      "payable": false,
      "stateMutability": "nonpayable",
      "type": "function"
    },
    {
      "constant": true,
      "inputs": [],
      "name": "getWinner",
      "outputs": [
        {
          "name": "",
          "type": "string"
        }
      ],
      "payable": false,
      "stateMutability": "view",
      "type": "function"
    },
    {
      "constant": true,
      "inputs": [],
      "name": "getTieWinner",
      "outputs": [
        {
          "name": "",
          "type": "string"
        },
        {
          "name": "",
          "type": "string"
        }
      ],
      "payable": false,
      "stateMutability": "view",
      "type": "function"
    },
    {
      "constant": true,
      "inputs": [
        {
          "name": "_index",
          "type": "uint256"
        }
      ],
      "name": "intToCandidate",
      "outputs": [
        {
          "name": "",
          "type": "string"
        }
      ],
      "payable": false,
      "stateMutability": "view",
      "type": "function"
    },
    {
      "constant": true,
      "inputs": [
        {
          "name": "_name",
          "type": "string"
        }
      ],
      "name": "candidateToInt",
      "outputs": [
        {
          "name": "",
          "type": "uint256"
        }
      ],
      "payable": false,
      "stateMutability": "view",
      "type": "function"
    },
    {
      "constant": false,
      "inputs": [],
      "name": "test",
      "outputs": [
        {
          "name": "",
          "type": "uint256"
        }
      ],
      "payable": false,
      "stateMutability": "nonpayable",
      "type": "function"
    }
  ],
  "bytecode": "0x6080604052601e600b5534801561001557600080fd5b5033600c60006101000a81548173ffffffffffffffffffffffffffffffffffffffff021916908373ffffffffffffffffffffffffffffffffffffffff16021790555033600d60006101000a81548173ffffffffffffffffffffffffffffffffffffffff021916908373ffffffffffffffffffffffffffffffffffffffff160217905550611b9b806100a76000396000f300608060405260043610610175576000357c0100000000000000000000000000000000000000000000000000000000900463ffffffff16806328d9e6fa1461017a5780633e239e1a146101a55780633eb76b9c146101ec57806342c1e58714610219578063462e91ec146102705780635216509a146102d95780635fce2e161461030457806362ba9687146103aa57806365c72840146104235780637266eb5b1461046a578063893d8f4c146104955780638da5cb5b146104c05780638e7ea5b2146105175780638f00cbfa146105a757806392d66313146105d257806393610ed61461061b5780639877ea47146106975780639f62568d146106c2578063a324ad24146106ed578063a6f0e57714610734578063b19999371461077d578063b238ad0e146107be578063b647990a14610816578063bbe4fd501461082d578063db70930214610858578063e254fb5c146108d5578063f8a8fd6d146109d1578063f8e78e9a146109fc578063fa93f88314610a27575b600080fd5b34801561018657600080fd5b5061018f610a6e565b6040518082815260200191505060405180910390f35b3480156101b157600080fd5b506101d060048036038101908080359060200190929190505050610a74565b604051808260ff1660ff16815260200191505060405180910390f35b3480156101f857600080fd5b5061021760048036038101908080359060200190929190505050610aa1565b005b34801561022557600080fd5b5061022e610bed565b604051808273ffffffffffffffffffffffffffffffffffffffff1673ffffffffffffffffffffffffffffffffffffffff16815260200191505060405180910390f35b34801561027c57600080fd5b506102d7600480360381019080803590602001908201803590602001908080601f0160208091040260200160405190810160405280939291908181526020018383808284378201915050505050509192919290505050610c13565b005b3480156102e557600080fd5b506102ee610c63565b6040518082815260200191505060405180910390f35b34801561031057600080fd5b5061032f60048036038101908080359060200190929190505050610c69565b6040518080602001828103825283818151815260200191508051906020019080838360005b8381101561036f578082015181840152602081019050610354565b50505050905090810190601f16801561039c5780820380516001836020036101000a031916815260200191505b509250505060405180910390f35b3480156103b657600080fd5b5061040d600480360381019080803561ffff169060200190929190803560ff169060200190929190803560ff169060200190929190803560ff169060200190929190803560ff169060200190929190505050610d1e565b6040518082815260200191505060405180910390f35b34801561042f57600080fd5b5061044e60048036038101908080359060200190929190505050610fc2565b604051808260ff1660ff16815260200191505060405180910390f35b34801561047657600080fd5b5061047f610fd8565b6040518082815260200191505060405180910390f35b3480156104a157600080fd5b506104aa610fde565b6040518082815260200191505060405180910390f35b3480156104cc57600080fd5b506104d5610fe4565b604051808273ffffffffffffffffffffffffffffffffffffffff1673ffffffffffffffffffffffffffffffffffffffff16815260200191505060405180910390f35b34801561052357600080fd5b5061052c61100a565b6040518080602001828103825283818151815260200191508051906020019080838360005b8381101561056c578082015181840152602081019050610551565b50505050905090810190601f1680156105995780820380516001836020036101000a031916815260200191505b509250505060405180910390f35b3480156105b357600080fd5b506105bc61111e565b6040518082815260200191505060405180910390f35b3480156105de57600080fd5b506105fd60048036038101908080359060200190929190505050611124565b604051808261ffff1661ffff16815260200191505060405180910390f35b34801561062757600080fd5b5061069560048036038101908080359060200190929190803561ffff169060200190929190803560ff169060200190929190803560ff169060200190929190803560ff169060200190929190803560ff169060200190929190803560ff1690602001909291905050506111cf565b005b3480156106a357600080fd5b506106ac6112de565b6040518082815260200191505060405180910390f35b3480156106ce57600080fd5b506106d76112e4565b6040518082815260200191505060405180910390f35b3480156106f957600080fd5b50610718600480360381019080803590602001909291905050506112ea565b604051808260ff1660ff16815260200191505060405180910390f35b34801561074057600080fd5b50610763600480360381019080803561ffff169060200190929190505050611300565b604051808215151515815260200191505060405180910390f35b34801561078957600080fd5b506107a860048036038101908080359060200190929190505050611381565b6040518082815260200191505060405180910390f35b3480156107ca57600080fd5b506107fa600480360381019080803560ff169060200190929190803561ffff1690602001909291905050506113ba565b604051808260ff1660ff16815260200191505060405180910390f35b34801561082257600080fd5b5061082b611486565b005b34801561083957600080fd5b50610842611528565b6040518082815260200191505060405180910390f35b34801561086457600080fd5b506108bf600480360381019080803590602001908201803590602001908080601f0160208091040260200160405190810160405280939291908181526020018383808284378201915050505050509192919290505050611534565b6040518082815260200191505060405180910390f35b3480156108e157600080fd5b506108ea611659565b604051808060200180602001838103835285818151815260200191508051906020019080838360005b8381101561092e578082015181840152602081019050610913565b50505050905090810190601f16801561095b5780820380516001836020036101000a031916815260200191505b50838103825284818151815260200191508051906020019080838360005b83811015610994578082015181840152602081019050610979565b50505050905090810190601f1680156109c15780820380516001836020036101000a031916815260200191505b5094505050505060405180910390f35b3480156109dd57600080fd5b506109e66117ed565b6040518082815260200191505060405180910390f35b348015610a0857600080fd5b50610a116117f7565b6040518082815260200191505060405180910390f35b348015610a3357600080fd5b50610a52600480360381019080803590602001909291905050506117fd565b604051808260ff1660ff16815260200191505060405180910390f35b60075481565b60006018603c8084811515610a8557fe5b04811515610a8f57fe5b04811515610a9957fe5b069050919050565b600454617e904201111515610ab557600080fd5b600954600a54111515610ac757600080fd5b600554421115610ad657610bea565b60035481111515610b805760016000808381526020019081526020016000206000828254019250508190555060016009600082825401925050819055507f0bb563d6789cea5d754d1b7f85bfebdfe7a1a86e2e0ffccfb8a6bbdb07826ae260405180806020018281038252600d8152602001807f566f746520636f756e7465642e0000000000000000000000000000000000000081525060200191505060405180910390a1610be9565b7f0bb563d6789cea5d754d1b7f85bfebdfe7a1a86e2e0ffccfb8a6bbdb07826ae26040518080602001828103825260178152602001807f566f746520636f756c64206e6f7420626520726561642100000000000000000081525060200191505060405180910390a15b5b50565b600d60009054906101000a900473ffffffffffffffffffffffffffffffffffffffff1681565b601460035411151515610c2557600080fd5b6001600360008282540192505081905550806001600060035481526020019081526020016000209080519060200190610c5f929190611a52565b5050565b60035481565b6060600160008381526020019081526020016000208054600181600116156101000203166002900480601f016020809104026020016040519081016040528092919081815260200182805460018160011615610100020316600290048015610d125780601f10610ce757610100808354040283529160200191610d12565b820191906000526020600020905b815481529060010190602001808311610cf557829003601f168201915b50505050509050919050565b600080610d29611ad2565b6107b291505b8761ffff168261ffff161015610d7257610d4882611300565b15610d5b576301e2850083019250610d65565b6301e13380830192505b8180600101925050610d2f565b601f816000600c81101515610d8357fe5b602002019060ff16908160ff1681525050610d9d88611300565b15610dc957601d816001600c81101515610db357fe5b602002019060ff16908160ff1681525050610dec565b601c816001600c81101515610dda57fe5b602002019060ff16908160ff16815250505b601f816002600c81101515610dfd57fe5b602002019060ff16908160ff1681525050601e816003600c81101515610e1f57fe5b602002019060ff16908160ff1681525050601f816004600c81101515610e4157fe5b602002019060ff16908160ff1681525050601e816005600c81101515610e6357fe5b602002019060ff16908160ff1681525050601f816006600c81101515610e8557fe5b602002019060ff16908160ff1681525050601f816007600c81101515610ea757fe5b602002019060ff16908160ff1681525050601e816008600c81101515610ec957fe5b602002019060ff16908160ff1681525050601f816009600c81101515610eeb57fe5b602002019060ff16908160ff1681525050601e81600a600c81101515610f0d57fe5b602002019060ff16908160ff1681525050601f81600b600c81101515610f2f57fe5b602002019060ff16908160ff1681525050600191505b8660ff168261ffff161015610f8757806001830361ffff16600c81101515610f6957fe5b602002015160ff166201518002830192508180600101925050610f45565b6001860360ff166201518002830192508460ff16610e1002830192508360ff16603c0283019250600083019250829250505095945050505050565b6000610fcd8261181e565b604001519050919050565b60045481565b60095481565b600c60009054906101000a900473ffffffffffffffffffffffffffffffffffffffff1681565b6060600554617e90420111151561102057600080fd5b61102861198b565b1561106a576040805190810160405280600381526020017f7469650000000000000000000000000000000000000000000000000000000000815250905061111b565b6001600060065481526020019081526020016000208054600181600116156101000203166002900480601f0160208091040260200160405190810160405280929190818152602001828054600181600116156101000203166002900480156111135780601f106110e857610100808354040283529160200191611113565b820191906000526020600020905b8154815290600101906020018083116110f657829003601f168201915b505050505090505b90565b60065481565b600080600080600092506301e133808581151561113d57fe5b046107b261ffff160191506111576107b261ffff16611381565b6111648361ffff16611381565b039050806301e285000283019250806107b2830361ffff16036301e1338002830192505b848311156111c45761119c60018303611300565b156111af576301e28500830392506111b9565b6301e13380830392505b600182039150611188565b819350505050919050565b6000600454617e9042011115156111e557600080fd5b600554617e9042011115156111f957600080fd5b3373ffffffffffffffffffffffffffffffffffffffff16600c60009054906101000a900473ffffffffffffffffffffffffffffffffffffffff1673ffffffffffffffffffffffffffffffffffffffff1614151561125557600080fd5b600b548260ff16610e100261ffff161015151561127157600080fd5b61127e8787878787610d1e565b9050806004819055508160ff16610e100261ffff1681016005819055506112a3611a10565b87600a819055506000600381905550600060068190555060006007819055506008600081548092919060010191905055505050505050505050565b60055481565b600a5481565b60006112f58261181e565b602001519050919050565b60008060048361ffff1681151561131357fe5b0661ffff16141515611328576000905061137c565b600060648361ffff1681151561133a57fe5b0661ffff1614151561134f576001905061137c565b60006101908361ffff1681151561136257fe5b0661ffff16141515611377576000905061137c565b600190505b919050565b60006001820391506101908281151561139657fe5b046064838115156113a357fe5b046004848115156113b057fe5b0403019050919050565b600060018360ff1614806113d1575060038360ff16145b806113df575060058360ff16145b806113ed575060078360ff16145b806113fb575060088360ff16145b806114095750600a8360ff16145b806114175750600c8360ff16145b1561142557601f9050611480565b60048360ff16148061143a575060068360ff16145b80611448575060098360ff16145b806114565750600b8360ff16145b1561146457601e9050611480565b61146d82611300565b1561147b57601d9050611480565b601c90505b92915050565b6000600554617e90420111151561149c57600080fd5b600190505b60035481111515611525576000806006548152602001908152602001600020546000808381526020019081526020016000205414156114e257806007819055505b60008060065481526020019081526020016000205460008083815260200190815260200160002054111561151857806006819055505b80806001019150506114a1565b50565b6000617e904201905090565b6000806000836040518082805190602001908083835b60208310151561156f578051825260208201915060208101905060208303925061154a565b6001836020036101000a03801982511681845116808217855250505050505090500191505060405180910390209150600190505b6003548111151561164d5760016000828152602001908152602001600020604051808280546001816001161561010002031660029004801561161c5780601f106115fa57610100808354040283529182019161161c565b820191906000526020600020905b815481529060010190602001808311611608575b50509150506040518091039020600019168260001916141561164057809250611652565b80806001019150506115a3565b600092505b5050919050565b606080600554617e90420111151561167057600080fd5b61167861198b565b151561168357600080fd5b600160006006548152602001908152602001600020600160006007548152602001908152602001600020818054600181600116156101000203166002900480601f0160208091040260200160405190810160405280929190818152602001828054600181600116156101000203166002900480156117425780601f1061171757610100808354040283529160200191611742565b820191906000526020600020905b81548152906001019060200180831161172557829003601f168201915b50505050509150808054600181600116156101000203166002900480601f0160208091040260200160405190810160405280929190818152602001828054600181600116156101000203166002900480156117de5780601f106117b3576101008083540402835291602001916117de565b820191906000526020600020905b8154815290600101906020018083116117c157829003601f168201915b50505050509050915091509091565b6000600354905090565b60085481565b6000603c808381151561180c57fe5b0481151561181657fe5b069050919050565b611826611af6565b6000806000806000935061183986611124565b856000019061ffff16908161ffff168152505061185b6107b261ffff16611381565b61186c866000015161ffff16611381565b039250826301e285000284019350826107b286600001510361ffff16036301e133800284019350600191505b600c8260ff161115156118f0576118b38286600001516113ba565b60ff16620151800290508584820111156118de5781856020019060ff16908160ff16815250506118f0565b80840193508180600101925050611898565b600191505b611907856020015186600001516113ba565b60ff168260ff1611151561194e578584620151800111156119395781856040019060ff16908160ff168152505061194e565b620151808401935081806001019250506118f5565b61195786610a74565b856060019060ff16908160ff1681525050611971866117fd565b856080019060ff16908160ff168152505050505050919050565b6000600554617e9042011115156119a157600080fd5b6000806007548152602001908152602001600020546000806006548152602001908152602001600020541480156119dc575060075460065414155b80156119eb5750600060065414155b80156119fa5750600060075414155b15611a085760019050611a0d565b600090505b90565b6000600190505b60035481111515611a47576000806000838152602001908152602001600020819055508080600101915050611a17565b600060098190555050565b828054600181600116156101000203166002900490600052602060002090601f016020900481019282601f10611a9357805160ff1916838001178555611ac1565b82800160010185558215611ac1579182015b82811115611ac0578251825591602001919060010190611aa5565b5b509050611ace9190611b4a565b5090565b61018060405190810160405280600c90602082028038833980820191505090505090565b60e060405190810160405280600061ffff168152602001600060ff168152602001600060ff168152602001600060ff168152602001600060ff168152602001600060ff168152602001600060ff1681525090565b611b6c91905b80821115611b68576000816000905550600101611b50565b5090565b905600a165627a7a7230582088b76923ef345703d7f110317dcac546f1fdd4d870e5f1f01e8a166d953d07e70029",
  "source": "pragma solidity ^0.4.7;\n\nimport \"./dateTime.sol\";\n\ncontract presidentElection is DateTime\n{\n    mapping(uint => uint) voteCount; \n    mapping(uint => string) candidate; \n    mapping(string => voter) voters;\n    uint public numCandidates;\n    uint public votePhaseStartTime;\n    uint public votePhaseEndTime;\n    uint public winnerIndex;\n    uint public tieIndex;\n    uint public electionID;\n    uint public totalVoteCount;\n    uint public maxVoteCount;\n    uint MIN_VOTE_TIME = 30;\n    address public owner;\n    address public voteManager;\n\n    struct voter\n    {\n        uint electionID;\n    }\n    \n    //Modifiers\n    modifier voteAlreadyStarted{ //   \n        require((now+3600*9) > votePhaseStartTime);\n        _;\n    }\n    modifier voteFinished {// \n        require((now+3600*9) > votePhaseEndTime);\n        _;\n    }\n    modifier ownerShip{// \n        require(owner == msg.sender);\n        _;\n    }\n    modifier voterShip{//  \n        require(voteManager == msg.sender);\n        _;\n    }\n\n    event logString(string);\n    event logInt(uint);\n    event voteWinner(string, string);\n\n    function presidentElection() { //  \n        owner = msg.sender;\n        voteManager = msg.sender;\n    }\n    \n\n    function startVote(uint _maxVoteCount, uint16 _year, uint8 _month, uint8 _day, uint8 _hour,\n        uint8 _minute, uint8 _endHour) voteAlreadyStarted voteFinished ownerShip public\n    {\n        // \n        //  \n        require((3600*_endHour) >= MIN_VOTE_TIME);\n        uint timeStamp = toTimestamp(_year,_month,_day,_hour,_minute);\n        votePhaseStartTime = timeStamp;\n        votePhaseEndTime = timeStamp + (3600*_endHour);\n        resetVoteCount();\n        maxVoteCount = _maxVoteCount;\n        numCandidates = 0;\n        winnerIndex = 0;\n        tieIndex = 0;\n        electionID++;\n    }\n\n    function resetVoteCount() private\n    {\n        // \n        for (uint i=1; i<=numCandidates; i++)\n        {\n            voteCount[i] = 0;\n        }\n        totalVoteCount =0;\n    }\n\n    function addCandidate(string _name) public\n    {\n        // \n        require(numCandidates <= 20);\n        numCandidates += 1;\n        candidate[numCandidates] = _name;\n    }\n\n    function castVote(uint _vote) voteAlreadyStarted public\n    {\n        //\n        require(maxVoteCount > totalVoteCount);\n        //require(!getHasVoted(_voter));\n        if (now > votePhaseEndTime) return;\n\n        // record the vote\n        if (_vote <= numCandidates) \n        {\n            voteCount[_vote] += 1;\n            totalVoteCount += 1;\n            //voters[_voter].electionID = electionID;\n            logString(\"Vote counted.\");\n        }  \n        else \n        {\n            logString(\"Vote could not be read!\");\n        }\n    }\n\n    function countVotes() voteFinished public\n    {\n        // \n        for (uint i=1; i<= numCandidates; i++)\n        {\n            if (voteCount[i] == voteCount[winnerIndex]) tieIndex = i;\n            if (voteCount[i] > voteCount[winnerIndex]) winnerIndex = i;\n        }\n    }\n\n    function isTie() constant private voteFinished returns(bool)\n    {\n        // \n        if (voteCount[winnerIndex] == voteCount[tieIndex] \n            && winnerIndex != tieIndex\n            && winnerIndex != 0\n            && tieIndex != 0) return true;\n        return false;\n    }\n\n    function getWinner() voteFinished constant public returns(string) \n    {\n        //\n        if (isTie()) return \"tie\";\n        return candidate[winnerIndex];\n    }\n\n    function getTieWinner() voteFinished constant public returns(string, string)\n    {\n        // \n        require(isTie());\n        return (candidate[winnerIndex], candidate[tieIndex]);\n    }\n\n    function intToCandidate(uint _index) constant public returns(string) \n    {\n        //   \n        return candidate[_index];\n    }\n\n    function candidateToInt(string _name) constant public returns(uint)\n    {\n        //   \n        bytes32 nameHash = sha3(_name);\n        for (uint i=1; i<=numCandidates; i++)\n        {\n            if (nameHash == sha3(candidate[i]))\n                return i;\n        }\n        return 0;\n    }\n\n    function test() public returns(uint){\n        return numCandidates;\n    }\n\n}\n",
  "sourcePath": "/Users/lucas/dev/js/blockchain_election/dapp_election/contracts/presidentElection.sol",
  "compiler": {
    "name": "solc",
    "version": "0.4.23+commit.124ca40d.Emscripten.clang"
  },
  "schemaVersion": "2.0.0",
  "updatedAt": "2018-05-16T02:25:51.007Z"
}