{
  "contractName": "presidentElection",
  "abi": [
    {
      "constant": true,
      "inputs": [],
      "name": "tieIndex",
      "outputs": [
        {
          "name": "",
          "type": "uint256"
        }
      ],
      "payable": false,
      "stateMutability": "view",
      "type": "function"
    },
    {
      "constant": true,
      "inputs": [],
      "name": "voteManager",
      "outputs": [
        {
          "name": "",
          "type": "address"
        }
      ],
      "payable": false,
      "stateMutability": "view",
      "type": "function"
    },
    {
      "constant": true,
      "inputs": [],
      "name": "numCandidates",
      "outputs": [
        {
          "name": "",
          "type": "uint256"
        }
      ],
      "payable": false,
      "stateMutability": "view",
      "type": "function"
    },
    {
      "constant": true,
      "inputs": [],
      "name": "totalVoteCount",
      "outputs": [
        {
          "name": "",
          "type": "uint256"
        }
      ],
      "payable": false,
      "stateMutability": "view",
      "type": "function"
    },
    {
      "constant": true,
      "inputs": [],
      "name": "owner",
      "outputs": [
        {
          "name": "",
          "type": "address"
        }
      ],
      "payable": false,
      "stateMutability": "view",
      "type": "function"
    },
    {
      "constant": true,
      "inputs": [],
      "name": "winnerIndex",
      "outputs": [
        {
          "name": "",
          "type": "uint256"
        }
      ],
      "payable": false,
      "stateMutability": "view",
      "type": "function"
    },
    {
      "constant": true,
      "inputs": [],
      "name": "votePhaseEndTime",
      "outputs": [
        {
          "name": "",
          "type": "uint256"
        }
      ],
      "payable": false,
      "stateMutability": "view",
      "type": "function"
    },
    {
      "constant": true,
      "inputs": [],
      "name": "maxVoteCount",
      "outputs": [
        {
          "name": "",
          "type": "uint256"
        }
      ],
      "payable": false,
      "stateMutability": "view",
      "type": "function"
    },
    {
      "constant": true,
      "inputs": [],
      "name": "electionID",
      "outputs": [
        {
          "name": "",
          "type": "uint256"
        }
      ],
      "payable": false,
      "stateMutability": "view",
      "type": "function"
    },
    {
      "inputs": [],
      "payable": false,
      "stateMutability": "nonpayable",
      "type": "constructor"
    },
    {
      "anonymous": false,
      "inputs": [
        {
          "indexed": false,
          "name": "",
          "type": "string"
        }
      ],
      "name": "logString",
      "type": "event"
    },
    {
      "anonymous": false,
      "inputs": [
        {
          "indexed": false,
          "name": "",
          "type": "uint256"
        }
      ],
      "name": "logInt",
      "type": "event"
    },
    {
      "anonymous": false,
      "inputs": [
        {
          "indexed": false,
          "name": "",
          "type": "string"
        },
        {
          "indexed": false,
          "name": "",
          "type": "string"
        }
      ],
      "name": "voteWinner",
      "type": "event"
    },
    {
      "constant": false,
      "inputs": [
        {
          "name": "_maxVoteCount",
          "type": "uint256"
        },
        {
          "name": "_votePhaseLengthInSeconds",
          "type": "uint256"
        },
        {
          "name": "_choice1",
          "type": "string"
        },
        {
          "name": "_choice2",
          "type": "string"
        }
      ],
      "name": "startVote",
      "outputs": [],
      "payable": false,
      "stateMutability": "nonpayable",
      "type": "function"
    },
    {
      "constant": false,
      "inputs": [
        {
          "name": "_name",
          "type": "string"
        }
      ],
      "name": "addCandidate",
      "outputs": [],
      "payable": false,
      "stateMutability": "nonpayable",
      "type": "function"
    },
    {
      "constant": false,
      "inputs": [
        {
          "name": "_voter",
          "type": "string"
        }
      ],
      "name": "register",
      "outputs": [],
      "payable": false,
      "stateMutability": "nonpayable",
      "type": "function"
    },
    {
      "constant": false,
      "inputs": [
        {
          "name": "_vote",
          "type": "uint256"
        },
        {
          "name": "_voter",
          "type": "string"
        }
      ],
      "name": "castVote",
      "outputs": [],
      "payable": false,
      "stateMutability": "nonpayable",
      "type": "function"
    },
    {
      "constant": false,
      "inputs": [],
      "name": "countVotes",
      "outputs": [],
      "payable": false,
      "stateMutability": "nonpayable",
      "type": "function"
    },
    {
      "constant": true,
      "inputs": [],
      "name": "getWinner",
      "outputs": [
        {
          "name": "",
          "type": "string"
        }
      ],
      "payable": false,
      "stateMutability": "view",
      "type": "function"
    },
    {
      "constant": true,
      "inputs": [],
      "name": "getTieWinner",
      "outputs": [
        {
          "name": "",
          "type": "string"
        },
        {
          "name": "",
          "type": "string"
        }
      ],
      "payable": false,
      "stateMutability": "view",
      "type": "function"
    },
    {
      "constant": true,
      "inputs": [
        {
          "name": "_index",
          "type": "uint256"
        }
      ],
      "name": "intToCandidate",
      "outputs": [
        {
          "name": "",
          "type": "string"
        }
      ],
      "payable": false,
      "stateMutability": "view",
      "type": "function"
    },
    {
      "constant": true,
      "inputs": [
        {
          "name": "_name",
          "type": "string"
        }
      ],
      "name": "candidateToInt",
      "outputs": [
        {
          "name": "",
          "type": "uint256"
        }
      ],
      "payable": false,
      "stateMutability": "view",
      "type": "function"
    }
  ],
  "bytecode": "0x6060604052601e600a55341561001457600080fd5b33600b60006101000a81548173ffffffffffffffffffffffffffffffffffffffff021916908373ffffffffffffffffffffffffffffffffffffffff16021790555073ca35b7d915458ef540ade6068dfe2f44e8fa733c600c60006101000a81548173ffffffffffffffffffffffffffffffffffffffff021916908373ffffffffffffffffffffffffffffffffffffffff160217905550611371806100b96000396000f3006060604052600436106100fc576000357c0100000000000000000000000000000000000000000000000000000000900463ffffffff16806328d9e6fa1461010157806342c1e5871461012a578063462e91ec1461017f5780635216509a146101dc5780635fce2e1614610205578063893d8f4c146102a15780638da5cb5b146102ca5780638e7ea5b21461031f5780638f00cbfa146103ad5780639877ea47146103d65780639e84e269146103ff5780639f62568d146104b1578063b647990a146104da578063d037853a146104ef578063db70930214610555578063e254fb5c146105c6578063f2c298be146106c0578063f8e78e9a1461071d575b600080fd5b341561010c57600080fd5b610114610746565b6040518082815260200191505060405180910390f35b341561013557600080fd5b61013d61074c565b604051808273ffffffffffffffffffffffffffffffffffffffff1673ffffffffffffffffffffffffffffffffffffffff16815260200191505060405180910390f35b341561018a57600080fd5b6101da600480803590602001908201803590602001908080601f01602080910402602001604051908101604052809392919081815260200183838082843782019150505050505091905050610772565b005b34156101e757600080fd5b6101ef6107c2565b6040518082815260200191505060405180910390f35b341561021057600080fd5b61022660048080359060200190919050506107c8565b6040518080602001828103825283818151815260200191508051906020019080838360005b8381101561026657808201518184015260208101905061024b565b50505050905090810190601f1680156102935780820380516001836020036101000a031916815260200191505b509250505060405180910390f35b34156102ac57600080fd5b6102b4610883565b6040518082815260200191505060405180910390f35b34156102d557600080fd5b6102dd610889565b604051808273ffffffffffffffffffffffffffffffffffffffff1673ffffffffffffffffffffffffffffffffffffffff16815260200191505060405180910390f35b341561032a57600080fd5b6103326108af565b6040518080602001828103825283818151815260200191508051906020019080838360005b83811015610372578082015181840152602081019050610357565b50505050905090810190601f16801561039f5780820380516001836020036101000a031916815260200191505b509250505060405180910390f35b34156103b857600080fd5b6103c06109c5565b6040518082815260200191505060405180910390f35b34156103e157600080fd5b6103e96109cb565b6040518082815260200191505060405180910390f35b341561040a57600080fd5b6104af600480803590602001909190803590602001909190803590602001908201803590602001908080601f0160208091040260200160405190810160405280939291908181526020018383808284378201915050505050509190803590602001908201803590602001908080601f016020809104026020016040519081016040528093929190818152602001838380828437820191505050505050919050506109d1565b005b34156104bc57600080fd5b6104c4610ae8565b6040518082815260200191505060405180910390f35b34156104e557600080fd5b6104ed610aee565b005b34156104fa57600080fd5b610553600480803590602001909190803590602001908201803590602001908080601f01602080910402602001604051908101604052809392919081815260200183838082843782019150505050505091905050610b8c565b005b341561056057600080fd5b6105b0600480803590602001908201803590602001908080601f01602080910402602001604051908101604052809392919081815260200183838082843782019150505050505091905050610d76565b6040518082815260200191505060405180910390f35b34156105d157600080fd5b6105d9610e9b565b604051808060200180602001838103835285818151815260200191508051906020019080838360005b8381101561061d578082015181840152602081019050610602565b50505050905090810190601f16801561064a5780820380516001836020036101000a031916815260200191505b50838103825284818151815260200191508051906020019080838360005b83811015610683578082015181840152602081019050610668565b50505050905090810190601f1680156106b05780820380516001836020036101000a031916815260200191505b5094505050505060405180910390f35b34156106cb57600080fd5b61071b600480803590602001908201803590602001908080601f01602080910402602001604051908101604052809392919081815260200183838082843782019150505050505091905050611038565b005b341561072857600080fd5b6107306110c2565b6040518082815260200191505060405180910390f35b60065481565b600c60009054906101000a900473ffffffffffffffffffffffffffffffffffffffff1681565b60146003541115151561078457600080fd5b60016003600082825401925050819055508060016000600354815260200190815260200160002090805190602001906107be92919061128c565b5050565b60035481565b6107d061130c565b600160008381526020019081526020016000208054600181600116156101000203166002900480601f0160208091040260200160405190810160405280929190818152602001828054600181600116156101000203166002900480156108775780601f1061084c57610100808354040283529160200191610877565b820191906000526020600020905b81548152906001019060200180831161085a57829003601f168201915b50505050509050919050565b60085481565b600b60009054906101000a900473ffffffffffffffffffffffffffffffffffffffff1681565b6108b761130c565b600454421115156108c757600080fd5b6108cf6110c8565b15610911576040805190810160405280600381526020017f746965000000000000000000000000000000000000000000000000000000000081525090506109c2565b6001600060055481526020019081526020016000208054600181600116156101000203166002900480601f0160208091040260200160405190810160405280929190818152602001828054600181600116156101000203166002900480156109ba5780601f1061098f576101008083540402835291602001916109ba565b820191906000526020600020905b81548152906001019060200180831161099d57829003601f168201915b505050505090505b90565b60055481565b60045481565b600454421115156109e157600080fd5b600b60009054906101000a900473ffffffffffffffffffffffffffffffffffffffff1673ffffffffffffffffffffffffffffffffffffffff163373ffffffffffffffffffffffffffffffffffffffff16141515610a3d57600080fd5b600a548310151515610a4e57600080fd5b824201600481905550610a5f611149565b836009819055506002600381905550600060058190555060006006819055508160016000600181526020019081526020016000209080519060200190610aa692919061128c565b508060016000600281526020019081526020016000209080519060200190610acf92919061128c565b5060076000815480929190600101919050555050505050565b60095481565b600060045442111515610b0057600080fd5b600190505b60035481111515610b8957600080600554815260200190815260200160002054600080838152602001908152602001600020541415610b4657806006819055505b600080600554815260200190815260200160002054600080838152602001908152602001600020541115610b7c57806005819055505b8080600101915050610b05565b50565b60085460095410151515610b9f57600080fd5b600854600954111515610bb157600080fd5b610bba8161118b565b151515610bc657600080fd5b610bcf81611207565b1515610bda57600080fd5b600454421115610be957610d72565b60035482111515610d085760016000808481526020019081526020016000206000828254019250508190555060016008600082825401925050819055506007546002826040518082805190602001908083835b602083101515610c615780518252602082019150602081019050602083039250610c3c565b6001836020036101000a0380198251168184511680821785525050505050509050019150509081526020016040518091039020600001819055507f0bb563d6789cea5d754d1b7f85bfebdfe7a1a86e2e0ffccfb8a6bbdb07826ae260405180806020018281038252600d8152602001807f566f746520636f756e7465642e0000000000000000000000000000000000000081525060200191505060405180910390a1610d71565b7f0bb563d6789cea5d754d1b7f85bfebdfe7a1a86e2e0ffccfb8a6bbdb07826ae26040518080602001828103825260178152602001807f566f746520636f756c64206e6f7420626520726561642100000000000000000081525060200191505060405180910390a15b5b5050565b6000806000836040518082805190602001908083835b602083101515610db15780518252602082019150602081019050602083039250610d8c565b6001836020036101000a03801982511681845116808217855250505050505090500191505060405180910390209150600190505b60035481111515610e8f57600160008281526020019081526020016000206040518082805460018160011615610100020316600290048015610e5e5780601f10610e3c576101008083540402835291820191610e5e565b820191906000526020600020905b815481529060010190602001808311610e4a575b505091505060405180910390206000191682600019161415610e8257809250610e94565b8080600101915050610de5565b600092505b5050919050565b610ea361130c565b610eab61130c565b60045442111515610ebb57600080fd5b610ec36110c8565b1515610ece57600080fd5b600160006005548152602001908152602001600020600160006006548152602001908152602001600020818054600181600116156101000203166002900480601f016020809104026020016040519081016040528092919081815260200182805460018160011615610100020316600290048015610f8d5780601f10610f6257610100808354040283529160200191610f8d565b820191906000526020600020905b815481529060010190602001808311610f7057829003601f168201915b50505050509150808054600181600116156101000203166002900480601f0160208091040260200160405190810160405280929190818152602001828054600181600116156101000203166002900480156110295780601f10610ffe57610100808354040283529160200191611029565b820191906000526020600020905b81548152906001019060200180831161100c57829003601f168201915b50505050509050915091509091565b60016002826040518082805190602001908083835b602083101515611072578051825260208201915060208101905060208303925061104d565b6001836020036101000a038019825116818451168082178552505050505050905001915050908152602001604051809103902060010160006101000a81548160ff02191690831515021790555050565b60075481565b6000600454421115156110da57600080fd5b600080600654815260200190815260200160002054600080600554815260200190815260200160002054148015611115575060065460055414155b80156111245750600060055414155b80156111335750600060065414155b156111415760019050611146565b600090505b90565b6000600190505b60035481111515611180576000806000838152602001908152602001600020819055508080600101915050611150565b600060088190555050565b60006007546002836040518082805190602001908083835b6020831015156111c857805182526020820191506020810190506020830392506111a3565b6001836020036101000a038019825116818451168082178552505050505050905001915050908152602001604051809103902060000154149050919050565b60006002826040518082805190602001908083835b602083101515611241578051825260208201915060208101905060208303925061121c565b6001836020036101000a038019825116818451168082178552505050505050905001915050908152602001604051809103902060010160009054906101000a900460ff169050919050565b828054600181600116156101000203166002900490600052602060002090601f016020900481019282601f106112cd57805160ff19168380011785556112fb565b828001600101855582156112fb579182015b828111156112fa5782518255916020019190600101906112df565b5b5090506113089190611320565b5090565b602060405190810160405280600081525090565b61134291905b8082111561133e576000816000905550600101611326565b5090565b905600a165627a7a7230582001d27a089b5df9bd77ff31098eb6631f46af96c0a298af3df80cc69275c7de050029",
  "source": "pragma solidity ^0.4.7;\n\ncontract presidentElection\n{\n    mapping(uint => uint) voteCount; \n    mapping(uint => string) candidate; \n    mapping(string => voter) voters;\n    uint public numCandidates;\n    uint public votePhaseEndTime;\n    uint public winnerIndex;\n    uint public tieIndex;\n    uint public electionID;\n    uint public totalVoteCount;\n    uint public maxVoteCount;\n    uint MIN_VOTE_TIME = 30;\n    address public owner;\n    address public voteManager;\n\n    struct voter\n    {\n        uint electionID;\n        bool isRegistered;\n    }\n    \n    //Modifiers\n    modifier voteUnFinished{\n        require(maxVoteCount >= totalVoteCount);\n        _;\n    }\n    modifier voteFinished {\n        require(now > votePhaseEndTime);\n        _;\n    }\n    modifier ownerShip{\n        require(msg.sender == owner);\n        _;\n    }\n    modifier voterShip{\n        require(msg.sender == voteManager);\n        _;\n    }\n\n    event logString(string);\n    event logInt(uint);\n    event voteWinner(string, string);\n\n    function presidentElection() {\n        owner = msg.sender;\n        voteManager = 0xca35b7d915458ef540ade6068dfe2f44e8fa733c;\n    }\n    \n\n    function startVote(uint _maxVoteCount, uint _votePhaseLengthInSeconds, \n                                  string _choice1, \n                                  string _choice2) public voteFinished ownerShip\n    {\n        require(_votePhaseLengthInSeconds >= MIN_VOTE_TIME);\n        votePhaseEndTime = now + _votePhaseLengthInSeconds;\n        resetVoteCount();\n        maxVoteCount = _maxVoteCount;\n        numCandidates = 2;\n        winnerIndex = 0;\n        tieIndex = 0;\n        candidate[1] = _choice1;\n        candidate[2] = _choice2;\n        electionID++;\n    }\n\n    function resetVoteCount() private\n    {\n        for (uint i=1; i<=numCandidates; i++)\n        {\n            voteCount[i] = 0;\n        }\n        totalVoteCount =0;\n    }\n\n    function addCandidate(string _name) public\n    {\n        require(numCandidates <= 20);\n        numCandidates += 1;\n        candidate[numCandidates] = _name;\n    }\n\n    function register(string _voter) public\n    {\n        voters[_voter].isRegistered = true;\n    }\n\n    function castVote(uint _vote, string _voter) public voteUnFinished\n    {\n        require(maxVoteCount > totalVoteCount);\n        require(!getHasVoted(_voter));\n        require(getRegistrationStatus(_voter));\n        if (now > votePhaseEndTime) return;\n\n        // record the vote\n        if (_vote <= numCandidates) \n        {\n            voteCount[_vote] += 1;\n            totalVoteCount += 1;\n            voters[_voter].electionID = electionID;\n            logString(\"Vote counted.\");\n        }  \n        else \n        {\n            logString(\"Vote could not be read!\");\n        }\n    }\n\n    function countVotes() voteFinished public\n    {\n        for (uint i=1; i<= numCandidates; i++)\n        {\n            if (voteCount[i] == voteCount[winnerIndex]) tieIndex = i;\n            if (voteCount[i] > voteCount[winnerIndex]) winnerIndex = i;\n        }\n    }\n\n    function isTie() constant private voteFinished returns(bool)\n    {\n        if (voteCount[winnerIndex] == voteCount[tieIndex] \n            && winnerIndex != tieIndex\n            && winnerIndex != 0\n            && tieIndex != 0) return true;\n        return false;\n    }\n\n    function getWinner() voteFinished constant public returns(string) \n    {\n        if (isTie()) return \"tie\";\n        return candidate[winnerIndex];\n    }\n\n    function getTieWinner() voteFinished constant public returns(string, string)\n    {\n        require(isTie());\n        return (candidate[winnerIndex], candidate[tieIndex]);\n    }\n\n    function intToCandidate(uint _index) constant public returns(string) \n    {\n        return candidate[_index];\n    }\n\n    function candidateToInt(string _name) constant public returns(uint)\n    {\n        bytes32 nameHash = sha3(_name);\n        for (uint i=1; i<=numCandidates; i++)\n        {\n            if (nameHash == sha3(candidate[i]))\n                return i;\n        }\n        return 0;\n    }\n\n    function getHasVoted(string _voter) constant private returns(bool) \n    {\n        return voters[_voter].electionID == electionID;\n    }\n\n    function getRegistrationStatus(string _voter) constant private returns(bool)\n    {\n        return voters[_voter].isRegistered;\n    }\n\n}\n",
  "sourcePath": "/Users/lucas/dev/js/blockchain_election/dapp_election/contracts/presidentElection.sol",
  "compiler": {
    "name": "solc",
    "version": "0.4.21+commit.dfe3193c.Emscripten.clang"
  },
  "schemaVersion": "2.0.0",
  "updatedAt": "2018-04-16T08:10:11.524Z"
}