{
  "contractName": "presidentElection",
  "abi": [
    {
      "constant": true,
      "inputs": [],
      "name": "tieIndex",
      "outputs": [
        {
          "name": "",
          "type": "uint256"
        }
      ],
      "payable": false,
      "stateMutability": "view",
      "type": "function"
    },
    {
      "constant": true,
      "inputs": [
        {
          "name": "timestamp",
          "type": "uint256"
        }
      ],
      "name": "getHour",
      "outputs": [
        {
          "name": "",
          "type": "uint8"
        }
      ],
      "payable": false,
      "stateMutability": "pure",
      "type": "function"
    },
    {
      "constant": true,
      "inputs": [],
      "name": "voteManager",
      "outputs": [
        {
          "name": "",
          "type": "address"
        }
      ],
      "payable": false,
      "stateMutability": "view",
      "type": "function"
    },
    {
      "constant": true,
      "inputs": [],
      "name": "numCandidates",
      "outputs": [
        {
          "name": "",
          "type": "uint256"
        }
      ],
      "payable": false,
      "stateMutability": "view",
      "type": "function"
    },
    {
      "constant": true,
      "inputs": [
        {
          "name": "year",
          "type": "uint16"
        },
        {
          "name": "month",
          "type": "uint8"
        },
        {
          "name": "day",
          "type": "uint8"
        },
        {
          "name": "hour",
          "type": "uint8"
        },
        {
          "name": "minute",
          "type": "uint8"
        }
      ],
      "name": "toTimestamp",
      "outputs": [
        {
          "name": "timestamp",
          "type": "uint256"
        }
      ],
      "payable": false,
      "stateMutability": "pure",
      "type": "function"
    },
    {
      "constant": true,
      "inputs": [
        {
          "name": "timestamp",
          "type": "uint256"
        }
      ],
      "name": "getDay",
      "outputs": [
        {
          "name": "",
          "type": "uint8"
        }
      ],
      "payable": false,
      "stateMutability": "pure",
      "type": "function"
    },
    {
      "constant": true,
      "inputs": [],
      "name": "votePhaseStartTime",
      "outputs": [
        {
          "name": "",
          "type": "uint256"
        }
      ],
      "payable": false,
      "stateMutability": "view",
      "type": "function"
    },
    {
      "constant": true,
      "inputs": [],
      "name": "totalVoteCount",
      "outputs": [
        {
          "name": "",
          "type": "uint256"
        }
      ],
      "payable": false,
      "stateMutability": "view",
      "type": "function"
    },
    {
      "constant": true,
      "inputs": [],
      "name": "owner",
      "outputs": [
        {
          "name": "",
          "type": "address"
        }
      ],
      "payable": false,
      "stateMutability": "view",
      "type": "function"
    },
    {
      "constant": true,
      "inputs": [],
      "name": "winnerIndex",
      "outputs": [
        {
          "name": "",
          "type": "uint256"
        }
      ],
      "payable": false,
      "stateMutability": "view",
      "type": "function"
    },
    {
      "constant": true,
      "inputs": [
        {
          "name": "timestamp",
          "type": "uint256"
        }
      ],
      "name": "getYear",
      "outputs": [
        {
          "name": "",
          "type": "uint16"
        }
      ],
      "payable": false,
      "stateMutability": "pure",
      "type": "function"
    },
    {
      "constant": true,
      "inputs": [],
      "name": "votePhaseEndTime",
      "outputs": [
        {
          "name": "",
          "type": "uint256"
        }
      ],
      "payable": false,
      "stateMutability": "view",
      "type": "function"
    },
    {
      "constant": true,
      "inputs": [],
      "name": "maxVoteCount",
      "outputs": [
        {
          "name": "",
          "type": "uint256"
        }
      ],
      "payable": false,
      "stateMutability": "view",
      "type": "function"
    },
    {
      "constant": true,
      "inputs": [
        {
          "name": "timestamp",
          "type": "uint256"
        }
      ],
      "name": "getMonth",
      "outputs": [
        {
          "name": "",
          "type": "uint8"
        }
      ],
      "payable": false,
      "stateMutability": "pure",
      "type": "function"
    },
    {
      "constant": true,
      "inputs": [
        {
          "name": "year",
          "type": "uint16"
        }
      ],
      "name": "isLeapYear",
      "outputs": [
        {
          "name": "",
          "type": "bool"
        }
      ],
      "payable": false,
      "stateMutability": "pure",
      "type": "function"
    },
    {
      "constant": true,
      "inputs": [
        {
          "name": "year",
          "type": "uint256"
        }
      ],
      "name": "leapYearsBefore",
      "outputs": [
        {
          "name": "",
          "type": "uint256"
        }
      ],
      "payable": false,
      "stateMutability": "pure",
      "type": "function"
    },
    {
      "constant": true,
      "inputs": [
        {
          "name": "month",
          "type": "uint8"
        },
        {
          "name": "year",
          "type": "uint16"
        }
      ],
      "name": "getDaysInMonth",
      "outputs": [
        {
          "name": "",
          "type": "uint8"
        }
      ],
      "payable": false,
      "stateMutability": "pure",
      "type": "function"
    },
    {
      "constant": false,
      "inputs": [],
      "name": "getNow",
      "outputs": [
        {
          "name": "",
          "type": "uint256"
        }
      ],
      "payable": false,
      "stateMutability": "nonpayable",
      "type": "function"
    },
    {
      "constant": true,
      "inputs": [],
      "name": "setTime",
      "outputs": [
        {
          "name": "",
          "type": "bool"
        }
      ],
      "payable": false,
      "stateMutability": "view",
      "type": "function"
    },
    {
      "constant": true,
      "inputs": [
        {
          "name": "timestamp",
          "type": "uint256"
        }
      ],
      "name": "getMinute",
      "outputs": [
        {
          "name": "",
          "type": "uint8"
        }
      ],
      "payable": false,
      "stateMutability": "pure",
      "type": "function"
    },
    {
      "inputs": [],
      "payable": false,
      "stateMutability": "nonpayable",
      "type": "constructor"
    },
    {
      "anonymous": false,
      "inputs": [
        {
          "indexed": false,
          "name": "",
          "type": "string"
        }
      ],
      "name": "logString",
      "type": "event"
    },
    {
      "anonymous": false,
      "inputs": [
        {
          "indexed": false,
          "name": "",
          "type": "uint256"
        }
      ],
      "name": "logInt",
      "type": "event"
    },
    {
      "anonymous": false,
      "inputs": [
        {
          "indexed": false,
          "name": "",
          "type": "string"
        },
        {
          "indexed": false,
          "name": "",
          "type": "string"
        }
      ],
      "name": "voteWinner",
      "type": "event"
    },
    {
      "constant": false,
      "inputs": [
        {
          "name": "_year",
          "type": "uint16"
        },
        {
          "name": "_month",
          "type": "uint8"
        },
        {
          "name": "_day",
          "type": "uint8"
        },
        {
          "name": "_hour",
          "type": "uint8"
        },
        {
          "name": "_minute",
          "type": "uint8"
        }
      ],
      "name": "setTimeStamp",
      "outputs": [],
      "payable": false,
      "stateMutability": "nonpayable",
      "type": "function"
    },
    {
      "constant": false,
      "inputs": [
        {
          "name": "_maxVoteCount",
          "type": "uint256"
        },
        {
          "name": "_endHour",
          "type": "uint256"
        }
      ],
      "name": "startVote",
      "outputs": [],
      "payable": false,
      "stateMutability": "nonpayable",
      "type": "function"
    },
    {
      "constant": false,
      "inputs": [
        {
          "name": "_name",
          "type": "string"
        }
      ],
      "name": "addCandidate",
      "outputs": [],
      "payable": false,
      "stateMutability": "nonpayable",
      "type": "function"
    },
    {
      "constant": false,
      "inputs": [
        {
          "name": "_vote",
          "type": "uint256"
        }
      ],
      "name": "castVote",
      "outputs": [],
      "payable": false,
      "stateMutability": "nonpayable",
      "type": "function"
    },
    {
      "constant": false,
      "inputs": [],
      "name": "countVotes",
      "outputs": [],
      "payable": false,
      "stateMutability": "nonpayable",
      "type": "function"
    },
    {
      "constant": true,
      "inputs": [],
      "name": "getWinner",
      "outputs": [
        {
          "name": "",
          "type": "string"
        }
      ],
      "payable": false,
      "stateMutability": "view",
      "type": "function"
    },
    {
      "constant": true,
      "inputs": [],
      "name": "getTieWinner",
      "outputs": [
        {
          "name": "",
          "type": "string"
        },
        {
          "name": "",
          "type": "string"
        }
      ],
      "payable": false,
      "stateMutability": "view",
      "type": "function"
    },
    {
      "constant": true,
      "inputs": [
        {
          "name": "_index",
          "type": "uint256"
        }
      ],
      "name": "intToCandidate",
      "outputs": [
        {
          "name": "",
          "type": "string"
        }
      ],
      "payable": false,
      "stateMutability": "view",
      "type": "function"
    },
    {
      "constant": true,
      "inputs": [
        {
          "name": "_name",
          "type": "string"
        }
      ],
      "name": "candidateToInt",
      "outputs": [
        {
          "name": "",
          "type": "uint256"
        }
      ],
      "payable": false,
      "stateMutability": "view",
      "type": "function"
    },
    {
      "constant": false,
      "inputs": [],
      "name": "test",
      "outputs": [
        {
          "name": "",
          "type": "uint256"
        }
      ],
      "payable": false,
      "stateMutability": "nonpayable",
      "type": "function"
    }
  ],
  "bytecode": "0x6060604052601e600a55341561001457600080fd5b33600b60006101000a81548173ffffffffffffffffffffffffffffffffffffffff021916908373ffffffffffffffffffffffffffffffffffffffff16021790555033600c60006101000a81548173ffffffffffffffffffffffffffffffffffffffff021916908373ffffffffffffffffffffffffffffffffffffffff1602179055506000600960006101000a81548160ff021916908315150217905550611c26806100c06000396000f300606060405260043610610180576000357c0100000000000000000000000000000000000000000000000000000000900463ffffffff1680631d9f43431461018557806328d9e6fa146101b15780633e239e1a146101da5780633eb76b9c1461021757806342c1e5871461023a578063462e91ec1461028f5780635216509a146102ec5780635fce2e161461031557806362ba9687146103b157806365c728401461041c5780637266eb5b14610459578063893d8f4c146104825780638da5cb5b146104ab5780638e7ea5b2146105005780638f00cbfa1461058e57806392d66313146105b75780639877ea47146105f65780639f62568d1461061f578063a324ad2414610648578063a6f0e57714610685578063b09b59ac146106c4578063b19999371461071b578063b238ad0e14610752578063b647990a1461079f578063bbe4fd50146107b4578063d9276a49146107dd578063db7093021461080a578063e254fb5c1461087b578063f8a8fd6d14610975578063fa93f8831461099e575b600080fd5b341561019057600080fd5b6101af60048080359060200190919080359060200190919050506109db565b005b34156101bc57600080fd5b6101c4610aeb565b6040518082815260200191505060405180910390f35b34156101e557600080fd5b6101fb6004808035906020019091905050610af1565b604051808260ff1660ff16815260200191505060405180910390f35b341561022257600080fd5b6102386004808035906020019091905050610b1e565b005b341561024557600080fd5b61024d610c6a565b604051808273ffffffffffffffffffffffffffffffffffffffff1673ffffffffffffffffffffffffffffffffffffffff16815260200191505060405180910390f35b341561029a57600080fd5b6102ea600480803590602001908201803590602001908080601f01602080910402602001604051908101604052809392919081815260200183838082843782019150505050505091905050610c90565b005b34156102f757600080fd5b6102ff610ce0565b6040518082815260200191505060405180910390f35b341561032057600080fd5b6103366004808035906020019091905050610ce6565b6040518080602001828103825283818151815260200191508051906020019080838360005b8381101561037657808201518184015260208101905061035b565b50505050905090810190601f1680156103a35780820380516001836020036101000a031916815260200191505b509250505060405180910390f35b34156103bc57600080fd5b610406600480803561ffff1690602001909190803560ff1690602001909190803560ff1690602001909190803560ff1690602001909190803560ff16906020019091905050610da1565b6040518082815260200191505060405180910390f35b341561042757600080fd5b61043d6004808035906020019091905050611045565b604051808260ff1660ff16815260200191505060405180910390f35b341561046457600080fd5b61046c61105b565b6040518082815260200191505060405180910390f35b341561048d57600080fd5b610495611061565b6040518082815260200191505060405180910390f35b34156104b657600080fd5b6104be611067565b604051808273ffffffffffffffffffffffffffffffffffffffff1673ffffffffffffffffffffffffffffffffffffffff16815260200191505060405180910390f35b341561050b57600080fd5b61051361108d565b6040518080602001828103825283818151815260200191508051906020019080838360005b83811015610553578082015181840152602081019050610538565b50505050905090810190601f1680156105805780820380516001836020036101000a031916815260200191505b509250505060405180910390f35b341561059957600080fd5b6105a16111a7565b6040518082815260200191505060405180910390f35b34156105c257600080fd5b6105d860048080359060200190919050506111ad565b604051808261ffff1661ffff16815260200191505060405180910390f35b341561060157600080fd5b610609611258565b6040518082815260200191505060405180910390f35b341561062a57600080fd5b61063261125e565b6040518082815260200191505060405180910390f35b341561065357600080fd5b6106696004808035906020019091905050611264565b604051808260ff1660ff16815260200191505060405180910390f35b341561069057600080fd5b6106aa600480803561ffff1690602001909190505061127a565b604051808215151515815260200191505060405180910390f35b34156106cf57600080fd5b610719600480803561ffff1690602001909190803560ff1690602001909190803560ff1690602001909190803560ff1690602001909190803560ff169060200190919050506112fb565b005b341561072657600080fd5b61073c60048080359060200190919050506113d6565b6040518082815260200191505060405180910390f35b341561075d57600080fd5b610783600480803560ff1690602001909190803561ffff1690602001909190505061140f565b604051808260ff1660ff16815260200191505060405180910390f35b34156107aa57600080fd5b6107b26114db565b005b34156107bf57600080fd5b6107c761157d565b6040518082815260200191505060405180910390f35b34156107e857600080fd5b6107f0611589565b604051808215151515815260200191505060405180910390f35b341561081557600080fd5b610865600480803590602001908201803590602001908080601f0160208091040260200160405190810160405280939291908181526020018383808284378201915050505050509190505061159c565b6040518082815260200191505060405180910390f35b341561088657600080fd5b61088e6116c1565b604051808060200180602001838103835285818151815260200191508051906020019080838360005b838110156108d25780820151818401526020810190506108b7565b50505050905090810190601f1680156108ff5780820380516001836020036101000a031916815260200191505b50838103825284818151815260200191508051906020019080838360005b8381101561093857808201518184015260208101905061091d565b50505050905090810190601f1680156109655780820380516001836020036101000a031916815260200191505b5094505050505060405180910390f35b341561098057600080fd5b610988611862565b6040518082815260200191505060405180910390f35b34156109a957600080fd5b6109bf600480803590602001909190505061186c565b604051808260ff1660ff16815260200191505060405180910390f35b60011515600960009054906101000a900460ff1615151415156109fd57600080fd5b600354617e904201111515610a1157600080fd5b600454617e904201111515610a2557600080fd5b3373ffffffffffffffffffffffffffffffffffffffff16600b60009054906101000a900473ffffffffffffffffffffffffffffffffffffffff1673ffffffffffffffffffffffffffffffffffffffff16141515610a8157600080fd5b600a5481610e100210151515610a9657600080fd5b80610e100260035401600481905550610aad61188d565b816008819055506000600281905550600060058190555060006006819055506000600960006101000a81548160ff0219169083151502179055505050565b60065481565b60006018603c8084811515610b0257fe5b04811515610b0c57fe5b04811515610b1657fe5b069050919050565b600354617e904201111515610b3257600080fd5b600754600854111515610b4457600080fd5b600454421115610b5357610c67565b60025481111515610bfd5760016000808381526020019081526020016000206000828254019250508190555060016007600082825401925050819055507f0bb563d6789cea5d754d1b7f85bfebdfe7a1a86e2e0ffccfb8a6bbdb07826ae260405180806020018281038252600d8152602001807f566f746520636f756e7465642e0000000000000000000000000000000000000081525060200191505060405180910390a1610c66565b7f0bb563d6789cea5d754d1b7f85bfebdfe7a1a86e2e0ffccfb8a6bbdb07826ae26040518080602001828103825260178152602001807f566f746520636f756c64206e6f7420626520726561642100000000000000000081525060200191505060405180910390a15b5b50565b600c60009054906101000a900473ffffffffffffffffffffffffffffffffffffffff1681565b600960025411151515610ca257600080fd5b6001600260008282540192505081905550806001600060025481526020019081526020016000209080519060200190610cdc929190611ac1565b5050565b60025481565b610cee611b41565b600160008381526020019081526020016000208054600181600116156101000203166002900480601f016020809104026020016040519081016040528092919081815260200182805460018160011615610100020316600290048015610d955780601f10610d6a57610100808354040283529160200191610d95565b820191906000526020600020905b815481529060010190602001808311610d7857829003601f168201915b50505050509050919050565b600080610dac611b55565b6107b291505b8761ffff168261ffff161015610df557610dcb8261127a565b15610dde576301e2850083019250610de8565b6301e13380830192505b8180600101925050610db2565b601f816000600c81101515610e0657fe5b602002019060ff16908160ff1681525050610e208861127a565b15610e4c57601d816001600c81101515610e3657fe5b602002019060ff16908160ff1681525050610e6f565b601c816001600c81101515610e5d57fe5b602002019060ff16908160ff16815250505b601f816002600c81101515610e8057fe5b602002019060ff16908160ff1681525050601e816003600c81101515610ea257fe5b602002019060ff16908160ff1681525050601f816004600c81101515610ec457fe5b602002019060ff16908160ff1681525050601e816005600c81101515610ee657fe5b602002019060ff16908160ff1681525050601f816006600c81101515610f0857fe5b602002019060ff16908160ff1681525050601f816007600c81101515610f2a57fe5b602002019060ff16908160ff1681525050601e816008600c81101515610f4c57fe5b602002019060ff16908160ff1681525050601f816009600c81101515610f6e57fe5b602002019060ff16908160ff1681525050601e81600a600c81101515610f9057fe5b602002019060ff16908160ff1681525050601f81600b600c81101515610fb257fe5b602002019060ff16908160ff1681525050600191505b8660ff168261ffff16101561100a57806001830361ffff16600c81101515610fec57fe5b602002015160ff166201518002830192508180600101925050610fc8565b6001860360ff166201518002830192508460ff16610e1002830192508360ff16603c0283019250600083019250829250505095945050505050565b6000611050826118cf565b604001519050919050565b60035481565b60075481565b600b60009054906101000a900473ffffffffffffffffffffffffffffffffffffffff1681565b611095611b41565b600454617e9042011115156110a957600080fd5b6110b1611a3c565b156110f3576040805190810160405280600381526020017f746965000000000000000000000000000000000000000000000000000000000081525090506111a4565b6001600060055481526020019081526020016000208054600181600116156101000203166002900480601f01602080910402602001604051908101604052809291908181526020018280546001816001161561010002031660029004801561119c5780601f106111715761010080835404028352916020019161119c565b820191906000526020600020905b81548152906001019060200180831161117f57829003601f168201915b505050505090505b90565b60055481565b600080600080600092506301e13380858115156111c657fe5b046107b261ffff160191506111e06107b261ffff166113d6565b6111ed8361ffff166113d6565b039050806301e285000283019250806107b2830361ffff16036301e1338002830192505b8483111561124d576112256001830361127a565b15611238576301e2850083039250611242565b6301e13380830392505b600182039150611211565b819350505050919050565b60045481565b60085481565b600061126f826118cf565b602001519050919050565b60008060048361ffff1681151561128d57fe5b0661ffff161415156112a257600090506112f6565b600060648361ffff168115156112b457fe5b0661ffff161415156112c957600190506112f6565b60006101908361ffff168115156112dc57fe5b0661ffff161415156112f157600090506112f6565b600190505b919050565b60001515600960009054906101000a900460ff16151514151561131d57600080fd5b600354617e90420111151561133157600080fd5b600454617e90420111151561134557600080fd5b3373ffffffffffffffffffffffffffffffffffffffff16600b60009054906101000a900473ffffffffffffffffffffffffffffffffffffffff1673ffffffffffffffffffffffffffffffffffffffff161415156113a157600080fd5b6001600960006101000a81548160ff0219169083151502179055506113c98585858585610da1565b6003819055505050505050565b6000600182039150610190828115156113eb57fe5b046064838115156113f857fe5b0460048481151561140557fe5b0403019050919050565b600060018360ff161480611426575060038360ff16145b80611434575060058360ff16145b80611442575060078360ff16145b80611450575060088360ff16145b8061145e5750600a8360ff16145b8061146c5750600c8360ff16145b1561147a57601f90506114d5565b60048360ff16148061148f575060068360ff16145b8061149d575060098360ff16145b806114ab5750600b8360ff16145b156114b957601e90506114d5565b6114c28261127a565b156114d057601d90506114d5565b601c90505b92915050565b6000600454617e9042011115156114f157600080fd5b600190505b6002548111151561157a5760008060055481526020019081526020016000205460008083815260200190815260200160002054141561153757806006819055505b60008060055481526020019081526020016000205460008083815260200190815260200160002054111561156d57806005819055505b80806001019150506114f6565b50565b6000617e904201905090565b600960009054906101000a900460ff1681565b6000806000836040518082805190602001908083835b6020831015156115d757805182526020820191506020810190506020830392506115b2565b6001836020036101000a03801982511681845116808217855250505050505090500191505060405180910390209150600190505b600254811115156116b5576001600082815260200190815260200160002060405180828054600181600116156101000203166002900480156116845780601f10611662576101008083540402835291820191611684565b820191906000526020600020905b815481529060010190602001808311611670575b5050915050604051809103902060001916826000191614156116a8578092506116ba565b808060010191505061160b565b600092505b5050919050565b6116c9611b41565b6116d1611b41565b600454617e9042011115156116e557600080fd5b6116ed611a3c565b15156116f857600080fd5b600160006005548152602001908152602001600020600160006006548152602001908152602001600020818054600181600116156101000203166002900480601f0160208091040260200160405190810160405280929190818152602001828054600181600116156101000203166002900480156117b75780601f1061178c576101008083540402835291602001916117b7565b820191906000526020600020905b81548152906001019060200180831161179a57829003601f168201915b50505050509150808054600181600116156101000203166002900480601f0160208091040260200160405190810160405280929190818152602001828054600181600116156101000203166002900480156118535780601f1061182857610100808354040283529160200191611853565b820191906000526020600020905b81548152906001019060200180831161183657829003601f168201915b50505050509050915091509091565b6000600754905090565b6000603c808381151561187b57fe5b0481151561188557fe5b069050919050565b6000600190505b600254811115156118c4576000806000838152602001908152602001600020819055508080600101915050611894565b600060078190555050565b6118d7611b81565b600080600080600093506118ea866111ad565b856000019061ffff16908161ffff168152505061190c6107b261ffff166113d6565b61191d866000015161ffff166113d6565b039250826301e285000284019350826107b286600001510361ffff16036301e133800284019350600191505b600c8260ff161115156119a15761196482866000015161140f565b60ff166201518002905085848201111561198f5781856020019060ff16908160ff16815250506119a1565b80840193508180600101925050611949565b600191505b6119b88560200151866000015161140f565b60ff168260ff161115156119ff578584620151800111156119ea5781856040019060ff16908160ff16815250506119ff565b620151808401935081806001019250506119a6565b611a0886610af1565b856060019060ff16908160ff1681525050611a228661186c565b856080019060ff16908160ff168152505050505050919050565b6000600454617e904201111515611a5257600080fd5b600080600654815260200190815260200160002054600080600554815260200190815260200160002054148015611a8d575060065460055414155b8015611a9c5750600060055414155b8015611aab5750600060065414155b15611ab95760019050611abe565b600090505b90565b828054600181600116156101000203166002900490600052602060002090601f016020900481019282601f10611b0257805160ff1916838001178555611b30565b82800160010185558215611b30579182015b82811115611b2f578251825591602001919060010190611b14565b5b509050611b3d9190611bd5565b5090565b602060405190810160405280600081525090565b61018060405190810160405280600c905b600060ff16815260200190600190039081611b665790505090565b60e060405190810160405280600061ffff168152602001600060ff168152602001600060ff168152602001600060ff168152602001600060ff168152602001600060ff168152602001600060ff1681525090565b611bf791905b80821115611bf3576000816000905550600101611bdb565b5090565b905600a165627a7a72305820389b7ace10e5678fed18f7190cdf153798e6e3dcce596f5c7dc0eb65488be0620029",
  "source": "pragma solidity ^0.4.7;\r\n\r\nimport \"./dateTime.sol\";\r\n\r\ncontract presidentElection is dateTime\r\n{\r\n    mapping(uint => uint) voteCount; \r\n    mapping(uint => string) candidate; \r\n    //mapping(string => voter) voters;\r\n    uint public numCandidates;\r\n    uint public votePhaseStartTime;\r\n    uint public votePhaseEndTime;\r\n    uint public winnerIndex;\r\n    uint public tieIndex;\r\n    //uint public electionID;\r\n    uint public totalVoteCount;\r\n    uint public maxVoteCount;\r\n    bool public setTime;\r\n    uint MIN_VOTE_TIME = 30;\r\n    address public owner;\r\n    address public voteManager;\r\n\r\n    /*struct voter\r\n    {\r\n        uint electionID;\r\n    }*/\r\n    \r\n    //Modifiers\r\n    modifier voteAlreadyStarted{ //   \r\n        require((now+3600*9) > votePhaseStartTime);\r\n        _;\r\n    }\r\n    modifier voteFinished {// \r\n        require((now+3600*9) > votePhaseEndTime);\r\n        _;\r\n    }\r\n    modifier ownerShip{// \r\n        require(owner == msg.sender);\r\n        _;\r\n    }\r\n    modifier setTimeModi{\r\n        require(setTime == false);\r\n        _;\r\n    }\r\n    modifier alreadySetTimeModi{\r\n        require(setTime == true);\r\n        _;\r\n    }\r\n    modifier voterShip{//  \r\n        require(voteManager == msg.sender);\r\n        _;\r\n    }\r\n\r\n    event logString(string);\r\n    event logInt(uint);\r\n    event voteWinner(string, string);\r\n\r\n    function presidentElection() public { //  \r\n        owner = msg.sender;\r\n        voteManager = msg.sender;\r\n        setTime=false;\r\n    }\r\n    \r\n    function setTimeStamp(uint16 _year, uint8 _month, uint8 _day, uint8 _hour,\r\n        uint8 _minute) setTimeModi voteAlreadyStarted voteFinished ownerShip public\r\n    {\r\n        setTime = true;\r\n        votePhaseStartTime = toTimestamp(_year,_month,_day,_hour,_minute);\r\n    }\r\n    \r\n\r\n    function startVote(uint _maxVoteCount, uint _endHour) alreadySetTimeModi voteAlreadyStarted\r\n        voteFinished ownerShip public\r\n    {\r\n        // \r\n        //  \r\n        require((3600*_endHour) >= MIN_VOTE_TIME);\r\n        votePhaseEndTime = votePhaseStartTime + (3600*_endHour);\r\n        resetVoteCount();\r\n        maxVoteCount = _maxVoteCount;\r\n        numCandidates = 0;\r\n        winnerIndex = 0;\r\n        tieIndex = 0;\r\n        setTime = false;\r\n        //electionID++;\r\n    }\r\n\r\n    function resetVoteCount() private\r\n    {\r\n        // \r\n        for (uint i=1; i<=numCandidates; i++)\r\n        {\r\n            voteCount[i] = 0;\r\n        }\r\n        totalVoteCount =0;\r\n    }\r\n\r\n    function addCandidate(string _name)  public\r\n    {\r\n        // \r\n        require(numCandidates <= 9);\r\n        numCandidates += 1;\r\n        candidate[numCandidates] = _name;\r\n    }\r\n\r\n    function castVote(uint _vote) voteAlreadyStarted public\r\n    {\r\n        //\r\n        require(maxVoteCount > totalVoteCount);\r\n        //require(!getHasVoted(_voter));\r\n        if (now > votePhaseEndTime) return;\r\n\r\n        // record the vote\r\n        if (_vote <= numCandidates) \r\n        {\r\n            voteCount[_vote] += 1;\r\n            totalVoteCount += 1;\r\n            //voters[_voter].electionID = electionID;\r\n            logString(\"Vote counted.\");\r\n        }  \r\n        else \r\n        {\r\n            logString(\"Vote could not be read!\");\r\n        }\r\n    }\r\n\r\n    function countVotes() voteFinished public\r\n    {\r\n        // \r\n        for (uint i=1; i<= numCandidates; i++)\r\n        {\r\n            if (voteCount[i] == voteCount[winnerIndex]) tieIndex = i;\r\n            if (voteCount[i] > voteCount[winnerIndex]) winnerIndex = i;\r\n        }\r\n    }\r\n\r\n    function isTie() constant private voteFinished returns(bool)\r\n    {\r\n        // \r\n        if (voteCount[winnerIndex] == voteCount[tieIndex] \r\n            && winnerIndex != tieIndex\r\n            && winnerIndex != 0\r\n            && tieIndex != 0) return true;\r\n        return false;\r\n    }\r\n\r\n    function getWinner() voteFinished constant public returns(string) \r\n    {\r\n        //\r\n        if (isTie()) return \"tie\";\r\n        return candidate[winnerIndex];\r\n    }\r\n\r\n    function getTieWinner() voteFinished constant public returns(string, string)\r\n    {\r\n        // \r\n        require(isTie());\r\n        return (candidate[winnerIndex], candidate[tieIndex]);\r\n    }\r\n\r\n    function intToCandidate(uint _index) constant public returns(string) \r\n    {\r\n        //   \r\n        return candidate[_index];\r\n    }\r\n\r\n    function candidateToInt(string _name) constant public returns(uint)\r\n    {\r\n        //   \r\n        bytes32 nameHash = sha3(_name);\r\n        for (uint i=1; i<=numCandidates; i++)\r\n        {\r\n            if (nameHash == sha3(candidate[i]))\r\n                return i;\r\n        }\r\n        return 0;\r\n    }\r\n\r\n    function test() public returns(uint){\r\n        return totalVoteCount;\r\n    }\r\n\r\n}\r\n",
  "sourcePath": "/mnt/c/Users/USER/Documents/blockchain_election/dapp_election/contracts/presidentElection.sol",
  "compiler": {
    "name": "solc",
    "version": "0.4.19+commit.c4cbbb05.Emscripten.clang"
  },
  "schemaVersion": "2.0.0",
  "updatedAt": "2018-05-17T07:52:08.727Z"
}