{
  "contractName": "presidentElection",
  "abi": [
    {
      "constant": true,
      "inputs": [],
      "name": "tieIndex",
      "outputs": [
        {
          "name": "",
          "type": "uint256"
        }
      ],
      "payable": false,
      "stateMutability": "view",
      "type": "function"
    },
    {
      "constant": true,
      "inputs": [
        {
          "name": "timestamp",
          "type": "uint256"
        }
      ],
      "name": "getHour",
      "outputs": [
        {
          "name": "",
          "type": "uint8"
        }
      ],
      "payable": false,
      "stateMutability": "pure",
      "type": "function"
    },
    {
      "constant": true,
      "inputs": [],
      "name": "voteManager",
      "outputs": [
        {
          "name": "",
          "type": "address"
        }
      ],
      "payable": false,
      "stateMutability": "view",
      "type": "function"
    },
    {
      "constant": true,
      "inputs": [],
      "name": "numCandidates",
      "outputs": [
        {
          "name": "",
          "type": "uint256"
        }
      ],
      "payable": false,
      "stateMutability": "view",
      "type": "function"
    },
    {
      "constant": true,
      "inputs": [
        {
          "name": "year",
          "type": "uint16"
        },
        {
          "name": "month",
          "type": "uint8"
        },
        {
          "name": "day",
          "type": "uint8"
        },
        {
          "name": "hour",
          "type": "uint8"
        },
        {
          "name": "minute",
          "type": "uint8"
        }
      ],
      "name": "toTimestamp",
      "outputs": [
        {
          "name": "timestamp",
          "type": "uint256"
        }
      ],
      "payable": false,
      "stateMutability": "pure",
      "type": "function"
    },
    {
      "constant": true,
      "inputs": [
        {
          "name": "timestamp",
          "type": "uint256"
        }
      ],
      "name": "getDay",
      "outputs": [
        {
          "name": "",
          "type": "uint8"
        }
      ],
      "payable": false,
      "stateMutability": "pure",
      "type": "function"
    },
    {
      "constant": true,
      "inputs": [],
      "name": "votePhaseStartTime",
      "outputs": [
        {
          "name": "",
          "type": "uint256"
        }
      ],
      "payable": false,
      "stateMutability": "view",
      "type": "function"
    },
    {
      "constant": true,
      "inputs": [],
      "name": "totalVoteCount",
      "outputs": [
        {
          "name": "",
          "type": "uint256"
        }
      ],
      "payable": false,
      "stateMutability": "view",
      "type": "function"
    },
    {
      "constant": true,
      "inputs": [],
      "name": "owner",
      "outputs": [
        {
          "name": "",
          "type": "address"
        }
      ],
      "payable": false,
      "stateMutability": "view",
      "type": "function"
    },
    {
      "constant": true,
      "inputs": [],
      "name": "winnerIndex",
      "outputs": [
        {
          "name": "",
          "type": "uint256"
        }
      ],
      "payable": false,
      "stateMutability": "view",
      "type": "function"
    },
    {
      "constant": true,
      "inputs": [
        {
          "name": "timestamp",
          "type": "uint256"
        }
      ],
      "name": "getYear",
      "outputs": [
        {
          "name": "",
          "type": "uint16"
        }
      ],
      "payable": false,
      "stateMutability": "pure",
      "type": "function"
    },
    {
      "constant": true,
      "inputs": [],
      "name": "votePhaseEndTime",
      "outputs": [
        {
          "name": "",
          "type": "uint256"
        }
      ],
      "payable": false,
      "stateMutability": "view",
      "type": "function"
    },
    {
      "constant": true,
      "inputs": [],
      "name": "maxVoteCount",
      "outputs": [
        {
          "name": "",
          "type": "uint256"
        }
      ],
      "payable": false,
      "stateMutability": "view",
      "type": "function"
    },
    {
      "constant": true,
      "inputs": [
        {
          "name": "timestamp",
          "type": "uint256"
        }
      ],
      "name": "getMonth",
      "outputs": [
        {
          "name": "",
          "type": "uint8"
        }
      ],
      "payable": false,
      "stateMutability": "pure",
      "type": "function"
    },
    {
      "constant": true,
      "inputs": [
        {
          "name": "year",
          "type": "uint16"
        }
      ],
      "name": "isLeapYear",
      "outputs": [
        {
          "name": "",
          "type": "bool"
        }
      ],
      "payable": false,
      "stateMutability": "pure",
      "type": "function"
    },
    {
      "constant": true,
      "inputs": [
        {
          "name": "year",
          "type": "uint256"
        }
      ],
      "name": "leapYearsBefore",
      "outputs": [
        {
          "name": "",
          "type": "uint256"
        }
      ],
      "payable": false,
      "stateMutability": "pure",
      "type": "function"
    },
    {
      "constant": true,
      "inputs": [
        {
          "name": "month",
          "type": "uint8"
        },
        {
          "name": "year",
          "type": "uint16"
        }
      ],
      "name": "getDaysInMonth",
      "outputs": [
        {
          "name": "",
          "type": "uint8"
        }
      ],
      "payable": false,
      "stateMutability": "pure",
      "type": "function"
    },
    {
      "constant": false,
      "inputs": [],
      "name": "getNow",
      "outputs": [
        {
          "name": "",
          "type": "uint256"
        }
      ],
      "payable": false,
      "stateMutability": "nonpayable",
      "type": "function"
    },
    {
      "constant": true,
      "inputs": [],
      "name": "electionID",
      "outputs": [
        {
          "name": "",
          "type": "uint256"
        }
      ],
      "payable": false,
      "stateMutability": "view",
      "type": "function"
    },
    {
      "constant": true,
      "inputs": [
        {
          "name": "timestamp",
          "type": "uint256"
        }
      ],
      "name": "getMinute",
      "outputs": [
        {
          "name": "",
          "type": "uint8"
        }
      ],
      "payable": false,
      "stateMutability": "pure",
      "type": "function"
    },
    {
      "inputs": [],
      "payable": false,
      "stateMutability": "nonpayable",
      "type": "constructor"
    },
    {
      "anonymous": false,
      "inputs": [
        {
          "indexed": false,
          "name": "",
          "type": "string"
        }
      ],
      "name": "logString",
      "type": "event"
    },
    {
      "anonymous": false,
      "inputs": [
        {
          "indexed": false,
          "name": "",
          "type": "uint256"
        }
      ],
      "name": "logInt",
      "type": "event"
    },
    {
      "anonymous": false,
      "inputs": [
        {
          "indexed": false,
          "name": "",
          "type": "string"
        },
        {
          "indexed": false,
          "name": "",
          "type": "string"
        }
      ],
      "name": "voteWinner",
      "type": "event"
    },
    {
      "constant": true,
      "inputs": [
        {
          "name": "_maxVoteCount",
          "type": "uint256"
        },
        {
          "name": "_year",
          "type": "uint16"
        },
        {
          "name": "_month",
          "type": "uint8"
        },
        {
          "name": "_day",
          "type": "uint8"
        },
        {
          "name": "_hour",
          "type": "uint8"
        },
        {
          "name": "_minute",
          "type": "uint8"
        },
        {
          "name": "_endHour",
          "type": "uint8"
        }
      ],
      "name": "startVote",
      "outputs": [],
      "payable": false,
      "stateMutability": "view",
      "type": "function"
    },
    {
      "constant": true,
      "inputs": [
        {
          "name": "_name",
          "type": "string"
        }
      ],
      "name": "addCandidate",
      "outputs": [],
      "payable": false,
      "stateMutability": "view",
      "type": "function"
    },
    {
      "constant": true,
      "inputs": [
        {
          "name": "_vote",
          "type": "uint256"
        },
        {
          "name": "_voter",
          "type": "string"
        }
      ],
      "name": "castVote",
      "outputs": [],
      "payable": false,
      "stateMutability": "view",
      "type": "function"
    },
    {
      "constant": false,
      "inputs": [],
      "name": "countVotes",
      "outputs": [],
      "payable": false,
      "stateMutability": "nonpayable",
      "type": "function"
    },
    {
      "constant": true,
      "inputs": [],
      "name": "getWinner",
      "outputs": [
        {
          "name": "",
          "type": "string"
        }
      ],
      "payable": false,
      "stateMutability": "view",
      "type": "function"
    },
    {
      "constant": true,
      "inputs": [],
      "name": "getTieWinner",
      "outputs": [
        {
          "name": "",
          "type": "string"
        },
        {
          "name": "",
          "type": "string"
        }
      ],
      "payable": false,
      "stateMutability": "view",
      "type": "function"
    },
    {
      "constant": true,
      "inputs": [
        {
          "name": "_index",
          "type": "uint256"
        }
      ],
      "name": "intToCandidate",
      "outputs": [
        {
          "name": "",
          "type": "string"
        }
      ],
      "payable": false,
      "stateMutability": "view",
      "type": "function"
    },
    {
      "constant": true,
      "inputs": [
        {
          "name": "_name",
          "type": "string"
        }
      ],
      "name": "candidateToInt",
      "outputs": [
        {
          "name": "",
          "type": "uint256"
        }
      ],
      "payable": false,
      "stateMutability": "view",
      "type": "function"
    },
    {
      "constant": true,
      "inputs": [
        {
          "name": "_name",
          "type": "string"
        }
      ],
      "name": "test",
      "outputs": [
        {
          "name": "",
          "type": "string"
        }
      ],
      "payable": false,
      "stateMutability": "view",
      "type": "function"
    }
  ],
  "bytecode": "0x6060604052601e600b55341561001457600080fd5b33600c60006101000a81548173ffffffffffffffffffffffffffffffffffffffff021916908373ffffffffffffffffffffffffffffffffffffffff16021790555033600d60006101000a81548173ffffffffffffffffffffffffffffffffffffffff021916908373ffffffffffffffffffffffffffffffffffffffff160217905550611cf8806100a56000396000f300606060405260043610610175576000357c0100000000000000000000000000000000000000000000000000000000900463ffffffff16806328d9e6fa1461017a5780633e239e1a146101a357806342c1e587146101e0578063462e91ec146102355780635216509a146102925780635fce2e16146102bb57806362ba96871461035757806365c72840146103c25780637266eb5b146103ff578063893d8f4c146104285780638da5cb5b146104515780638e7ea5b2146104a65780638f00cbfa1461053457806392d663131461055d57806393610ed61461059c5780639877ea47146106085780639f62568d14610631578063a324ad241461065a578063a6f0e57714610697578063b1999937146106d6578063b238ad0e1461070d578063b647990a1461075a578063bbe4fd501461076f578063d037853a14610798578063db709302146107fe578063e254fb5c1461086f578063f8e78e9a14610969578063f9fbd55414610992578063fa93f88314610a68575b600080fd5b341561018557600080fd5b61018d610aa5565b6040518082815260200191505060405180910390f35b34156101ae57600080fd5b6101c46004808035906020019091905050610aab565b604051808260ff1660ff16815260200191505060405180910390f35b34156101eb57600080fd5b6101f3610ad8565b604051808273ffffffffffffffffffffffffffffffffffffffff1673ffffffffffffffffffffffffffffffffffffffff16815260200191505060405180910390f35b341561024057600080fd5b610290600480803590602001908201803590602001908080601f01602080910402602001604051908101604052809392919081815260200183838082843782019150505050505091905050610afe565b005b341561029d57600080fd5b6102a5610b4e565b6040518082815260200191505060405180910390f35b34156102c657600080fd5b6102dc6004808035906020019091905050610b54565b6040518080602001828103825283818151815260200191508051906020019080838360005b8381101561031c578082015181840152602081019050610301565b50505050905090810190601f1680156103495780820380516001836020036101000a031916815260200191505b509250505060405180910390f35b341561036257600080fd5b6103ac600480803561ffff1690602001909190803560ff1690602001909190803560ff1690602001909190803560ff1690602001909190803560ff16906020019091905050610c0f565b6040518082815260200191505060405180910390f35b34156103cd57600080fd5b6103e36004808035906020019091905050610eb3565b604051808260ff1660ff16815260200191505060405180910390f35b341561040a57600080fd5b610412610ec9565b6040518082815260200191505060405180910390f35b341561043357600080fd5b61043b610ecf565b6040518082815260200191505060405180910390f35b341561045c57600080fd5b610464610ed5565b604051808273ffffffffffffffffffffffffffffffffffffffff1673ffffffffffffffffffffffffffffffffffffffff16815260200191505060405180910390f35b34156104b157600080fd5b6104b9610efb565b6040518080602001828103825283818151815260200191508051906020019080838360005b838110156104f95780820151818401526020810190506104de565b50505050905090810190601f1680156105265780820380516001836020036101000a031916815260200191505b509250505060405180910390f35b341561053f57600080fd5b610547611011565b6040518082815260200191505060405180910390f35b341561056857600080fd5b61057e6004808035906020019091905050611017565b604051808261ffff1661ffff16815260200191505060405180910390f35b34156105a757600080fd5b610606600480803590602001909190803561ffff1690602001909190803560ff1690602001909190803560ff1690602001909190803560ff1690602001909190803560ff1690602001909190803560ff169060200190919050506110c2565b005b341561061357600080fd5b61061b6111c9565b6040518082815260200191505060405180910390f35b341561063c57600080fd5b6106446111cf565b6040518082815260200191505060405180910390f35b341561066557600080fd5b61067b60048080359060200190919050506111d5565b604051808260ff1660ff16815260200191505060405180910390f35b34156106a257600080fd5b6106bc600480803561ffff169060200190919050506111eb565b604051808215151515815260200191505060405180910390f35b34156106e157600080fd5b6106f7600480803590602001909190505061126c565b6040518082815260200191505060405180910390f35b341561071857600080fd5b61073e600480803560ff1690602001909190803561ffff169060200190919050506112a5565b604051808260ff1660ff16815260200191505060405180910390f35b341561076557600080fd5b61076d611371565b005b341561077a57600080fd5b61078261140f565b6040518082815260200191505060405180910390f35b34156107a357600080fd5b6107fc600480803590602001909190803590602001908201803590602001908080601f0160208091040260200160405190810160405280939291908181526020018383808284378201915050505050509190505061141b565b005b341561080957600080fd5b610859600480803590602001908201803590602001908080601f016020809104026020016040519081016040528093929190818152602001838380828437820191505050505050919050506115ee565b6040518082815260200191505060405180910390f35b341561087a57600080fd5b610882611713565b604051808060200180602001838103835285818151815260200191508051906020019080838360005b838110156108c65780820151818401526020810190506108ab565b50505050905090810190601f1680156108f35780820380516001836020036101000a031916815260200191505b50838103825284818151815260200191508051906020019080838360005b8381101561092c578082015181840152602081019050610911565b50505050905090810190601f1680156109595780820380516001836020036101000a031916815260200191505b5094505050505060405180910390f35b341561097457600080fd5b61097c6118b0565b6040518082815260200191505060405180910390f35b341561099d57600080fd5b6109ed600480803590602001908201803590602001908080601f016020809104026020016040519081016040528093929190818152602001838380828437820191505050505050919050506118b6565b6040518080602001828103825283818151815260200191508051906020019080838360005b83811015610a2d578082015181840152602081019050610a12565b50505050905090810190601f168015610a5a5780820380516001836020036101000a031916815260200191505b509250505060405180910390f35b3415610a7357600080fd5b610a8960048080359060200190919050506118c6565b604051808260ff1660ff16815260200191505060405180910390f35b60075481565b60006018603c8084811515610abc57fe5b04811515610ac657fe5b04811515610ad057fe5b069050919050565b600d60009054906101000a900473ffffffffffffffffffffffffffffffffffffffff1681565b601460035411151515610b1057600080fd5b6001600360008282540192505081905550806001600060035481526020019081526020016000209080519060200190610b4a929190611b93565b5050565b60035481565b610b5c611c13565b600160008381526020019081526020016000208054600181600116156101000203166002900480601f016020809104026020016040519081016040528092919081815260200182805460018160011615610100020316600290048015610c035780601f10610bd857610100808354040283529160200191610c03565b820191906000526020600020905b815481529060010190602001808311610be657829003601f168201915b50505050509050919050565b600080610c1a611c27565b6107b291505b8761ffff168261ffff161015610c6357610c39826111eb565b15610c4c576301e2850083019250610c56565b6301e13380830192505b8180600101925050610c20565b601f816000600c81101515610c7457fe5b602002019060ff16908160ff1681525050610c8e886111eb565b15610cba57601d816001600c81101515610ca457fe5b602002019060ff16908160ff1681525050610cdd565b601c816001600c81101515610ccb57fe5b602002019060ff16908160ff16815250505b601f816002600c81101515610cee57fe5b602002019060ff16908160ff1681525050601e816003600c81101515610d1057fe5b602002019060ff16908160ff1681525050601f816004600c81101515610d3257fe5b602002019060ff16908160ff1681525050601e816005600c81101515610d5457fe5b602002019060ff16908160ff1681525050601f816006600c81101515610d7657fe5b602002019060ff16908160ff1681525050601f816007600c81101515610d9857fe5b602002019060ff16908160ff1681525050601e816008600c81101515610dba57fe5b602002019060ff16908160ff1681525050601f816009600c81101515610ddc57fe5b602002019060ff16908160ff1681525050601e81600a600c81101515610dfe57fe5b602002019060ff16908160ff1681525050601f81600b600c81101515610e2057fe5b602002019060ff16908160ff1681525050600191505b8660ff168261ffff161015610e7857806001830361ffff16600c81101515610e5a57fe5b602002015160ff166201518002830192508180600101925050610e36565b6001860360ff166201518002830192508460ff16610e1002830192508360ff16603c0283019250600083019250829250505095945050505050565b6000610ebe826118e7565b604001519050919050565b60045481565b60095481565b600c60009054906101000a900473ffffffffffffffffffffffffffffffffffffffff1681565b610f03611c13565b60055442111515610f1357600080fd5b610f1b611a54565b15610f5d576040805190810160405280600381526020017f7469650000000000000000000000000000000000000000000000000000000000815250905061100e565b6001600060065481526020019081526020016000208054600181600116156101000203166002900480601f0160208091040260200160405190810160405280929190818152602001828054600181600116156101000203166002900480156110065780601f10610fdb57610100808354040283529160200191611006565b820191906000526020600020905b815481529060010190602001808311610fe957829003601f168201915b505050505090505b90565b60065481565b600080600080600092506301e133808581151561103057fe5b046107b261ffff1601915061104a6107b261ffff1661126c565b6110578361ffff1661126c565b039050806301e285000283019250806107b2830361ffff16036301e1338002830192505b848311156110b75761108f600183036111eb565b156110a2576301e28500830392506110ac565b6301e13380830392505b60018203915061107b565b819350505050919050565b6000600454421115156110d457600080fd5b600554421115156110e457600080fd5b600c60009054906101000a900473ffffffffffffffffffffffffffffffffffffffff1673ffffffffffffffffffffffffffffffffffffffff163373ffffffffffffffffffffffffffffffffffffffff1614151561114057600080fd5b600b548260ff16610e100261ffff161015151561115c57600080fd5b6111698787878787610c0f565b9050806004819055508160ff16610e100261ffff16810160058190555061118e611ad5565b87600a819055506000600381905550600060068190555060006007819055506008600081548092919060010191905055505050505050505050565b60055481565b600a5481565b60006111e0826118e7565b602001519050919050565b60008060048361ffff168115156111fe57fe5b0661ffff161415156112135760009050611267565b600060648361ffff1681151561122557fe5b0661ffff1614151561123a5760019050611267565b60006101908361ffff1681151561124d57fe5b0661ffff161415156112625760009050611267565b600190505b919050565b60006001820391506101908281151561128157fe5b0460648381151561128e57fe5b0460048481151561129b57fe5b0403019050919050565b600060018360ff1614806112bc575060038360ff16145b806112ca575060058360ff16145b806112d8575060078360ff16145b806112e6575060088360ff16145b806112f45750600a8360ff16145b806113025750600c8360ff16145b1561131057601f905061136b565b60048360ff161480611325575060068360ff16145b80611333575060098360ff16145b806113415750600b8360ff16145b1561134f57601e905061136b565b611358826111eb565b1561136657601d905061136b565b601c90505b92915050565b60006005544211151561138357600080fd5b600190505b6003548111151561140c576000806006548152602001908152602001600020546000808381526020019081526020016000205414156113c957806007819055505b6000806006548152602001908152602001600020546000808381526020019081526020016000205411156113ff57806006819055505b8080600101915050611388565b50565b6000617e904201905090565b6004544211151561142b57600080fd5b600954600a5411151561143d57600080fd5b61144681611b17565b15151561145257600080fd5b600554421115611461576115ea565b600354821115156115805760016000808481526020019081526020016000206000828254019250508190555060016009600082825401925050819055506008546002826040518082805190602001908083835b6020831015156114d957805182526020820191506020810190506020830392506114b4565b6001836020036101000a0380198251168184511680821785525050505050509050019150509081526020016040518091039020600001819055507f0bb563d6789cea5d754d1b7f85bfebdfe7a1a86e2e0ffccfb8a6bbdb07826ae260405180806020018281038252600d8152602001807f566f746520636f756e7465642e0000000000000000000000000000000000000081525060200191505060405180910390a16115e9565b7f0bb563d6789cea5d754d1b7f85bfebdfe7a1a86e2e0ffccfb8a6bbdb07826ae26040518080602001828103825260178152602001807f566f746520636f756c64206e6f7420626520726561642100000000000000000081525060200191505060405180910390a15b5b5050565b6000806000836040518082805190602001908083835b6020831015156116295780518252602082019150602081019050602083039250611604565b6001836020036101000a03801982511681845116808217855250505050505090500191505060405180910390209150600190505b60035481111515611707576001600082815260200190815260200160002060405180828054600181600116156101000203166002900480156116d65780601f106116b45761010080835404028352918201916116d6565b820191906000526020600020905b8154815290600101906020018083116116c2575b5050915050604051809103902060001916826000191614156116fa5780925061170c565b808060010191505061165d565b600092505b5050919050565b61171b611c13565b611723611c13565b6005544211151561173357600080fd5b61173b611a54565b151561174657600080fd5b600160006006548152602001908152602001600020600160006007548152602001908152602001600020818054600181600116156101000203166002900480601f0160208091040260200160405190810160405280929190818152602001828054600181600116156101000203166002900480156118055780601f106117da57610100808354040283529160200191611805565b820191906000526020600020905b8154815290600101906020018083116117e857829003601f168201915b50505050509150808054600181600116156101000203166002900480601f0160208091040260200160405190810160405280929190818152602001828054600181600116156101000203166002900480156118a15780601f10611876576101008083540402835291602001916118a1565b820191906000526020600020905b81548152906001019060200180831161188457829003601f168201915b50505050509050915091509091565b60085481565b6118be611c13565b819050919050565b6000603c80838115156118d557fe5b048115156118df57fe5b069050919050565b6118ef611c53565b6000806000806000935061190286611017565b856000019061ffff16908161ffff16815250506119246107b261ffff1661126c565b611935866000015161ffff1661126c565b039250826301e285000284019350826107b286600001510361ffff16036301e133800284019350600191505b600c8260ff161115156119b95761197c8286600001516112a5565b60ff16620151800290508584820111156119a75781856020019060ff16908160ff16815250506119b9565b80840193508180600101925050611961565b600191505b6119d0856020015186600001516112a5565b60ff168260ff16111515611a1757858462015180011115611a025781856040019060ff16908160ff1681525050611a17565b620151808401935081806001019250506119be565b611a2086610aab565b856060019060ff16908160ff1681525050611a3a866118c6565b856080019060ff16908160ff168152505050505050919050565b600060055442111515611a6657600080fd5b600080600754815260200190815260200160002054600080600654815260200190815260200160002054148015611aa1575060075460065414155b8015611ab05750600060065414155b8015611abf5750600060075414155b15611acd5760019050611ad2565b600090505b90565b6000600190505b60035481111515611b0c576000806000838152602001908152602001600020819055508080600101915050611adc565b600060098190555050565b60006008546002836040518082805190602001908083835b602083101515611b545780518252602082019150602081019050602083039250611b2f565b6001836020036101000a038019825116818451168082178552505050505050905001915050908152602001604051809103902060000154149050919050565b828054600181600116156101000203166002900490600052602060002090601f016020900481019282601f10611bd457805160ff1916838001178555611c02565b82800160010185558215611c02579182015b82811115611c01578251825591602001919060010190611be6565b5b509050611c0f9190611ca7565b5090565b602060405190810160405280600081525090565b61018060405190810160405280600c905b600060ff16815260200190600190039081611c385790505090565b60e060405190810160405280600061ffff168152602001600060ff168152602001600060ff168152602001600060ff168152602001600060ff168152602001600060ff168152602001600060ff1681525090565b611cc991905b80821115611cc5576000816000905550600101611cad565b5090565b905600a165627a7a7230582058b67e241fab038acd55e1a6d4a0bcb646c2b73327faf56593476268d5df67310029",
  "source": "pragma solidity ^0.4.7;\n\nimport \"./dateTime.sol\";\n\ncontract presidentElection is DateTime\n{\n    mapping(uint => uint) voteCount; \n    mapping(uint => string) candidate; \n    mapping(string => voter) voters;\n    uint public numCandidates;\n    uint public votePhaseStartTime;\n    uint public votePhaseEndTime;\n    uint public winnerIndex;\n    uint public tieIndex;\n    uint public electionID;\n    uint public totalVoteCount;\n    uint public maxVoteCount;\n    uint MIN_VOTE_TIME = 30;\n    address public owner;\n    address public voteManager;\n\n    struct voter\n    {\n        uint electionID;\n    }\n    \n    //Modifiers\n    modifier voteAlreadyStarted{ //   \n        require(now > votePhaseStartTime);\n        _;\n    }\n    modifier voteFinished {// \n        require(now > votePhaseEndTime);\n        _;\n    }\n    modifier ownerShip{// \n        require(msg.sender == owner);\n        _;\n    }\n    modifier voterShip{//  \n        require(msg.sender == voteManager);\n        _;\n    }\n\n    event logString(string);\n    event logInt(uint);\n    event voteWinner(string, string);\n\n    function presidentElection() { //  \n        owner = msg.sender;\n        voteManager = msg.sender;\n    }\n    \n\n    function startVote(uint _maxVoteCount, uint16 _year, uint8 _month, uint8 _day, uint8 _hour,\n        uint8 _minute, uint8 _endHour) constant public voteAlreadyStarted voteFinished ownerShip\n    {\n        // \n        //  \n        require((3600*_endHour) >= MIN_VOTE_TIME);\n        uint timeStamp = toTimestamp(_year,_month,_day,_hour,_minute);\n        votePhaseStartTime = timeStamp;\n        votePhaseEndTime = timeStamp + (3600*_endHour);\n        resetVoteCount();\n        maxVoteCount = _maxVoteCount;\n        numCandidates = 0;\n        winnerIndex = 0;\n        tieIndex = 0;\n        electionID++;\n    }\n\n    function resetVoteCount() private\n    {\n        // \n        for (uint i=1; i<=numCandidates; i++)\n        {\n            voteCount[i] = 0;\n        }\n        totalVoteCount =0;\n    }\n\n    function addCandidate(string _name) constant public\n    {\n        // \n        require(numCandidates <= 20);\n        numCandidates += 1;\n        candidate[numCandidates] = _name;\n    }\n\n    function castVote(uint _vote, string _voter) constant public voteAlreadyStarted\n    {\n        //\n        require(maxVoteCount > totalVoteCount);\n        require(!getHasVoted(_voter));\n        if (now > votePhaseEndTime) return;\n\n        // record the vote\n        if (_vote <= numCandidates) \n        {\n            voteCount[_vote] += 1;\n            totalVoteCount += 1;\n            voters[_voter].electionID = electionID;\n            logString(\"Vote counted.\");\n        }  \n        else \n        {\n            logString(\"Vote could not be read!\");\n        }\n    }\n\n    function countVotes() voteFinished public\n    {\n        // \n        for (uint i=1; i<= numCandidates; i++)\n        {\n            if (voteCount[i] == voteCount[winnerIndex]) tieIndex = i;\n            if (voteCount[i] > voteCount[winnerIndex]) winnerIndex = i;\n        }\n    }\n\n    function isTie() constant private voteFinished returns(bool)\n    {\n        // \n        if (voteCount[winnerIndex] == voteCount[tieIndex] \n            && winnerIndex != tieIndex\n            && winnerIndex != 0\n            && tieIndex != 0) return true;\n        return false;\n    }\n\n    function getWinner() voteFinished constant public returns(string) \n    {\n        //\n        if (isTie()) return \"tie\";\n        return candidate[winnerIndex];\n    }\n\n    function getTieWinner() voteFinished constant public returns(string, string)\n    {\n        // \n        require(isTie());\n        return (candidate[winnerIndex], candidate[tieIndex]);\n    }\n\n    function intToCandidate(uint _index) constant public returns(string) \n    {\n        //   \n        return candidate[_index];\n    }\n\n    function candidateToInt(string _name) constant public returns(uint)\n    {\n        //   \n        bytes32 nameHash = sha3(_name);\n        for (uint i=1; i<=numCandidates; i++)\n        {\n            if (nameHash == sha3(candidate[i]))\n                return i;\n        }\n        return 0;\n    }\n\n    function getHasVoted(string _voter) constant private returns(bool) \n    {\n        //  \n        return voters[_voter].electionID == electionID;\n    }\n\n     function test(string _name) constant public returns(string)\n    {\n        return _name;\n    }\n\n\n}\n",
  "sourcePath": "/Users/lucas/dev/js/blockchain_election/dapp_election/contracts/presidentElection.sol",
  "compiler": {
    "name": "solc",
    "version": "0.4.21+commit.dfe3193c.Emscripten.clang"
  },
  "schemaVersion": "2.0.0",
  "updatedAt": "2018-04-28T09:35:21.649Z"
}