{
  "contractName": "stockholderElection",
  "abi": [
    {
      "constant": true,
      "inputs": [],
      "name": "tieIndex",
      "outputs": [
        {
          "name": "",
          "type": "uint256"
        }
      ],
      "payable": false,
      "stateMutability": "view",
      "type": "function"
    },
    {
      "constant": true,
      "inputs": [],
      "name": "maxStockCount",
      "outputs": [
        {
          "name": "",
          "type": "uint256"
        }
      ],
      "payable": false,
      "stateMutability": "view",
      "type": "function"
    },
    {
      "constant": true,
      "inputs": [
        {
          "name": "timestamp",
          "type": "uint256"
        }
      ],
      "name": "getHour",
      "outputs": [
        {
          "name": "",
          "type": "uint8"
        }
      ],
      "payable": false,
      "stateMutability": "pure",
      "type": "function"
    },
    {
      "constant": true,
      "inputs": [],
      "name": "voteManager",
      "outputs": [
        {
          "name": "",
          "type": "address"
        }
      ],
      "payable": false,
      "stateMutability": "view",
      "type": "function"
    },
    {
      "constant": true,
      "inputs": [],
      "name": "numCandidates",
      "outputs": [
        {
          "name": "",
          "type": "uint256"
        }
      ],
      "payable": false,
      "stateMutability": "view",
      "type": "function"
    },
    {
      "constant": true,
      "inputs": [
        {
          "name": "year",
          "type": "uint16"
        },
        {
          "name": "month",
          "type": "uint8"
        },
        {
          "name": "day",
          "type": "uint8"
        },
        {
          "name": "hour",
          "type": "uint8"
        },
        {
          "name": "minute",
          "type": "uint8"
        }
      ],
      "name": "toTimestamp",
      "outputs": [
        {
          "name": "timestamp",
          "type": "uint256"
        }
      ],
      "payable": false,
      "stateMutability": "pure",
      "type": "function"
    },
    {
      "constant": true,
      "inputs": [
        {
          "name": "timestamp",
          "type": "uint256"
        }
      ],
      "name": "getDay",
      "outputs": [
        {
          "name": "",
          "type": "uint8"
        }
      ],
      "payable": false,
      "stateMutability": "pure",
      "type": "function"
    },
    {
      "constant": true,
      "inputs": [],
      "name": "votePhaseStartTime",
      "outputs": [
        {
          "name": "",
          "type": "uint256"
        }
      ],
      "payable": false,
      "stateMutability": "view",
      "type": "function"
    },
    {
      "constant": true,
      "inputs": [],
      "name": "totalVoteCount",
      "outputs": [
        {
          "name": "",
          "type": "uint256"
        }
      ],
      "payable": false,
      "stateMutability": "view",
      "type": "function"
    },
    {
      "constant": true,
      "inputs": [],
      "name": "owner",
      "outputs": [
        {
          "name": "",
          "type": "address"
        }
      ],
      "payable": false,
      "stateMutability": "view",
      "type": "function"
    },
    {
      "constant": true,
      "inputs": [],
      "name": "winnerIndex",
      "outputs": [
        {
          "name": "",
          "type": "uint256"
        }
      ],
      "payable": false,
      "stateMutability": "view",
      "type": "function"
    },
    {
      "constant": true,
      "inputs": [
        {
          "name": "timestamp",
          "type": "uint256"
        }
      ],
      "name": "getYear",
      "outputs": [
        {
          "name": "",
          "type": "uint16"
        }
      ],
      "payable": false,
      "stateMutability": "pure",
      "type": "function"
    },
    {
      "constant": true,
      "inputs": [],
      "name": "votePhaseEndTime",
      "outputs": [
        {
          "name": "",
          "type": "uint256"
        }
      ],
      "payable": false,
      "stateMutability": "view",
      "type": "function"
    },
    {
      "constant": true,
      "inputs": [
        {
          "name": "timestamp",
          "type": "uint256"
        }
      ],
      "name": "getMonth",
      "outputs": [
        {
          "name": "",
          "type": "uint8"
        }
      ],
      "payable": false,
      "stateMutability": "pure",
      "type": "function"
    },
    {
      "constant": true,
      "inputs": [
        {
          "name": "year",
          "type": "uint16"
        }
      ],
      "name": "isLeapYear",
      "outputs": [
        {
          "name": "",
          "type": "bool"
        }
      ],
      "payable": false,
      "stateMutability": "pure",
      "type": "function"
    },
    {
      "constant": true,
      "inputs": [
        {
          "name": "year",
          "type": "uint256"
        }
      ],
      "name": "leapYearsBefore",
      "outputs": [
        {
          "name": "",
          "type": "uint256"
        }
      ],
      "payable": false,
      "stateMutability": "pure",
      "type": "function"
    },
    {
      "constant": true,
      "inputs": [
        {
          "name": "month",
          "type": "uint8"
        },
        {
          "name": "year",
          "type": "uint16"
        }
      ],
      "name": "getDaysInMonth",
      "outputs": [
        {
          "name": "",
          "type": "uint8"
        }
      ],
      "payable": false,
      "stateMutability": "pure",
      "type": "function"
    },
    {
      "constant": false,
      "inputs": [],
      "name": "getNow",
      "outputs": [
        {
          "name": "",
          "type": "uint256"
        }
      ],
      "payable": false,
      "stateMutability": "nonpayable",
      "type": "function"
    },
    {
      "constant": true,
      "inputs": [],
      "name": "electionID",
      "outputs": [
        {
          "name": "",
          "type": "uint256"
        }
      ],
      "payable": false,
      "stateMutability": "view",
      "type": "function"
    },
    {
      "constant": true,
      "inputs": [
        {
          "name": "timestamp",
          "type": "uint256"
        }
      ],
      "name": "getMinute",
      "outputs": [
        {
          "name": "",
          "type": "uint8"
        }
      ],
      "payable": false,
      "stateMutability": "pure",
      "type": "function"
    },
    {
      "inputs": [],
      "payable": false,
      "stateMutability": "nonpayable",
      "type": "constructor"
    },
    {
      "anonymous": false,
      "inputs": [
        {
          "indexed": false,
          "name": "",
          "type": "string"
        }
      ],
      "name": "logString",
      "type": "event"
    },
    {
      "anonymous": false,
      "inputs": [
        {
          "indexed": false,
          "name": "",
          "type": "uint256"
        }
      ],
      "name": "logInt",
      "type": "event"
    },
    {
      "anonymous": false,
      "inputs": [
        {
          "indexed": false,
          "name": "",
          "type": "string"
        },
        {
          "indexed": false,
          "name": "",
          "type": "string"
        }
      ],
      "name": "voteWinner",
      "type": "event"
    },
    {
      "constant": false,
      "inputs": [
        {
          "name": "_maxStockCount",
          "type": "uint256"
        },
        {
          "name": "_year",
          "type": "uint16"
        },
        {
          "name": "_month",
          "type": "uint8"
        },
        {
          "name": "_day",
          "type": "uint8"
        },
        {
          "name": "_hour",
          "type": "uint8"
        },
        {
          "name": "_minute",
          "type": "uint8"
        },
        {
          "name": "_endHour",
          "type": "uint8"
        }
      ],
      "name": "startVote",
      "outputs": [],
      "payable": false,
      "stateMutability": "nonpayable",
      "type": "function"
    },
    {
      "constant": false,
      "inputs": [
        {
          "name": "_name",
          "type": "string"
        }
      ],
      "name": "addCandidate",
      "outputs": [],
      "payable": false,
      "stateMutability": "nonpayable",
      "type": "function"
    },
    {
      "constant": false,
      "inputs": [
        {
          "name": "_stock",
          "type": "uint256"
        },
        {
          "name": "_voter",
          "type": "string"
        }
      ],
      "name": "register",
      "outputs": [],
      "payable": false,
      "stateMutability": "nonpayable",
      "type": "function"
    },
    {
      "constant": false,
      "inputs": [
        {
          "name": "_voted",
          "type": "string"
        },
        {
          "name": "_voter",
          "type": "string"
        }
      ],
      "name": "castMandate",
      "outputs": [],
      "payable": false,
      "stateMutability": "nonpayable",
      "type": "function"
    },
    {
      "constant": false,
      "inputs": [
        {
          "name": "_vote",
          "type": "uint256"
        },
        {
          "name": "_voter",
          "type": "string"
        }
      ],
      "name": "castVote",
      "outputs": [],
      "payable": false,
      "stateMutability": "nonpayable",
      "type": "function"
    },
    {
      "constant": false,
      "inputs": [],
      "name": "countVotes",
      "outputs": [],
      "payable": false,
      "stateMutability": "nonpayable",
      "type": "function"
    },
    {
      "constant": true,
      "inputs": [],
      "name": "getWinner",
      "outputs": [
        {
          "name": "",
          "type": "string"
        }
      ],
      "payable": false,
      "stateMutability": "view",
      "type": "function"
    },
    {
      "constant": true,
      "inputs": [],
      "name": "getTieWinner",
      "outputs": [
        {
          "name": "",
          "type": "string"
        },
        {
          "name": "",
          "type": "string"
        }
      ],
      "payable": false,
      "stateMutability": "view",
      "type": "function"
    },
    {
      "constant": true,
      "inputs": [
        {
          "name": "_index",
          "type": "uint256"
        }
      ],
      "name": "intToCandidate",
      "outputs": [
        {
          "name": "",
          "type": "string"
        }
      ],
      "payable": false,
      "stateMutability": "view",
      "type": "function"
    },
    {
      "constant": true,
      "inputs": [
        {
          "name": "_name",
          "type": "string"
        }
      ],
      "name": "candidateToInt",
      "outputs": [
        {
          "name": "",
          "type": "uint256"
        }
      ],
      "payable": false,
      "stateMutability": "view",
      "type": "function"
    }
  ],
  "bytecode": "0x6060604052601e600b55341561001457600080fd5b33600c60006101000a81548173ffffffffffffffffffffffffffffffffffffffff021916908373ffffffffffffffffffffffffffffffffffffffff16021790555073ca35b7d915458ef540ade6068dfe2f44e8fa733c600d60006101000a81548173ffffffffffffffffffffffffffffffffffffffff021916908373ffffffffffffffffffffffffffffffffffffffff1602179055506122f6806100b96000396000f300606060405260043610610180576000357c0100000000000000000000000000000000000000000000000000000000900463ffffffff16806328d9e6fa146101855780632d744d84146101ae5780633e239e1a146101d757806341811df91461021457806342c1e587146102b4578063462e91ec146103095780635216509a146103665780635fce2e161461038f57806362ba96871461042b57806365c72840146104965780637266eb5b146104d3578063893d8f4c146104fc5780638da5cb5b146105255780638e7ea5b21461057a5780638f00cbfa1461060857806392d663131461063157806393610ed6146106705780639877ea47146106dc578063a00fd3c814610705578063a324ad241461076b578063a6f0e577146107a8578063b1999937146107e7578063b238ad0e1461081e578063b647990a1461086b578063bbe4fd5014610880578063d037853a146108a9578063db7093021461090f578063e254fb5c14610980578063f8e78e9a14610a7a578063fa93f88314610aa3575b600080fd5b341561019057600080fd5b610198610ae0565b6040518082815260200191505060405180910390f35b34156101b957600080fd5b6101c1610ae6565b6040518082815260200191505060405180910390f35b34156101e257600080fd5b6101f86004808035906020019091905050610aec565b604051808260ff1660ff16815260200191505060405180910390f35b341561021f57600080fd5b6102b2600480803590602001908201803590602001908080601f0160208091040260200160405190810160405280939291908181526020018383808284378201915050505050509190803590602001908201803590602001908080601f01602080910402602001604051908101604052809392919081815260200183838082843782019150505050505091905050610b19565b005b34156102bf57600080fd5b6102c7610e21565b604051808273ffffffffffffffffffffffffffffffffffffffff1673ffffffffffffffffffffffffffffffffffffffff16815260200191505060405180910390f35b341561031457600080fd5b610364600480803590602001908201803590602001908080601f01602080910402602001604051908101604052809392919081815260200183838082843782019150505050505091905050610e47565b005b341561037157600080fd5b610379610e97565b6040518082815260200191505060405180910390f35b341561039a57600080fd5b6103b06004808035906020019091905050610e9d565b6040518080602001828103825283818151815260200191508051906020019080838360005b838110156103f05780820151818401526020810190506103d5565b50505050905090810190601f16801561041d5780820380516001836020036101000a031916815260200191505b509250505060405180910390f35b341561043657600080fd5b610480600480803561ffff1690602001909190803560ff1690602001909190803560ff1690602001909190803560ff1690602001909190803560ff16906020019091905050610f58565b6040518082815260200191505060405180910390f35b34156104a157600080fd5b6104b760048080359060200190919050506111fc565b604051808260ff1660ff16815260200191505060405180910390f35b34156104de57600080fd5b6104e6611212565b6040518082815260200191505060405180910390f35b341561050757600080fd5b61050f611218565b6040518082815260200191505060405180910390f35b341561053057600080fd5b61053861121e565b604051808273ffffffffffffffffffffffffffffffffffffffff1673ffffffffffffffffffffffffffffffffffffffff16815260200191505060405180910390f35b341561058557600080fd5b61058d611244565b6040518080602001828103825283818151815260200191508051906020019080838360005b838110156105cd5780820151818401526020810190506105b2565b50505050905090810190601f1680156105fa5780820380516001836020036101000a031916815260200191505b509250505060405180910390f35b341561061357600080fd5b61061b61135a565b6040518082815260200191505060405180910390f35b341561063c57600080fd5b6106526004808035906020019091905050611360565b604051808261ffff1661ffff16815260200191505060405180910390f35b341561067b57600080fd5b6106da600480803590602001909190803561ffff1690602001909190803560ff1690602001909190803560ff1690602001909190803560ff1690602001909190803560ff1690602001909190803560ff1690602001909190505061140b565b005b34156106e757600080fd5b6106ef611512565b6040518082815260200191505060405180910390f35b341561071057600080fd5b610769600480803590602001909190803590602001908201803590602001908080601f01602080910402602001604051908101604052809392919081815260200183838082843782019150505050505091905050611518565b005b341561077657600080fd5b61078c6004808035906020019091905050611616565b604051808260ff1660ff16815260200191505060405180910390f35b34156107b357600080fd5b6107cd600480803561ffff1690602001909190505061162c565b604051808215151515815260200191505060405180910390f35b34156107f257600080fd5b61080860048080359060200190919050506116ad565b6040518082815260200191505060405180910390f35b341561082957600080fd5b61084f600480803560ff1690602001909190803561ffff169060200190919050506116e6565b604051808260ff1660ff16815260200191505060405180910390f35b341561087657600080fd5b61087e6117b2565b005b341561088b57600080fd5b610893611850565b6040518082815260200191505060405180910390f35b34156108b457600080fd5b61090d600480803590602001909190803590602001908201803590602001908080601f0160208091040260200160405190810160405280939291908181526020018383808284378201915050505050509190505061185c565b005b341561091a57600080fd5b61096a600480803590602001908201803590602001908080601f01602080910402602001604051908101604052809392919081815260200183838082843782019150505050505091905050611b7f565b6040518082815260200191505060405180910390f35b341561098b57600080fd5b610993611ca4565b604051808060200180602001838103835285818151815260200191508051906020019080838360005b838110156109d75780820151818401526020810190506109bc565b50505050905090810190601f168015610a045780820380516001836020036101000a031916815260200191505b50838103825284818151815260200191508051906020019080838360005b83811015610a3d578082015181840152602081019050610a22565b50505050905090810190601f168015610a6a5780820380516001836020036101000a031916815260200191505b5094505050505060405180910390f35b3415610a8557600080fd5b610a8d611e41565b6040518082815260200191505060405180910390f35b3415610aae57600080fd5b610ac46004808035906020019091905050611e47565b604051808260ff1660ff16815260200191505060405180910390f35b60075481565b600a5481565b60006018603c8084811515610afd57fe5b04811515610b0757fe5b04811515610b1157fe5b069050919050565b60045442111515610b2957600080fd5b610b3282611e68565b1515610b3d57600080fd5b610b4681611e68565b1515610b5157600080fd5b600554421115610b6057610e1d565b600115156002836040518082805190602001908083835b602083101515610b9c5780518252602082019150602081019050602083039250610b77565b6001836020036101000a038019825116818451168082178552505050505050905001915050908152602001604051809103902060020160009054906101000a900460ff1615151415610db3576002816040518082805190602001908083835b602083101515610c205780518252602082019150602081019050602083039250610bfb565b6001836020036101000a0380198251168184511680821785525050505050509050019150509081526020016040518091039020600001546002836040518082805190602001908083835b602083101515610c8f5780518252602082019150602081019050602083039250610c6a565b6001836020036101000a03801982511681845116808217855250505050505090500191505090815260200160405180910390206000016000828254019250508190555060006002826040518082805190602001908083835b602083101515610d0c5780518252602082019150602081019050602083039250610ce7565b6001836020036101000a0380198251168184511680821785525050505050509050019150509081526020016040518091039020600001819055507f0bb563d6789cea5d754d1b7f85bfebdfe7a1a86e2e0ffccfb8a6bbdb07826ae26040518080602001828103825260118152602001807f4d616e6461746520636f6d706c6574652e00000000000000000000000000000081525060200191505060405180910390a1610e1c565b7f0bb563d6789cea5d754d1b7f85bfebdfe7a1a86e2e0ffccfb8a6bbdb07826ae260405180806020018281038252601a8152602001807f4d616e6461746520636f756c64206e6f7420626520726561642100000000000081525060200191505060405180910390a15b5b5050565b600d60009054906101000a900473ffffffffffffffffffffffffffffffffffffffff1681565b601460035411151515610e5957600080fd5b6001600360008282540192505081905550806001600060035481526020019081526020016000209080519060200190610e93929190612191565b5050565b60035481565b610ea5612211565b600160008381526020019081526020016000208054600181600116156101000203166002900480601f016020809104026020016040519081016040528092919081815260200182805460018160011615610100020316600290048015610f4c5780601f10610f2157610100808354040283529160200191610f4c565b820191906000526020600020905b815481529060010190602001808311610f2f57829003601f168201915b50505050509050919050565b600080610f63612225565b6107b291505b8761ffff168261ffff161015610fac57610f828261162c565b15610f95576301e2850083019250610f9f565b6301e13380830192505b8180600101925050610f69565b601f816000600c81101515610fbd57fe5b602002019060ff16908160ff1681525050610fd78861162c565b1561100357601d816001600c81101515610fed57fe5b602002019060ff16908160ff1681525050611026565b601c816001600c8110151561101457fe5b602002019060ff16908160ff16815250505b601f816002600c8110151561103757fe5b602002019060ff16908160ff1681525050601e816003600c8110151561105957fe5b602002019060ff16908160ff1681525050601f816004600c8110151561107b57fe5b602002019060ff16908160ff1681525050601e816005600c8110151561109d57fe5b602002019060ff16908160ff1681525050601f816006600c811015156110bf57fe5b602002019060ff16908160ff1681525050601f816007600c811015156110e157fe5b602002019060ff16908160ff1681525050601e816008600c8110151561110357fe5b602002019060ff16908160ff1681525050601f816009600c8110151561112557fe5b602002019060ff16908160ff1681525050601e81600a600c8110151561114757fe5b602002019060ff16908160ff1681525050601f81600b600c8110151561116957fe5b602002019060ff16908160ff1681525050600191505b8660ff168261ffff1610156111c157806001830361ffff16600c811015156111a357fe5b602002015160ff16620151800283019250818060010192505061117f565b6001860360ff166201518002830192508460ff16610e1002830192508360ff16603c0283019250600083019250829250505095945050505050565b600061120782611eed565b604001519050919050565b60045481565b60095481565b600c60009054906101000a900473ffffffffffffffffffffffffffffffffffffffff1681565b61124c612211565b6005544211151561125c57600080fd5b61126461205a565b156112a6576040805190810160405280600381526020017f74696500000000000000000000000000000000000000000000000000000000008152509050611357565b6001600060065481526020019081526020016000208054600181600116156101000203166002900480601f01602080910402602001604051908101604052809291908181526020018280546001816001161561010002031660029004801561134f5780601f106113245761010080835404028352916020019161134f565b820191906000526020600020905b81548152906001019060200180831161133257829003601f168201915b505050505090505b90565b60065481565b600080600080600092506301e133808581151561137957fe5b046107b261ffff160191506113936107b261ffff166116ad565b6113a08361ffff166116ad565b039050806301e285000283019250806107b2830361ffff16036301e1338002830192505b84831115611400576113d86001830361162c565b156113eb576301e28500830392506113f5565b6301e13380830392505b6001820391506113c4565b819350505050919050565b60006004544211151561141d57600080fd5b6005544211151561142d57600080fd5b600c60009054906101000a900473ffffffffffffffffffffffffffffffffffffffff1673ffffffffffffffffffffffffffffffffffffffff163373ffffffffffffffffffffffffffffffffffffffff1614151561148957600080fd5b600b548260ff16610e100261ffff16101515156114a557600080fd5b6114b28787878787610f58565b9050806004819055508160ff16610e100261ffff1681016005819055506114d76120db565b87600a819055506000600381905550600060068190555060006007819055506008600081548092919060010191905055505050505050505050565b60055481565b816002826040518082805190602001908083835b602083101515611551578051825260208201915060208101905060208303925061152c565b6001836020036101000a03801982511681845116808217855250505050505090500191505090815260200160405180910390206000018190555060016002826040518082805190602001908083835b6020831015156115c557805182526020820191506020810190506020830392506115a0565b6001836020036101000a038019825116818451168082178552505050505050905001915050908152602001604051809103902060020160006101000a81548160ff0219169083151502179055505050565b600061162182611eed565b602001519050919050565b60008060048361ffff1681151561163f57fe5b0661ffff1614151561165457600090506116a8565b600060648361ffff1681151561166657fe5b0661ffff1614151561167b57600190506116a8565b60006101908361ffff1681151561168e57fe5b0661ffff161415156116a357600090506116a8565b600190505b919050565b6000600182039150610190828115156116c257fe5b046064838115156116cf57fe5b046004848115156116dc57fe5b0403019050919050565b600060018360ff1614806116fd575060038360ff16145b8061170b575060058360ff16145b80611719575060078360ff16145b80611727575060088360ff16145b806117355750600a8360ff16145b806117435750600c8360ff16145b1561175157601f90506117ac565b60048360ff161480611766575060068360ff16145b80611774575060098360ff16145b806117825750600b8360ff16145b1561179057601e90506117ac565b6117998261162c565b156117a757601d90506117ac565b601c90505b92915050565b6000600554421115156117c457600080fd5b600190505b6003548111151561184d5760008060065481526020019081526020016000205460008083815260200190815260200160002054141561180a57806007819055505b60008060065481526020019081526020016000205460008083815260200190815260200160002054111561184057806006819055505b80806001019150506117c9565b50565b6000617e904201905090565b6004544211151561186c57600080fd5b61187581612115565b15151561188157600080fd5b61188a81611e68565b151561189557600080fd5b6005544211156118a457611b7b565b60035482111515611b11576002816040518082805190602001908083835b6020831015156118e757805182526020820191506020810190506020830392506118c2565b6001836020036101000a038019825116818451168082178552505050505050905001915050908152602001604051809103902060000154600080848152602001908152602001600020600082825401925050819055506002816040518082805190602001908083835b6020831015156119755780518252602082019150602081019050602083039250611950565b6001836020036101000a03801982511681845116808217855250505050505090500191505090815260200160405180910390206000015460096000828254019250508190555060006002826040518082805190602001908083835b6020831015156119f557805182526020820191506020810190506020830392506119d0565b6001836020036101000a0380198251168184511680821785525050505050509050019150509081526020016040518091039020600001819055506008546002826040518082805190602001908083835b602083101515611a6a5780518252602082019150602081019050602083039250611a45565b6001836020036101000a0380198251168184511680821785525050505050509050019150509081526020016040518091039020600101819055507f0bb563d6789cea5d754d1b7f85bfebdfe7a1a86e2e0ffccfb8a6bbdb07826ae260405180806020018281038252600d8152602001807f566f746520636f756e7465642e0000000000000000000000000000000000000081525060200191505060405180910390a1611b7a565b7f0bb563d6789cea5d754d1b7f85bfebdfe7a1a86e2e0ffccfb8a6bbdb07826ae26040518080602001828103825260178152602001807f566f746520636f756c64206e6f7420626520726561642100000000000000000081525060200191505060405180910390a15b5b5050565b6000806000836040518082805190602001908083835b602083101515611bba5780518252602082019150602081019050602083039250611b95565b6001836020036101000a03801982511681845116808217855250505050505090500191505060405180910390209150600190505b60035481111515611c9857600160008281526020019081526020016000206040518082805460018160011615610100020316600290048015611c675780601f10611c45576101008083540402835291820191611c67565b820191906000526020600020905b815481529060010190602001808311611c53575b505091505060405180910390206000191682600019161415611c8b57809250611c9d565b8080600101915050611bee565b600092505b5050919050565b611cac612211565b611cb4612211565b60055442111515611cc457600080fd5b611ccc61205a565b1515611cd757600080fd5b600160006006548152602001908152602001600020600160006007548152602001908152602001600020818054600181600116156101000203166002900480601f016020809104026020016040519081016040528092919081815260200182805460018160011615610100020316600290048015611d965780601f10611d6b57610100808354040283529160200191611d96565b820191906000526020600020905b815481529060010190602001808311611d7957829003601f168201915b50505050509150808054600181600116156101000203166002900480601f016020809104026020016040519081016040528092919081815260200182805460018160011615610100020316600290048015611e325780601f10611e0757610100808354040283529160200191611e32565b820191906000526020600020905b815481529060010190602001808311611e1557829003601f168201915b50505050509050915091509091565b60085481565b6000603c8083811515611e5657fe5b04811515611e6057fe5b069050919050565b60006002826040518082805190602001908083835b602083101515611ea25780518252602082019150602081019050602083039250611e7d565b6001836020036101000a038019825116818451168082178552505050505050905001915050908152602001604051809103902060020160009054906101000a900460ff169050919050565b611ef5612251565b60008060008060009350611f0886611360565b856000019061ffff16908161ffff1681525050611f2a6107b261ffff166116ad565b611f3b866000015161ffff166116ad565b039250826301e285000284019350826107b286600001510361ffff16036301e133800284019350600191505b600c8260ff16111515611fbf57611f828286600001516116e6565b60ff1662015180029050858482011115611fad5781856020019060ff16908160ff1681525050611fbf565b80840193508180600101925050611f67565b600191505b611fd6856020015186600001516116e6565b60ff168260ff1611151561201d578584620151800111156120085781856040019060ff16908160ff168152505061201d565b62015180840193508180600101925050611fc4565b61202686610aec565b856060019060ff16908160ff168152505061204086611e47565b856080019060ff16908160ff168152505050505050919050565b60006005544211151561206c57600080fd5b6000806007548152602001908152602001600020546000806006548152602001908152602001600020541480156120a7575060075460065414155b80156120b65750600060065414155b80156120c55750600060075414155b156120d357600190506120d8565b600090505b90565b6000600190505b600354811115156121125760008060008381526020019081526020016000208190555080806001019150506120e2565b50565b60006008546002836040518082805190602001908083835b602083101515612152578051825260208201915060208101905060208303925061212d565b6001836020036101000a038019825116818451168082178552505050505050905001915050908152602001604051809103902060010154149050919050565b828054600181600116156101000203166002900490600052602060002090601f016020900481019282601f106121d257805160ff1916838001178555612200565b82800160010185558215612200579182015b828111156121ff5782518255916020019190600101906121e4565b5b50905061220d91906122a5565b5090565b602060405190810160405280600081525090565b61018060405190810160405280600c905b600060ff168152602001906001900390816122365790505090565b60e060405190810160405280600061ffff168152602001600060ff168152602001600060ff168152602001600060ff168152602001600060ff168152602001600060ff168152602001600060ff1681525090565b6122c791905b808211156122c35760008160009055506001016122ab565b5090565b905600a165627a7a723058203e9790ecf822b677abee7a01e9be6dd26c115cf72b8022bccd9808dd49f188370029",
  "source": "pragma solidity ^0.4.7;\r\n\r\nimport \"./dateTime.sol\";\r\n\r\ncontract stockholderElection is dateTime\r\n{\r\n    mapping(uint => uint) voteCount; \r\n    mapping(uint => string) candidate; \r\n    mapping(string => voter) voters;\r\n    uint public numCandidates;\r\n    uint public votePhaseStartTime;\r\n    uint public votePhaseEndTime;\r\n    uint public winnerIndex;\r\n    uint public tieIndex;\r\n    uint public electionID;\r\n    uint public totalVoteCount;\r\n    uint public maxStockCount;\r\n    uint MIN_VOTE_TIME = 30;\r\n    address public owner;\r\n    address public voteManager;\r\n\r\n    struct voter\r\n    {\r\n        uint stockCount;\r\n        uint electionID;\r\n        bool isRegistered;\r\n    }\r\n    \r\n    //Modifiers\r\n    modifier voteAlreadyStarted{ //   \r\n        require(now > votePhaseStartTime);\r\n        _;\r\n    }\r\n    modifier voteFinished { \r\n        require(now > votePhaseEndTime);\r\n        _;\r\n    }\r\n    modifier ownerShip{\r\n        require(msg.sender == owner);\r\n        _;\r\n    }\r\n    modifier voterShip{\r\n        require(msg.sender == voteManager);\r\n        _;\r\n    }\r\n\r\n    event logString(string);\r\n    event logInt(uint);\r\n    event voteWinner(string, string);\r\n\r\n    function stockholderElection() {\r\n        owner = msg.sender;\r\n        voteManager = 0xca35b7d915458ef540ade6068dfe2f44e8fa733c;\r\n    }\r\n    \r\n    function startVote(uint _maxStockCount, uint16 _year, uint8 _month, uint8 _day, uint8 _hour,\r\n        uint8 _minute, uint8 _endHour) public voteAlreadyStarted voteFinished ownerShip\r\n    {\r\n        require((3600*_endHour) >= MIN_VOTE_TIME);\r\n        uint timeStamp = toTimestamp(_year,_month,_day,_hour,_minute);\r\n        votePhaseStartTime = timeStamp;\r\n        votePhaseEndTime = timeStamp + (3600*_endHour);\r\n        resetVoteCount();\r\n        maxStockCount = _maxStockCount;\r\n        numCandidates = 0;\r\n        winnerIndex = 0;\r\n        tieIndex = 0;\r\n        electionID++;\r\n    }\r\n\r\n    function resetVoteCount() private\r\n    {\r\n        for (uint i=1; i<=numCandidates; i++)\r\n        {\r\n            voteCount[i] = 0;\r\n        }\r\n    }\r\n\r\n    function addCandidate(string _name) public\r\n    {\r\n        require(numCandidates <= 20);\r\n        numCandidates += 1;\r\n        candidate[numCandidates] = _name;\r\n    }\r\n\r\n    function register(uint _stock, string _voter) public\r\n    {\r\n        voters[_voter].stockCount = _stock;\r\n        voters[_voter].isRegistered = true;\r\n    }\r\n    \r\n    function castMandate(string _voted, string _voter) public voteAlreadyStarted {\r\n        require(getRegistrationStatus(_voted));\r\n        require(getRegistrationStatus(_voter));\r\n         if (now > votePhaseEndTime) return;\r\n         \r\n         if(voters[_voted].isRegistered == true){\r\n             voters[_voted].stockCount += voters[_voter].stockCount;\r\n             voters[_voter].stockCount = 0;\r\n             logString(\"Mandate complete.\");\r\n         }\r\n         else \r\n         {\r\n            logString(\"Mandate could not be read!\");\r\n         }\r\n         \r\n    }\r\n\r\n    function castVote(uint _vote, string _voter) public voteAlreadyStarted\r\n    {\r\n        require(!getHasVoted(_voter));\r\n        require(getRegistrationStatus(_voter));\r\n        if (now > votePhaseEndTime) return;\r\n\r\n        // record the vote\r\n        if (_vote <= numCandidates) \r\n        {\r\n            voteCount[_vote] += voters[_voter].stockCount;\r\n            totalVoteCount += voters[_voter].stockCount;\r\n            voters[_voter].stockCount = 0;\r\n            voters[_voter].electionID = electionID;\r\n            logString(\"Vote counted.\");\r\n        }  \r\n        else \r\n        {\r\n            logString(\"Vote could not be read!\");\r\n        }\r\n    }\r\n\r\n    function countVotes() voteFinished public\r\n    {\r\n        for (uint i=1; i<= numCandidates; i++)\r\n        {\r\n            if (voteCount[i] == voteCount[winnerIndex]) tieIndex = i;\r\n            if (voteCount[i] > voteCount[winnerIndex]) winnerIndex = i;\r\n        }\r\n    }\r\n\r\n    function isTie() constant private voteFinished returns(bool)\r\n    {\r\n        if (voteCount[winnerIndex] == voteCount[tieIndex] \r\n            && winnerIndex != tieIndex\r\n            && winnerIndex != 0\r\n            && tieIndex != 0) return true;\r\n        return false;\r\n    }\r\n\r\n    function getWinner() voteFinished constant public returns(string) \r\n    {\r\n        if (isTie()) return \"tie\";\r\n        return candidate[winnerIndex];\r\n    }\r\n\r\n    function getTieWinner() voteFinished constant public returns(string, string)\r\n    {\r\n        require(isTie());\r\n        return (candidate[winnerIndex], candidate[tieIndex]);\r\n    }\r\n\r\n    function intToCandidate(uint _index) constant public returns(string) \r\n    {\r\n        return candidate[_index];\r\n    }\r\n\r\n    function candidateToInt(string _name) constant public returns(uint)\r\n    {\r\n        bytes32 nameHash = sha3(_name);\r\n        for (uint i=1; i<=numCandidates; i++)\r\n        {\r\n            if (nameHash == sha3(candidate[i]))\r\n                return i;\r\n        }\r\n        return 0;\r\n    }\r\n\r\n    function getHasVoted(string _voter) constant private returns(bool) \r\n    {\r\n        return voters[_voter].electionID == electionID;\r\n    }\r\n\r\n    function getRegistrationStatus(string _voter) constant private returns(bool)\r\n    {\r\n        return voters[_voter].isRegistered;\r\n    }\r\n\r\n}\r\n",
  "sourcePath": "/mnt/c/Users/USER/Documents/blockchain_election/dapp_election/contracts/stockholderElection.sol",
  "compiler": {
    "name": "solc",
    "version": "0.4.19+commit.c4cbbb05.Emscripten.clang"
  },
  "schemaVersion": "2.0.0",
  "updatedAt": "2018-05-22T05:39:37.363Z"
}