{
  "contractName": "stockholderElection",
  "abi": [
    {
      "constant": true,
      "inputs": [],
      "name": "tieIndex",
      "outputs": [
        {
          "name": "",
          "type": "uint256"
        }
      ],
      "payable": false,
      "stateMutability": "view",
      "type": "function"
    },
    {
      "constant": true,
      "inputs": [],
      "name": "maxStockCount",
      "outputs": [
        {
          "name": "",
          "type": "uint256"
        }
      ],
      "payable": false,
      "stateMutability": "view",
      "type": "function"
    },
    {
      "constant": true,
      "inputs": [],
      "name": "voteManager",
      "outputs": [
        {
          "name": "",
          "type": "address"
        }
      ],
      "payable": false,
      "stateMutability": "view",
      "type": "function"
    },
    {
      "constant": true,
      "inputs": [],
      "name": "numCandidates",
      "outputs": [
        {
          "name": "",
          "type": "uint256"
        }
      ],
      "payable": false,
      "stateMutability": "view",
      "type": "function"
    },
    {
      "constant": true,
      "inputs": [],
      "name": "totalVoteCount",
      "outputs": [
        {
          "name": "",
          "type": "uint256"
        }
      ],
      "payable": false,
      "stateMutability": "view",
      "type": "function"
    },
    {
      "constant": true,
      "inputs": [],
      "name": "owner",
      "outputs": [
        {
          "name": "",
          "type": "address"
        }
      ],
      "payable": false,
      "stateMutability": "view",
      "type": "function"
    },
    {
      "constant": true,
      "inputs": [],
      "name": "winnerIndex",
      "outputs": [
        {
          "name": "",
          "type": "uint256"
        }
      ],
      "payable": false,
      "stateMutability": "view",
      "type": "function"
    },
    {
      "constant": true,
      "inputs": [],
      "name": "votePhaseEndTime",
      "outputs": [
        {
          "name": "",
          "type": "uint256"
        }
      ],
      "payable": false,
      "stateMutability": "view",
      "type": "function"
    },
    {
      "constant": true,
      "inputs": [],
      "name": "electionID",
      "outputs": [
        {
          "name": "",
          "type": "uint256"
        }
      ],
      "payable": false,
      "stateMutability": "view",
      "type": "function"
    },
    {
      "inputs": [],
      "payable": false,
      "stateMutability": "nonpayable",
      "type": "constructor"
    },
    {
      "anonymous": false,
      "inputs": [
        {
          "indexed": false,
          "name": "",
          "type": "string"
        }
      ],
      "name": "logString",
      "type": "event"
    },
    {
      "anonymous": false,
      "inputs": [
        {
          "indexed": false,
          "name": "",
          "type": "uint256"
        }
      ],
      "name": "logInt",
      "type": "event"
    },
    {
      "anonymous": false,
      "inputs": [
        {
          "indexed": false,
          "name": "",
          "type": "string"
        },
        {
          "indexed": false,
          "name": "",
          "type": "string"
        }
      ],
      "name": "voteWinner",
      "type": "event"
    },
    {
      "constant": false,
      "inputs": [
        {
          "name": "_maxStockCount",
          "type": "uint256"
        },
        {
          "name": "_votePhaseLengthInSeconds",
          "type": "uint256"
        },
        {
          "name": "_choice1",
          "type": "string"
        },
        {
          "name": "_choice2",
          "type": "string"
        }
      ],
      "name": "startVote",
      "outputs": [],
      "payable": false,
      "stateMutability": "nonpayable",
      "type": "function"
    },
    {
      "constant": false,
      "inputs": [
        {
          "name": "_name",
          "type": "string"
        }
      ],
      "name": "addCandidate",
      "outputs": [],
      "payable": false,
      "stateMutability": "nonpayable",
      "type": "function"
    },
    {
      "constant": false,
      "inputs": [
        {
          "name": "_stock",
          "type": "uint256"
        },
        {
          "name": "_voter",
          "type": "string"
        }
      ],
      "name": "register",
      "outputs": [],
      "payable": false,
      "stateMutability": "nonpayable",
      "type": "function"
    },
    {
      "constant": false,
      "inputs": [
        {
          "name": "_voted",
          "type": "string"
        },
        {
          "name": "_voter",
          "type": "string"
        }
      ],
      "name": "castMandate",
      "outputs": [],
      "payable": false,
      "stateMutability": "nonpayable",
      "type": "function"
    },
    {
      "constant": false,
      "inputs": [
        {
          "name": "_vote",
          "type": "uint256"
        },
        {
          "name": "_voter",
          "type": "string"
        }
      ],
      "name": "castVote",
      "outputs": [],
      "payable": false,
      "stateMutability": "nonpayable",
      "type": "function"
    },
    {
      "constant": false,
      "inputs": [],
      "name": "countVotes",
      "outputs": [],
      "payable": false,
      "stateMutability": "nonpayable",
      "type": "function"
    },
    {
      "constant": true,
      "inputs": [],
      "name": "getWinner",
      "outputs": [
        {
          "name": "",
          "type": "string"
        }
      ],
      "payable": false,
      "stateMutability": "view",
      "type": "function"
    },
    {
      "constant": true,
      "inputs": [],
      "name": "getTieWinner",
      "outputs": [
        {
          "name": "",
          "type": "string"
        },
        {
          "name": "",
          "type": "string"
        }
      ],
      "payable": false,
      "stateMutability": "view",
      "type": "function"
    },
    {
      "constant": true,
      "inputs": [
        {
          "name": "_index",
          "type": "uint256"
        }
      ],
      "name": "intToCandidate",
      "outputs": [
        {
          "name": "",
          "type": "string"
        }
      ],
      "payable": false,
      "stateMutability": "view",
      "type": "function"
    },
    {
      "constant": true,
      "inputs": [
        {
          "name": "_name",
          "type": "string"
        }
      ],
      "name": "candidateToInt",
      "outputs": [
        {
          "name": "",
          "type": "uint256"
        }
      ],
      "payable": false,
      "stateMutability": "view",
      "type": "function"
    }
  ],
  "bytecode": "0x6060604052601e600a55341561001457600080fd5b33600b60006101000a81548173ffffffffffffffffffffffffffffffffffffffff021916908373ffffffffffffffffffffffffffffffffffffffff16021790555073ca35b7d915458ef540ade6068dfe2f44e8fa733c600c60006101000a81548173ffffffffffffffffffffffffffffffffffffffff021916908373ffffffffffffffffffffffffffffffffffffffff1602179055506118d8806100b96000396000f300606060405260043610610107576000357c0100000000000000000000000000000000000000000000000000000000900463ffffffff16806328d9e6fa1461010c5780632d744d841461013557806341811df91461015e57806342c1e587146101fe578063462e91ec146102535780635216509a146102b05780635fce2e16146102d9578063893d8f4c146103755780638da5cb5b1461039e5780638e7ea5b2146103f35780638f00cbfa146104815780639877ea47146104aa5780639e84e269146104d3578063a00fd3c814610585578063b647990a146105eb578063d037853a14610600578063db70930214610666578063e254fb5c146106d7578063f8e78e9a146107d1575b600080fd5b341561011757600080fd5b61011f6107fa565b6040518082815260200191505060405180910390f35b341561014057600080fd5b610148610800565b6040518082815260200191505060405180910390f35b341561016957600080fd5b6101fc600480803590602001908201803590602001908080601f0160208091040260200160405190810160405280939291908181526020018383808284378201915050505050509190803590602001908201803590602001908080601f01602080910402602001604051908101604052809392919081815260200183838082843782019150505050505091905050610806565b005b341561020957600080fd5b610211610b11565b604051808273ffffffffffffffffffffffffffffffffffffffff1673ffffffffffffffffffffffffffffffffffffffff16815260200191505060405180910390f35b341561025e57600080fd5b6102ae600480803590602001908201803590602001908080601f01602080910402602001604051908101604052809392919081815260200183838082843782019150505050505091905050610b37565b005b34156102bb57600080fd5b6102c3610b87565b6040518082815260200191505060405180910390f35b34156102e457600080fd5b6102fa6004808035906020019091905050610b8d565b6040518080602001828103825283818151815260200191508051906020019080838360005b8381101561033a57808201518184015260208101905061031f565b50505050905090810190601f1680156103675780820380516001836020036101000a031916815260200191505b509250505060405180910390f35b341561038057600080fd5b610388610c48565b6040518082815260200191505060405180910390f35b34156103a957600080fd5b6103b1610c4e565b604051808273ffffffffffffffffffffffffffffffffffffffff1673ffffffffffffffffffffffffffffffffffffffff16815260200191505060405180910390f35b34156103fe57600080fd5b610406610c74565b6040518080602001828103825283818151815260200191508051906020019080838360005b8381101561044657808201518184015260208101905061042b565b50505050905090810190601f1680156104735780820380516001836020036101000a031916815260200191505b509250505060405180910390f35b341561048c57600080fd5b610494610d8a565b6040518082815260200191505060405180910390f35b34156104b557600080fd5b6104bd610d90565b6040518082815260200191505060405180910390f35b34156104de57600080fd5b610583600480803590602001909190803590602001909190803590602001908201803590602001908080601f0160208091040260200160405190810160405280939291908181526020018383808284378201915050505050509190803590602001908201803590602001908080601f01602080910402602001604051908101604052809392919081815260200183838082843782019150505050505091905050610d96565b005b341561059057600080fd5b6105e9600480803590602001909190803590602001908201803590602001908080601f01602080910402602001604051908101604052809392919081815260200183838082843782019150505050505091905050610ead565b005b34156105f657600080fd5b6105fe610fab565b005b341561060b57600080fd5b610664600480803590602001909190803590602001908201803590602001908080601f01602080910402602001604051908101604052809392919081815260200183838082843782019150505050505091905050611049565b005b341561067157600080fd5b6106c1600480803590602001908201803590602001908080601f0160208091040260200160405190810160405280939291908181526020018383808284378201915050505050509190505061136f565b6040518082815260200191505060405180910390f35b34156106e257600080fd5b6106ea611494565b604051808060200180602001838103835285818151815260200191508051906020019080838360005b8381101561072e578082015181840152602081019050610713565b50505050905090810190601f16801561075b5780820380516001836020036101000a031916815260200191505b50838103825284818151815260200191508051906020019080838360005b83811015610794578082015181840152602081019050610779565b50505050905090810190601f1680156107c15780820380516001836020036101000a031916815260200191505b5094505050505060405180910390f35b34156107dc57600080fd5b6107e4611631565b6040518082815260200191505060405180910390f35b60065481565b60095481565b6008546009541015151561081957600080fd5b61082282611637565b151561082d57600080fd5b61083681611637565b151561084157600080fd5b60045442111561085057610b0d565b600115156002836040518082805190602001908083835b60208310151561088c5780518252602082019150602081019050602083039250610867565b6001836020036101000a038019825116818451168082178552505050505050905001915050908152602001604051809103902060020160009054906101000a900460ff1615151415610aa3576002816040518082805190602001908083835b60208310151561091057805182526020820191506020810190506020830392506108eb565b6001836020036101000a0380198251168184511680821785525050505050509050019150509081526020016040518091039020600001546002836040518082805190602001908083835b60208310151561097f578051825260208201915060208101905060208303925061095a565b6001836020036101000a03801982511681845116808217855250505050505090500191505090815260200160405180910390206000016000828254019250508190555060006002826040518082805190602001908083835b6020831015156109fc57805182526020820191506020810190506020830392506109d7565b6001836020036101000a0380198251168184511680821785525050505050509050019150509081526020016040518091039020600001819055507f0bb563d6789cea5d754d1b7f85bfebdfe7a1a86e2e0ffccfb8a6bbdb07826ae26040518080602001828103825260118152602001807f4d616e6461746520636f6d706c6574652e00000000000000000000000000000081525060200191505060405180910390a1610b0c565b7f0bb563d6789cea5d754d1b7f85bfebdfe7a1a86e2e0ffccfb8a6bbdb07826ae260405180806020018281038252601a8152602001807f4d616e6461746520636f756c64206e6f7420626520726561642100000000000081525060200191505060405180910390a15b5b5050565b600c60009054906101000a900473ffffffffffffffffffffffffffffffffffffffff1681565b601460035411151515610b4957600080fd5b6001600360008282540192505081905550806001600060035481526020019081526020016000209080519060200190610b839291906117f3565b5050565b60035481565b610b95611873565b600160008381526020019081526020016000208054600181600116156101000203166002900480601f016020809104026020016040519081016040528092919081815260200182805460018160011615610100020316600290048015610c3c5780601f10610c1157610100808354040283529160200191610c3c565b820191906000526020600020905b815481529060010190602001808311610c1f57829003601f168201915b50505050509050919050565b60085481565b600b60009054906101000a900473ffffffffffffffffffffffffffffffffffffffff1681565b610c7c611873565b60045442111515610c8c57600080fd5b610c946116bc565b15610cd6576040805190810160405280600381526020017f74696500000000000000000000000000000000000000000000000000000000008152509050610d87565b6001600060055481526020019081526020016000208054600181600116156101000203166002900480601f016020809104026020016040519081016040528092919081815260200182805460018160011615610100020316600290048015610d7f5780601f10610d5457610100808354040283529160200191610d7f565b820191906000526020600020905b815481529060010190602001808311610d6257829003601f168201915b505050505090505b90565b60055481565b60045481565b60045442111515610da657600080fd5b600b60009054906101000a900473ffffffffffffffffffffffffffffffffffffffff1673ffffffffffffffffffffffffffffffffffffffff163373ffffffffffffffffffffffffffffffffffffffff16141515610e0257600080fd5b600a548310151515610e1357600080fd5b824201600481905550610e2461173d565b836009819055506002600381905550600060058190555060006006819055508160016000600181526020019081526020016000209080519060200190610e6b9291906117f3565b508060016000600281526020019081526020016000209080519060200190610e949291906117f3565b5060076000815480929190600101919050555050505050565b816002826040518082805190602001908083835b602083101515610ee65780518252602082019150602081019050602083039250610ec1565b6001836020036101000a03801982511681845116808217855250505050505090500191505090815260200160405180910390206000018190555060016002826040518082805190602001908083835b602083101515610f5a5780518252602082019150602081019050602083039250610f35565b6001836020036101000a038019825116818451168082178552505050505050905001915050908152602001604051809103902060020160006101000a81548160ff0219169083151502179055505050565b600060045442111515610fbd57600080fd5b600190505b600354811115156110465760008060055481526020019081526020016000205460008083815260200190815260200160002054141561100357806006819055505b60008060055481526020019081526020016000205460008083815260200190815260200160002054111561103957806005819055505b8080600101915050610fc2565b50565b6008546009541015151561105c57600080fd5b61106581611777565b15151561107157600080fd5b61107a81611637565b151561108557600080fd5b6004544211156110945761136b565b60035482111515611301576002816040518082805190602001908083835b6020831015156110d757805182526020820191506020810190506020830392506110b2565b6001836020036101000a038019825116818451168082178552505050505050905001915050908152602001604051809103902060000154600080848152602001908152602001600020600082825401925050819055506002816040518082805190602001908083835b6020831015156111655780518252602082019150602081019050602083039250611140565b6001836020036101000a03801982511681845116808217855250505050505090500191505090815260200160405180910390206000015460086000828254019250508190555060006002826040518082805190602001908083835b6020831015156111e557805182526020820191506020810190506020830392506111c0565b6001836020036101000a0380198251168184511680821785525050505050509050019150509081526020016040518091039020600001819055506007546002826040518082805190602001908083835b60208310151561125a5780518252602082019150602081019050602083039250611235565b6001836020036101000a0380198251168184511680821785525050505050509050019150509081526020016040518091039020600101819055507f0bb563d6789cea5d754d1b7f85bfebdfe7a1a86e2e0ffccfb8a6bbdb07826ae260405180806020018281038252600d8152602001807f566f746520636f756e7465642e0000000000000000000000000000000000000081525060200191505060405180910390a161136a565b7f0bb563d6789cea5d754d1b7f85bfebdfe7a1a86e2e0ffccfb8a6bbdb07826ae26040518080602001828103825260178152602001807f566f746520636f756c64206e6f7420626520726561642100000000000000000081525060200191505060405180910390a15b5b5050565b6000806000836040518082805190602001908083835b6020831015156113aa5780518252602082019150602081019050602083039250611385565b6001836020036101000a03801982511681845116808217855250505050505090500191505060405180910390209150600190505b60035481111515611488576001600082815260200190815260200160002060405180828054600181600116156101000203166002900480156114575780601f10611435576101008083540402835291820191611457565b820191906000526020600020905b815481529060010190602001808311611443575b50509150506040518091039020600019168260001916141561147b5780925061148d565b80806001019150506113de565b600092505b5050919050565b61149c611873565b6114a4611873565b600454421115156114b457600080fd5b6114bc6116bc565b15156114c757600080fd5b600160006005548152602001908152602001600020600160006006548152602001908152602001600020818054600181600116156101000203166002900480601f0160208091040260200160405190810160405280929190818152602001828054600181600116156101000203166002900480156115865780601f1061155b57610100808354040283529160200191611586565b820191906000526020600020905b81548152906001019060200180831161156957829003601f168201915b50505050509150808054600181600116156101000203166002900480601f0160208091040260200160405190810160405280929190818152602001828054600181600116156101000203166002900480156116225780601f106115f757610100808354040283529160200191611622565b820191906000526020600020905b81548152906001019060200180831161160557829003601f168201915b50505050509050915091509091565b60075481565b60006002826040518082805190602001908083835b602083101515611671578051825260208201915060208101905060208303925061164c565b6001836020036101000a038019825116818451168082178552505050505050905001915050908152602001604051809103902060020160009054906101000a900460ff169050919050565b6000600454421115156116ce57600080fd5b600080600654815260200190815260200160002054600080600554815260200190815260200160002054148015611709575060065460055414155b80156117185750600060055414155b80156117275750600060065414155b15611735576001905061173a565b600090505b90565b6000600190505b60035481111515611774576000806000838152602001908152602001600020819055508080600101915050611744565b50565b60006007546002836040518082805190602001908083835b6020831015156117b4578051825260208201915060208101905060208303925061178f565b6001836020036101000a038019825116818451168082178552505050505050905001915050908152602001604051809103902060010154149050919050565b828054600181600116156101000203166002900490600052602060002090601f016020900481019282601f1061183457805160ff1916838001178555611862565b82800160010185558215611862579182015b82811115611861578251825591602001919060010190611846565b5b50905061186f9190611887565b5090565b602060405190810160405280600081525090565b6118a991905b808211156118a557600081600090555060010161188d565b5090565b905600a165627a7a723058205da9f0a5ba0cdb39b7c5da69767ea3c340930a83f621f36f7efbd52cb2869f190029",
  "source": "pragma solidity ^0.4.7;\n\ncontract stockholderElection\n{\n    mapping(uint => uint) voteCount; \n    mapping(uint => string) candidate; \n    mapping(string => voter) voters;\n    uint public numCandidates;\n    uint public votePhaseEndTime;\n    uint public winnerIndex;\n    uint public tieIndex;\n    uint public electionID;\n    uint public totalVoteCount;\n    uint public maxStockCount;\n    uint MIN_VOTE_TIME = 30;\n    address public owner;\n    address public voteManager;\n\n    struct voter\n    {\n        uint stockCount;\n        uint electionID;\n        bool isRegistered;\n    }\n    \n    //Modifiers\n    modifier voteUnFinished{\n        require(maxStockCount >= totalVoteCount);\n        _;\n    }\n    modifier voteFinished { \n        require(now > votePhaseEndTime);\n        _;\n    }\n    modifier ownerShip{\n        require(msg.sender == owner);\n        _;\n    }\n    modifier voterShip{\n        require(msg.sender == voteManager);\n        _;\n    }\n\n    event logString(string);\n    event logInt(uint);\n    event voteWinner(string, string);\n\n    function stockholderElection() {\n        owner = msg.sender;\n        voteManager = 0xca35b7d915458ef540ade6068dfe2f44e8fa733c;\n    }\n    \n    function startVote(uint _maxStockCount, uint _votePhaseLengthInSeconds, \n                                  string _choice1, \n                                  string _choice2) public voteFinished ownerShip\n    {\n        require(_votePhaseLengthInSeconds >= MIN_VOTE_TIME);\n        votePhaseEndTime = now + _votePhaseLengthInSeconds;\n        resetVoteCount();\n        maxStockCount = _maxStockCount;\n        numCandidates = 2;\n        winnerIndex = 0;\n        tieIndex = 0;\n        candidate[1] = _choice1;\n        candidate[2] = _choice2;\n        electionID++;\n    }\n\n    function resetVoteCount() private\n    {\n        for (uint i=1; i<=numCandidates; i++)\n        {\n            voteCount[i] = 0;\n        }\n    }\n\n    function addCandidate(string _name) public\n    {\n        require(numCandidates <= 20);\n        numCandidates += 1;\n        candidate[numCandidates] = _name;\n    }\n\n    function register(uint _stock, string _voter) public\n    {\n        voters[_voter].stockCount = _stock;\n        voters[_voter].isRegistered = true;\n    }\n    \n    function castMandate(string _voted, string _voter) public voteUnFinished {\n        require(getRegistrationStatus(_voted));\n        require(getRegistrationStatus(_voter));\n         if (now > votePhaseEndTime) return;\n         \n         if(voters[_voted].isRegistered == true){\n             voters[_voted].stockCount += voters[_voter].stockCount;\n             voters[_voter].stockCount = 0;\n             logString(\"Mandate complete.\");\n         }\n         else \n         {\n            logString(\"Mandate could not be read!\");\n         }\n         \n    }\n\n    function castVote(uint _vote, string _voter) public voteUnFinished\n    {\n        require(!getHasVoted(_voter));\n        require(getRegistrationStatus(_voter));\n        if (now > votePhaseEndTime) return;\n\n        // record the vote\n        if (_vote <= numCandidates) \n        {\n            voteCount[_vote] += voters[_voter].stockCount;\n            totalVoteCount += voters[_voter].stockCount;\n            voters[_voter].stockCount = 0;\n            voters[_voter].electionID = electionID;\n            logString(\"Vote counted.\");\n        }  \n        else \n        {\n            logString(\"Vote could not be read!\");\n        }\n    }\n\n    function countVotes() voteFinished public\n    {\n        for (uint i=1; i<= numCandidates; i++)\n        {\n            if (voteCount[i] == voteCount[winnerIndex]) tieIndex = i;\n            if (voteCount[i] > voteCount[winnerIndex]) winnerIndex = i;\n        }\n    }\n\n    function isTie() constant private voteFinished returns(bool)\n    {\n        if (voteCount[winnerIndex] == voteCount[tieIndex] \n            && winnerIndex != tieIndex\n            && winnerIndex != 0\n            && tieIndex != 0) return true;\n        return false;\n    }\n\n    function getWinner() voteFinished constant public returns(string) \n    {\n        if (isTie()) return \"tie\";\n        return candidate[winnerIndex];\n    }\n\n    function getTieWinner() voteFinished constant public returns(string, string)\n    {\n        require(isTie());\n        return (candidate[winnerIndex], candidate[tieIndex]);\n    }\n\n    function intToCandidate(uint _index) constant public returns(string) \n    {\n        return candidate[_index];\n    }\n\n    function candidateToInt(string _name) constant public returns(uint)\n    {\n        bytes32 nameHash = sha3(_name);\n        for (uint i=1; i<=numCandidates; i++)\n        {\n            if (nameHash == sha3(candidate[i]))\n                return i;\n        }\n        return 0;\n    }\n\n    function getHasVoted(string _voter) constant private returns(bool) \n    {\n        return voters[_voter].electionID == electionID;\n    }\n\n    function getRegistrationStatus(string _voter) constant private returns(bool)\n    {\n        return voters[_voter].isRegistered;\n    }\n\n}\n",
  "sourcePath": "/Users/lucas/dev/js/blockchain_election/dapp_election/contracts/stockholderElection.sol",
  "compiler": {
    "name": "solc",
    "version": "0.4.21+commit.dfe3193c.Emscripten.clang"
  },
  "schemaVersion": "2.0.0",
  "updatedAt": "2018-04-13T09:06:34.947Z"
}