{
  "contractName": "stockholderElection",
  "abi": [
    {
      "constant": true,
      "inputs": [],
      "name": "tieIndex",
      "outputs": [
        {
          "name": "",
          "type": "uint256"
        }
      ],
      "payable": false,
      "stateMutability": "view",
      "type": "function"
    },
    {
      "constant": true,
      "inputs": [],
      "name": "maxStockCount",
      "outputs": [
        {
          "name": "",
          "type": "uint256"
        }
      ],
      "payable": false,
      "stateMutability": "view",
      "type": "function"
    },
    {
      "constant": true,
      "inputs": [
        {
          "name": "timestamp",
          "type": "uint256"
        }
      ],
      "name": "getHour",
      "outputs": [
        {
          "name": "",
          "type": "uint8"
        }
      ],
      "payable": false,
      "stateMutability": "pure",
      "type": "function"
    },
    {
      "constant": true,
      "inputs": [],
      "name": "voteManager",
      "outputs": [
        {
          "name": "",
          "type": "address"
        }
      ],
      "payable": false,
      "stateMutability": "view",
      "type": "function"
    },
    {
      "constant": true,
      "inputs": [],
      "name": "numCandidates",
      "outputs": [
        {
          "name": "",
          "type": "uint256"
        }
      ],
      "payable": false,
      "stateMutability": "view",
      "type": "function"
    },
    {
      "constant": true,
      "inputs": [
        {
          "name": "year",
          "type": "uint16"
        },
        {
          "name": "month",
          "type": "uint8"
        },
        {
          "name": "day",
          "type": "uint8"
        },
        {
          "name": "hour",
          "type": "uint8"
        },
        {
          "name": "minute",
          "type": "uint8"
        }
      ],
      "name": "toTimestamp",
      "outputs": [
        {
          "name": "timestamp",
          "type": "uint256"
        }
      ],
      "payable": false,
      "stateMutability": "pure",
      "type": "function"
    },
    {
      "constant": true,
      "inputs": [
        {
          "name": "timestamp",
          "type": "uint256"
        }
      ],
      "name": "getDay",
      "outputs": [
        {
          "name": "",
          "type": "uint8"
        }
      ],
      "payable": false,
      "stateMutability": "pure",
      "type": "function"
    },
    {
      "constant": true,
      "inputs": [],
      "name": "votePhaseStartTime",
      "outputs": [
        {
          "name": "",
          "type": "uint256"
        }
      ],
      "payable": false,
      "stateMutability": "view",
      "type": "function"
    },
    {
      "constant": true,
      "inputs": [],
      "name": "totalVoteCount",
      "outputs": [
        {
          "name": "",
          "type": "uint256"
        }
      ],
      "payable": false,
      "stateMutability": "view",
      "type": "function"
    },
    {
      "constant": true,
      "inputs": [],
      "name": "owner",
      "outputs": [
        {
          "name": "",
          "type": "address"
        }
      ],
      "payable": false,
      "stateMutability": "view",
      "type": "function"
    },
    {
      "constant": true,
      "inputs": [],
      "name": "winnerIndex",
      "outputs": [
        {
          "name": "",
          "type": "uint256"
        }
      ],
      "payable": false,
      "stateMutability": "view",
      "type": "function"
    },
    {
      "constant": true,
      "inputs": [
        {
          "name": "timestamp",
          "type": "uint256"
        }
      ],
      "name": "getYear",
      "outputs": [
        {
          "name": "",
          "type": "uint16"
        }
      ],
      "payable": false,
      "stateMutability": "pure",
      "type": "function"
    },
    {
      "constant": true,
      "inputs": [],
      "name": "votePhaseEndTime",
      "outputs": [
        {
          "name": "",
          "type": "uint256"
        }
      ],
      "payable": false,
      "stateMutability": "view",
      "type": "function"
    },
    {
      "constant": true,
      "inputs": [
        {
          "name": "timestamp",
          "type": "uint256"
        }
      ],
      "name": "getMonth",
      "outputs": [
        {
          "name": "",
          "type": "uint8"
        }
      ],
      "payable": false,
      "stateMutability": "pure",
      "type": "function"
    },
    {
      "constant": true,
      "inputs": [
        {
          "name": "year",
          "type": "uint16"
        }
      ],
      "name": "isLeapYear",
      "outputs": [
        {
          "name": "",
          "type": "bool"
        }
      ],
      "payable": false,
      "stateMutability": "pure",
      "type": "function"
    },
    {
      "constant": true,
      "inputs": [
        {
          "name": "year",
          "type": "uint256"
        }
      ],
      "name": "leapYearsBefore",
      "outputs": [
        {
          "name": "",
          "type": "uint256"
        }
      ],
      "payable": false,
      "stateMutability": "pure",
      "type": "function"
    },
    {
      "constant": true,
      "inputs": [
        {
          "name": "month",
          "type": "uint8"
        },
        {
          "name": "year",
          "type": "uint16"
        }
      ],
      "name": "getDaysInMonth",
      "outputs": [
        {
          "name": "",
          "type": "uint8"
        }
      ],
      "payable": false,
      "stateMutability": "pure",
      "type": "function"
    },
    {
      "constant": false,
      "inputs": [],
      "name": "getNow",
      "outputs": [
        {
          "name": "",
          "type": "uint256"
        }
      ],
      "payable": false,
      "stateMutability": "nonpayable",
      "type": "function"
    },
    {
      "constant": true,
      "inputs": [],
      "name": "electionID",
      "outputs": [
        {
          "name": "",
          "type": "uint256"
        }
      ],
      "payable": false,
      "stateMutability": "view",
      "type": "function"
    },
    {
      "constant": true,
      "inputs": [
        {
          "name": "timestamp",
          "type": "uint256"
        }
      ],
      "name": "getMinute",
      "outputs": [
        {
          "name": "",
          "type": "uint8"
        }
      ],
      "payable": false,
      "stateMutability": "pure",
      "type": "function"
    },
    {
      "inputs": [],
      "payable": false,
      "stateMutability": "nonpayable",
      "type": "constructor"
    },
    {
      "anonymous": false,
      "inputs": [
        {
          "indexed": false,
          "name": "",
          "type": "string"
        }
      ],
      "name": "logString",
      "type": "event"
    },
    {
      "anonymous": false,
      "inputs": [
        {
          "indexed": false,
          "name": "",
          "type": "uint256"
        }
      ],
      "name": "logInt",
      "type": "event"
    },
    {
      "anonymous": false,
      "inputs": [
        {
          "indexed": false,
          "name": "",
          "type": "string"
        },
        {
          "indexed": false,
          "name": "",
          "type": "string"
        }
      ],
      "name": "voteWinner",
      "type": "event"
    },
    {
      "constant": false,
      "inputs": [
        {
          "name": "_maxStockCount",
          "type": "uint256"
        },
        {
          "name": "_year",
          "type": "uint16"
        },
        {
          "name": "_month",
          "type": "uint8"
        },
        {
          "name": "_day",
          "type": "uint8"
        },
        {
          "name": "_hour",
          "type": "uint8"
        },
        {
          "name": "_minute",
          "type": "uint8"
        },
        {
          "name": "_endHour",
          "type": "uint8"
        }
      ],
      "name": "startVote",
      "outputs": [],
      "payable": false,
      "stateMutability": "nonpayable",
      "type": "function"
    },
    {
      "constant": false,
      "inputs": [
        {
          "name": "_name",
          "type": "string"
        }
      ],
      "name": "addCandidate",
      "outputs": [],
      "payable": false,
      "stateMutability": "nonpayable",
      "type": "function"
    },
    {
      "constant": false,
      "inputs": [
        {
          "name": "_stock",
          "type": "uint256"
        },
        {
          "name": "_voter",
          "type": "string"
        }
      ],
      "name": "register",
      "outputs": [],
      "payable": false,
      "stateMutability": "nonpayable",
      "type": "function"
    },
    {
      "constant": false,
      "inputs": [
        {
          "name": "_voted",
          "type": "string"
        },
        {
          "name": "_voter",
          "type": "string"
        }
      ],
      "name": "castMandate",
      "outputs": [],
      "payable": false,
      "stateMutability": "nonpayable",
      "type": "function"
    },
    {
      "constant": false,
      "inputs": [
        {
          "name": "_vote",
          "type": "uint256"
        },
        {
          "name": "_voter",
          "type": "string"
        }
      ],
      "name": "castVote",
      "outputs": [],
      "payable": false,
      "stateMutability": "nonpayable",
      "type": "function"
    },
    {
      "constant": false,
      "inputs": [],
      "name": "countVotes",
      "outputs": [],
      "payable": false,
      "stateMutability": "nonpayable",
      "type": "function"
    },
    {
      "constant": true,
      "inputs": [],
      "name": "getWinner",
      "outputs": [
        {
          "name": "",
          "type": "string"
        }
      ],
      "payable": false,
      "stateMutability": "view",
      "type": "function"
    },
    {
      "constant": true,
      "inputs": [],
      "name": "getTieWinner",
      "outputs": [
        {
          "name": "",
          "type": "string"
        },
        {
          "name": "",
          "type": "string"
        }
      ],
      "payable": false,
      "stateMutability": "view",
      "type": "function"
    },
    {
      "constant": true,
      "inputs": [
        {
          "name": "_index",
          "type": "uint256"
        }
      ],
      "name": "intToCandidate",
      "outputs": [
        {
          "name": "",
          "type": "string"
        }
      ],
      "payable": false,
      "stateMutability": "view",
      "type": "function"
    },
    {
      "constant": true,
      "inputs": [
        {
          "name": "_name",
          "type": "string"
        }
      ],
      "name": "candidateToInt",
      "outputs": [
        {
          "name": "",
          "type": "uint256"
        }
      ],
      "payable": false,
      "stateMutability": "view",
      "type": "function"
    }
  ],
  "bytecode": "0x6080604052601e600b5534801561001557600080fd5b5033600c60006101000a81548173ffffffffffffffffffffffffffffffffffffffff021916908373ffffffffffffffffffffffffffffffffffffffff16021790555073ca35b7d915458ef540ade6068dfe2f44e8fa733c600d60006101000a81548173ffffffffffffffffffffffffffffffffffffffff021916908373ffffffffffffffffffffffffffffffffffffffff160217905550612397806100bb6000396000f300608060405260043610610180576000357c0100000000000000000000000000000000000000000000000000000000900463ffffffff16806328d9e6fa146101855780632d744d84146101b05780633e239e1a146101db57806341811df91461022257806342c1e587146102d1578063462e91ec146103285780635216509a146103915780635fce2e16146103bc57806362ba96871461046257806365c72840146104db5780637266eb5b14610522578063893d8f4c1461054d5780638da5cb5b146105785780638e7ea5b2146105cf5780638f00cbfa1461065f57806392d663131461068a57806393610ed6146106d35780639877ea471461074f578063a00fd3c81461077a578063a324ad24146107ed578063a6f0e57714610834578063b19999371461087d578063b238ad0e146108be578063b647990a14610916578063bbe4fd501461092d578063d037853a14610958578063db709302146109cb578063e254fb5c14610a48578063f8e78e9a14610b44578063fa93f88314610b6f575b600080fd5b34801561019157600080fd5b5061019a610bb6565b6040518082815260200191505060405180910390f35b3480156101bc57600080fd5b506101c5610bbc565b6040518082815260200191505060405180910390f35b3480156101e757600080fd5b5061020660048036038101908080359060200190929190505050610bc2565b604051808260ff1660ff16815260200191505060405180910390f35b34801561022e57600080fd5b506102cf600480360381019080803590602001908201803590602001908080601f0160208091040260200160405190810160405280939291908181526020018383808284378201915050505050509192919290803590602001908201803590602001908080601f0160208091040260200160405190810160405280939291908181526020018383808284378201915050505050509192919290505050610bef565b005b3480156102dd57600080fd5b506102e6610ef7565b604051808273ffffffffffffffffffffffffffffffffffffffff1673ffffffffffffffffffffffffffffffffffffffff16815260200191505060405180910390f35b34801561033457600080fd5b5061038f600480360381019080803590602001908201803590602001908080601f0160208091040260200160405190810160405280939291908181526020018383808284378201915050505050509192919290505050610f1d565b005b34801561039d57600080fd5b506103a6610f6d565b6040518082815260200191505060405180910390f35b3480156103c857600080fd5b506103e760048036038101908080359060200190929190505050610f73565b6040518080602001828103825283818151815260200191508051906020019080838360005b8381101561042757808201518184015260208101905061040c565b50505050905090810190601f1680156104545780820380516001836020036101000a031916815260200191505b509250505060405180910390f35b34801561046e57600080fd5b506104c5600480360381019080803561ffff169060200190929190803560ff169060200190929190803560ff169060200190929190803560ff169060200190929190803560ff169060200190929190505050611028565b6040518082815260200191505060405180910390f35b3480156104e757600080fd5b50610506600480360381019080803590602001909291905050506112cc565b604051808260ff1660ff16815260200191505060405180910390f35b34801561052e57600080fd5b506105376112e2565b6040518082815260200191505060405180910390f35b34801561055957600080fd5b506105626112e8565b6040518082815260200191505060405180910390f35b34801561058457600080fd5b5061058d6112ee565b604051808273ffffffffffffffffffffffffffffffffffffffff1673ffffffffffffffffffffffffffffffffffffffff16815260200191505060405180910390f35b3480156105db57600080fd5b506105e4611314565b6040518080602001828103825283818151815260200191508051906020019080838360005b83811015610624578082015181840152602081019050610609565b50505050905090810190601f1680156106515780820380516001836020036101000a031916815260200191505b509250505060405180910390f35b34801561066b57600080fd5b50610674611424565b6040518082815260200191505060405180910390f35b34801561069657600080fd5b506106b56004803603810190808035906020019092919050505061142a565b604051808261ffff1661ffff16815260200191505060405180910390f35b3480156106df57600080fd5b5061074d60048036038101908080359060200190929190803561ffff169060200190929190803560ff169060200190929190803560ff169060200190929190803560ff169060200190929190803560ff169060200190929190803560ff1690602001909291905050506114d5565b005b34801561075b57600080fd5b506107646115dc565b6040518082815260200191505060405180910390f35b34801561078657600080fd5b506107eb60048036038101908080359060200190929190803590602001908201803590602001908080601f01602080910402602001604051908101604052809392919081815260200183838082843782019150505050505091929192905050506115e2565b005b3480156107f957600080fd5b50610818600480360381019080803590602001909291905050506116e0565b604051808260ff1660ff16815260200191505060405180910390f35b34801561084057600080fd5b50610863600480360381019080803561ffff1690602001909291905050506116f6565b604051808215151515815260200191505060405180910390f35b34801561088957600080fd5b506108a860048036038101908080359060200190929190505050611777565b6040518082815260200191505060405180910390f35b3480156108ca57600080fd5b506108fa600480360381019080803560ff169060200190929190803561ffff1690602001909291905050506117b0565b604051808260ff1660ff16815260200191505060405180910390f35b34801561092257600080fd5b5061092b61187c565b005b34801561093957600080fd5b5061094261191a565b6040518082815260200191505060405180910390f35b34801561096457600080fd5b506109c960048036038101908080359060200190929190803590602001908201803590602001908080601f0160208091040260200160405190810160405280939291908181526020018383808284378201915050505050509192919290505050611926565b005b3480156109d757600080fd5b50610a32600480360381019080803590602001908201803590602001908080601f0160208091040260200160405190810160405280939291908181526020018383808284378201915050505050509192919290505050611c49565b6040518082815260200191505060405180910390f35b348015610a5457600080fd5b50610a5d611d6e565b604051808060200180602001838103835285818151815260200191508051906020019080838360005b83811015610aa1578082015181840152602081019050610a86565b50505050905090810190601f168015610ace5780820380516001836020036101000a031916815260200191505b50838103825284818151815260200191508051906020019080838360005b83811015610b07578082015181840152602081019050610aec565b50505050905090810190601f168015610b345780820380516001836020036101000a031916815260200191505b5094505050505060405180910390f35b348015610b5057600080fd5b50610b59611efe565b6040518082815260200191505060405180910390f35b348015610b7b57600080fd5b50610b9a60048036038101908080359060200190929190505050611f04565b604051808260ff1660ff16815260200191505060405180910390f35b60075481565b600a5481565b60006018603c8084811515610bd357fe5b04811515610bdd57fe5b04811515610be757fe5b069050919050565b60045442111515610bff57600080fd5b610c0882611f25565b1515610c1357600080fd5b610c1c81611f25565b1515610c2757600080fd5b600554421115610c3657610ef3565b600115156002836040518082805190602001908083835b602083101515610c725780518252602082019150602081019050602083039250610c4d565b6001836020036101000a038019825116818451168082178552505050505050905001915050908152602001604051809103902060020160009054906101000a900460ff1615151415610e89576002816040518082805190602001908083835b602083101515610cf65780518252602082019150602081019050602083039250610cd1565b6001836020036101000a0380198251168184511680821785525050505050509050019150509081526020016040518091039020600001546002836040518082805190602001908083835b602083101515610d655780518252602082019150602081019050602083039250610d40565b6001836020036101000a03801982511681845116808217855250505050505090500191505090815260200160405180910390206000016000828254019250508190555060006002826040518082805190602001908083835b602083101515610de25780518252602082019150602081019050602083039250610dbd565b6001836020036101000a0380198251168184511680821785525050505050509050019150509081526020016040518091039020600001819055507f0bb563d6789cea5d754d1b7f85bfebdfe7a1a86e2e0ffccfb8a6bbdb07826ae26040518080602001828103825260118152602001807f4d616e6461746520636f6d706c6574652e00000000000000000000000000000081525060200191505060405180910390a1610ef2565b7f0bb563d6789cea5d754d1b7f85bfebdfe7a1a86e2e0ffccfb8a6bbdb07826ae260405180806020018281038252601a8152602001807f4d616e6461746520636f756c64206e6f7420626520726561642100000000000081525060200191505060405180910390a15b5b5050565b600d60009054906101000a900473ffffffffffffffffffffffffffffffffffffffff1681565b601460035411151515610f2f57600080fd5b6001600360008282540192505081905550806001600060035481526020019081526020016000209080519060200190610f6992919061224e565b5050565b60035481565b6060600160008381526020019081526020016000208054600181600116156101000203166002900480601f01602080910402602001604051908101604052809291908181526020018280546001816001161561010002031660029004801561101c5780601f10610ff15761010080835404028352916020019161101c565b820191906000526020600020905b815481529060010190602001808311610fff57829003601f168201915b50505050509050919050565b6000806110336122ce565b6107b291505b8761ffff168261ffff16101561107c57611052826116f6565b15611065576301e285008301925061106f565b6301e13380830192505b8180600101925050611039565b601f816000600c8110151561108d57fe5b602002019060ff16908160ff16815250506110a7886116f6565b156110d357601d816001600c811015156110bd57fe5b602002019060ff16908160ff16815250506110f6565b601c816001600c811015156110e457fe5b602002019060ff16908160ff16815250505b601f816002600c8110151561110757fe5b602002019060ff16908160ff1681525050601e816003600c8110151561112957fe5b602002019060ff16908160ff1681525050601f816004600c8110151561114b57fe5b602002019060ff16908160ff1681525050601e816005600c8110151561116d57fe5b602002019060ff16908160ff1681525050601f816006600c8110151561118f57fe5b602002019060ff16908160ff1681525050601f816007600c811015156111b157fe5b602002019060ff16908160ff1681525050601e816008600c811015156111d357fe5b602002019060ff16908160ff1681525050601f816009600c811015156111f557fe5b602002019060ff16908160ff1681525050601e81600a600c8110151561121757fe5b602002019060ff16908160ff1681525050601f81600b600c8110151561123957fe5b602002019060ff16908160ff1681525050600191505b8660ff168261ffff16101561129157806001830361ffff16600c8110151561127357fe5b602002015160ff16620151800283019250818060010192505061124f565b6001860360ff166201518002830192508460ff16610e1002830192508360ff16603c0283019250600083019250829250505095945050505050565b60006112d782611faa565b604001519050919050565b60045481565b60095481565b600c60009054906101000a900473ffffffffffffffffffffffffffffffffffffffff1681565b60606005544211151561132657600080fd5b61132e612117565b15611370576040805190810160405280600381526020017f74696500000000000000000000000000000000000000000000000000000000008152509050611421565b6001600060065481526020019081526020016000208054600181600116156101000203166002900480601f0160208091040260200160405190810160405280929190818152602001828054600181600116156101000203166002900480156114195780601f106113ee57610100808354040283529160200191611419565b820191906000526020600020905b8154815290600101906020018083116113fc57829003601f168201915b505050505090505b90565b60065481565b600080600080600092506301e133808581151561144357fe5b046107b261ffff1601915061145d6107b261ffff16611777565b61146a8361ffff16611777565b039050806301e285000283019250806107b2830361ffff16036301e1338002830192505b848311156114ca576114a2600183036116f6565b156114b5576301e28500830392506114bf565b6301e13380830392505b60018203915061148e565b819350505050919050565b6000600454421115156114e757600080fd5b600554421115156114f757600080fd5b600c60009054906101000a900473ffffffffffffffffffffffffffffffffffffffff1673ffffffffffffffffffffffffffffffffffffffff163373ffffffffffffffffffffffffffffffffffffffff1614151561155357600080fd5b600b548260ff16610e100261ffff161015151561156f57600080fd5b61157c8787878787611028565b9050806004819055508160ff16610e100261ffff1681016005819055506115a1612198565b87600a819055506000600381905550600060068190555060006007819055506008600081548092919060010191905055505050505050505050565b60055481565b816002826040518082805190602001908083835b60208310151561161b57805182526020820191506020810190506020830392506115f6565b6001836020036101000a03801982511681845116808217855250505050505090500191505090815260200160405180910390206000018190555060016002826040518082805190602001908083835b60208310151561168f578051825260208201915060208101905060208303925061166a565b6001836020036101000a038019825116818451168082178552505050505050905001915050908152602001604051809103902060020160006101000a81548160ff0219169083151502179055505050565b60006116eb82611faa565b602001519050919050565b60008060048361ffff1681151561170957fe5b0661ffff1614151561171e5760009050611772565b600060648361ffff1681151561173057fe5b0661ffff161415156117455760019050611772565b60006101908361ffff1681151561175857fe5b0661ffff1614151561176d5760009050611772565b600190505b919050565b60006001820391506101908281151561178c57fe5b0460648381151561179957fe5b046004848115156117a657fe5b0403019050919050565b600060018360ff1614806117c7575060038360ff16145b806117d5575060058360ff16145b806117e3575060078360ff16145b806117f1575060088360ff16145b806117ff5750600a8360ff16145b8061180d5750600c8360ff16145b1561181b57601f9050611876565b60048360ff161480611830575060068360ff16145b8061183e575060098360ff16145b8061184c5750600b8360ff16145b1561185a57601e9050611876565b611863826116f6565b1561187157601d9050611876565b601c90505b92915050565b60006005544211151561188e57600080fd5b600190505b60035481111515611917576000806006548152602001908152602001600020546000808381526020019081526020016000205414156118d457806007819055505b60008060065481526020019081526020016000205460008083815260200190815260200160002054111561190a57806006819055505b8080600101915050611893565b50565b6000617e904201905090565b6004544211151561193657600080fd5b61193f816121d2565b15151561194b57600080fd5b61195481611f25565b151561195f57600080fd5b60055442111561196e57611c45565b60035482111515611bdb576002816040518082805190602001908083835b6020831015156119b1578051825260208201915060208101905060208303925061198c565b6001836020036101000a038019825116818451168082178552505050505050905001915050908152602001604051809103902060000154600080848152602001908152602001600020600082825401925050819055506002816040518082805190602001908083835b602083101515611a3f5780518252602082019150602081019050602083039250611a1a565b6001836020036101000a03801982511681845116808217855250505050505090500191505090815260200160405180910390206000015460096000828254019250508190555060006002826040518082805190602001908083835b602083101515611abf5780518252602082019150602081019050602083039250611a9a565b6001836020036101000a0380198251168184511680821785525050505050509050019150509081526020016040518091039020600001819055506008546002826040518082805190602001908083835b602083101515611b345780518252602082019150602081019050602083039250611b0f565b6001836020036101000a0380198251168184511680821785525050505050509050019150509081526020016040518091039020600101819055507f0bb563d6789cea5d754d1b7f85bfebdfe7a1a86e2e0ffccfb8a6bbdb07826ae260405180806020018281038252600d8152602001807f566f746520636f756e7465642e0000000000000000000000000000000000000081525060200191505060405180910390a1611c44565b7f0bb563d6789cea5d754d1b7f85bfebdfe7a1a86e2e0ffccfb8a6bbdb07826ae26040518080602001828103825260178152602001807f566f746520636f756c64206e6f7420626520726561642100000000000000000081525060200191505060405180910390a15b5b5050565b6000806000836040518082805190602001908083835b602083101515611c845780518252602082019150602081019050602083039250611c5f565b6001836020036101000a03801982511681845116808217855250505050505090500191505060405180910390209150600190505b60035481111515611d6257600160008281526020019081526020016000206040518082805460018160011615610100020316600290048015611d315780601f10611d0f576101008083540402835291820191611d31565b820191906000526020600020905b815481529060010190602001808311611d1d575b505091505060405180910390206000191682600019161415611d5557809250611d67565b8080600101915050611cb8565b600092505b5050919050565b60608060055442111515611d8157600080fd5b611d89612117565b1515611d9457600080fd5b600160006006548152602001908152602001600020600160006007548152602001908152602001600020818054600181600116156101000203166002900480601f016020809104026020016040519081016040528092919081815260200182805460018160011615610100020316600290048015611e535780601f10611e2857610100808354040283529160200191611e53565b820191906000526020600020905b815481529060010190602001808311611e3657829003601f168201915b50505050509150808054600181600116156101000203166002900480601f016020809104026020016040519081016040528092919081815260200182805460018160011615610100020316600290048015611eef5780601f10611ec457610100808354040283529160200191611eef565b820191906000526020600020905b815481529060010190602001808311611ed257829003601f168201915b50505050509050915091509091565b60085481565b6000603c8083811515611f1357fe5b04811515611f1d57fe5b069050919050565b60006002826040518082805190602001908083835b602083101515611f5f5780518252602082019150602081019050602083039250611f3a565b6001836020036101000a038019825116818451168082178552505050505050905001915050908152602001604051809103902060020160009054906101000a900460ff169050919050565b611fb26122f2565b60008060008060009350611fc58661142a565b856000019061ffff16908161ffff1681525050611fe76107b261ffff16611777565b611ff8866000015161ffff16611777565b039250826301e285000284019350826107b286600001510361ffff16036301e133800284019350600191505b600c8260ff1611151561207c5761203f8286600001516117b0565b60ff166201518002905085848201111561206a5781856020019060ff16908160ff168152505061207c565b80840193508180600101925050612024565b600191505b612093856020015186600001516117b0565b60ff168260ff161115156120da578584620151800111156120c55781856040019060ff16908160ff16815250506120da565b62015180840193508180600101925050612081565b6120e386610bc2565b856060019060ff16908160ff16815250506120fd86611f04565b856080019060ff16908160ff168152505050505050919050565b60006005544211151561212957600080fd5b600080600754815260200190815260200160002054600080600654815260200190815260200160002054148015612164575060075460065414155b80156121735750600060065414155b80156121825750600060075414155b156121905760019050612195565b600090505b90565b6000600190505b600354811115156121cf57600080600083815260200190815260200160002081905550808060010191505061219f565b50565b60006008546002836040518082805190602001908083835b60208310151561220f57805182526020820191506020810190506020830392506121ea565b6001836020036101000a038019825116818451168082178552505050505050905001915050908152602001604051809103902060010154149050919050565b828054600181600116156101000203166002900490600052602060002090601f016020900481019282601f1061228f57805160ff19168380011785556122bd565b828001600101855582156122bd579182015b828111156122bc5782518255916020019190600101906122a1565b5b5090506122ca9190612346565b5090565b61018060405190810160405280600c90602082028038833980820191505090505090565b60e060405190810160405280600061ffff168152602001600060ff168152602001600060ff168152602001600060ff168152602001600060ff168152602001600060ff168152602001600060ff1681525090565b61236891905b8082111561236457600081600090555060010161234c565b5090565b905600a165627a7a72305820f9e67e36f24506e269fc4c9a82e36cb6a1497915b0d6db47fb65ffdfa10412240029",
  "source": "pragma solidity ^0.4.7;\n\nimport \"./dateTime.sol\";\n\ncontract stockholderElection is DateTime\n{\n    mapping(uint => uint) voteCount; \n    mapping(uint => string) candidate; \n    mapping(string => voter) voters;\n    uint public numCandidates;\n    uint public votePhaseStartTime;\n    uint public votePhaseEndTime;\n    uint public winnerIndex;\n    uint public tieIndex;\n    uint public electionID;\n    uint public totalVoteCount;\n    uint public maxStockCount;\n    uint MIN_VOTE_TIME = 30;\n    address public owner;\n    address public voteManager;\n\n    struct voter\n    {\n        uint stockCount;\n        uint electionID;\n        bool isRegistered;\n    }\n    \n    //Modifiers\n    modifier voteAlreadyStarted{ //   \n        require(now > votePhaseStartTime);\n        _;\n    }\n    modifier voteFinished { \n        require(now > votePhaseEndTime);\n        _;\n    }\n    modifier ownerShip{\n        require(msg.sender == owner);\n        _;\n    }\n    modifier voterShip{\n        require(msg.sender == voteManager);\n        _;\n    }\n\n    event logString(string);\n    event logInt(uint);\n    event voteWinner(string, string);\n\n    function stockholderElection() {\n        owner = msg.sender;\n        voteManager = 0xca35b7d915458ef540ade6068dfe2f44e8fa733c;\n    }\n    \n    function startVote(uint _maxStockCount, uint16 _year, uint8 _month, uint8 _day, uint8 _hour,\n        uint8 _minute, uint8 _endHour) public voteAlreadyStarted voteFinished ownerShip\n    {\n        require((3600*_endHour) >= MIN_VOTE_TIME);\n        uint timeStamp = toTimestamp(_year,_month,_day,_hour,_minute);\n        votePhaseStartTime = timeStamp;\n        votePhaseEndTime = timeStamp + (3600*_endHour);\n        resetVoteCount();\n        maxStockCount = _maxStockCount;\n        numCandidates = 0;\n        winnerIndex = 0;\n        tieIndex = 0;\n        electionID++;\n    }\n\n    function resetVoteCount() private\n    {\n        for (uint i=1; i<=numCandidates; i++)\n        {\n            voteCount[i] = 0;\n        }\n    }\n\n    function addCandidate(string _name) public\n    {\n        require(numCandidates <= 20);\n        numCandidates += 1;\n        candidate[numCandidates] = _name;\n    }\n\n    function register(uint _stock, string _voter) public\n    {\n        voters[_voter].stockCount = _stock;\n        voters[_voter].isRegistered = true;\n    }\n    \n    function castMandate(string _voted, string _voter) public voteAlreadyStarted {\n        require(getRegistrationStatus(_voted));\n        require(getRegistrationStatus(_voter));\n         if (now > votePhaseEndTime) return;\n         \n         if(voters[_voted].isRegistered == true){\n             voters[_voted].stockCount += voters[_voter].stockCount;\n             voters[_voter].stockCount = 0;\n             logString(\"Mandate complete.\");\n         }\n         else \n         {\n            logString(\"Mandate could not be read!\");\n         }\n         \n    }\n\n    function castVote(uint _vote, string _voter) public voteAlreadyStarted\n    {\n        require(!getHasVoted(_voter));\n        require(getRegistrationStatus(_voter));\n        if (now > votePhaseEndTime) return;\n\n        // record the vote\n        if (_vote <= numCandidates) \n        {\n            voteCount[_vote] += voters[_voter].stockCount;\n            totalVoteCount += voters[_voter].stockCount;\n            voters[_voter].stockCount = 0;\n            voters[_voter].electionID = electionID;\n            logString(\"Vote counted.\");\n        }  \n        else \n        {\n            logString(\"Vote could not be read!\");\n        }\n    }\n\n    function countVotes() voteFinished public\n    {\n        for (uint i=1; i<= numCandidates; i++)\n        {\n            if (voteCount[i] == voteCount[winnerIndex]) tieIndex = i;\n            if (voteCount[i] > voteCount[winnerIndex]) winnerIndex = i;\n        }\n    }\n\n    function isTie() constant private voteFinished returns(bool)\n    {\n        if (voteCount[winnerIndex] == voteCount[tieIndex] \n            && winnerIndex != tieIndex\n            && winnerIndex != 0\n            && tieIndex != 0) return true;\n        return false;\n    }\n\n    function getWinner() voteFinished constant public returns(string) \n    {\n        if (isTie()) return \"tie\";\n        return candidate[winnerIndex];\n    }\n\n    function getTieWinner() voteFinished constant public returns(string, string)\n    {\n        require(isTie());\n        return (candidate[winnerIndex], candidate[tieIndex]);\n    }\n\n    function intToCandidate(uint _index) constant public returns(string) \n    {\n        return candidate[_index];\n    }\n\n    function candidateToInt(string _name) constant public returns(uint)\n    {\n        bytes32 nameHash = sha3(_name);\n        for (uint i=1; i<=numCandidates; i++)\n        {\n            if (nameHash == sha3(candidate[i]))\n                return i;\n        }\n        return 0;\n    }\n\n    function getHasVoted(string _voter) constant private returns(bool) \n    {\n        return voters[_voter].electionID == electionID;\n    }\n\n    function getRegistrationStatus(string _voter) constant private returns(bool)\n    {\n        return voters[_voter].isRegistered;\n    }\n\n}\n",
  "sourcePath": "/Users/lucas/dev/js/blockchain_election/dapp_election/contracts/stockholderElection.sol",
  "compiler": {
    "name": "solc",
    "version": "0.4.23+commit.124ca40d.Emscripten.clang"
  },
  "schemaVersion": "2.0.0",
  "updatedAt": "2018-05-15T08:57:37.630Z"
}